{
  "contractName": "EHRSC",
  "abi": [
    {
      "anonymous": false,
      "inputs": [
        {
          "components": [
            {
              "internalType": "address",
              "name": "personAddress",
              "type": "address"
            },
            {
              "internalType": "string",
              "name": "name",
              "type": "string"
            },
            {
              "internalType": "bool",
              "name": "registered",
              "type": "bool"
            },
            {
              "internalType": "bool",
              "name": "verifiedDoctor",
              "type": "bool"
            },
            {
              "internalType": "bool",
              "name": "verifiedPatient",
              "type": "bool"
            },
            {
              "internalType": "uint256",
              "name": "requestCount",
              "type": "uint256"
            },
            {
              "components": [
                {
                  "internalType": "uint256",
                  "name": "requestNo",
                  "type": "uint256"
                },
                {
                  "internalType": "address",
                  "name": "requester",
                  "type": "address"
                },
                {
                  "internalType": "uint256",
                  "name": "bundleNumber",
                  "type": "uint256"
                }
              ],
              "internalType": "struct EHRSC.Request[]",
              "name": "requests",
              "type": "tuple[]"
            },
            {
              "components": [
                {
                  "internalType": "string",
                  "name": "reason",
                  "type": "string"
                },
                {
                  "internalType": "string",
                  "name": "venue",
                  "type": "string"
                },
                {
                  "internalType": "uint256",
                  "name": "date",
                  "type": "uint256"
                },
                {
                  "internalType": "uint256",
                  "name": "time",
                  "type": "uint256"
                }
              ],
              "internalType": "struct EHRSC.Appointment[]",
              "name": "appointments",
              "type": "tuple[]"
            }
          ],
          "indexed": false,
          "internalType": "struct EHRSC.Person",
          "name": "doctor",
          "type": "tuple"
        }
      ],
      "name": "DoctorRegistered",
      "type": "event"
    },
    {
      "anonymous": false,
      "inputs": [
        {
          "components": [
            {
              "internalType": "address",
              "name": "personAddress",
              "type": "address"
            },
            {
              "internalType": "string",
              "name": "name",
              "type": "string"
            },
            {
              "internalType": "bool",
              "name": "registered",
              "type": "bool"
            },
            {
              "internalType": "bool",
              "name": "verifiedDoctor",
              "type": "bool"
            },
            {
              "internalType": "bool",
              "name": "verifiedPatient",
              "type": "bool"
            },
            {
              "internalType": "uint256",
              "name": "requestCount",
              "type": "uint256"
            },
            {
              "components": [
                {
                  "internalType": "uint256",
                  "name": "requestNo",
                  "type": "uint256"
                },
                {
                  "internalType": "address",
                  "name": "requester",
                  "type": "address"
                },
                {
                  "internalType": "uint256",
                  "name": "bundleNumber",
                  "type": "uint256"
                }
              ],
              "internalType": "struct EHRSC.Request[]",
              "name": "requests",
              "type": "tuple[]"
            },
            {
              "components": [
                {
                  "internalType": "string",
                  "name": "reason",
                  "type": "string"
                },
                {
                  "internalType": "string",
                  "name": "venue",
                  "type": "string"
                },
                {
                  "internalType": "uint256",
                  "name": "date",
                  "type": "uint256"
                },
                {
                  "internalType": "uint256",
                  "name": "time",
                  "type": "uint256"
                }
              ],
              "internalType": "struct EHRSC.Appointment[]",
              "name": "appointments",
              "type": "tuple[]"
            }
          ],
          "indexed": false,
          "internalType": "struct EHRSC.Person",
          "name": "patient",
          "type": "tuple"
        }
      ],
      "name": "PatientRegistered",
      "type": "event"
    },
    {
      "anonymous": false,
      "inputs": [
        {
          "components": [
            {
              "internalType": "string",
              "name": "reason",
              "type": "string"
            },
            {
              "internalType": "string",
              "name": "venue",
              "type": "string"
            },
            {
              "internalType": "uint256",
              "name": "date",
              "type": "uint256"
            },
            {
              "internalType": "uint256",
              "name": "time",
              "type": "uint256"
            }
          ],
          "indexed": false,
          "internalType": "struct EHRSC.Appointment",
          "name": "newAppointment",
          "type": "tuple"
        }
      ],
      "name": "RequestedAppointment",
      "type": "event"
    },
    {
      "anonymous": false,
      "inputs": [
        {
          "components": [
            {
              "internalType": "uint256",
              "name": "requestNo",
              "type": "uint256"
            },
            {
              "internalType": "address",
              "name": "requester",
              "type": "address"
            },
            {
              "internalType": "uint256",
              "name": "bundleNumber",
              "type": "uint256"
            }
          ],
          "indexed": false,
          "internalType": "struct EHRSC.Request",
          "name": "newRequest",
          "type": "tuple"
        },
        {
          "indexed": false,
          "internalType": "address",
          "name": "patientAddress",
          "type": "address"
        }
      ],
      "name": "RequestedDocuments",
      "type": "event"
    },
    {
      "stateMutability": "nonpayable",
      "type": "fallback"
    },
    {
      "inputs": [],
      "name": "functionCalled",
      "outputs": [
        {
          "internalType": "string",
          "name": "",
          "type": "string"
        }
      ],
      "stateMutability": "view",
      "type": "function",
      "constant": true
    },
    {
      "inputs": [
        {
          "internalType": "address",
          "name": "",
          "type": "address"
        }
      ],
      "name": "persons",
      "outputs": [
        {
          "internalType": "address",
          "name": "personAddress",
          "type": "address"
        },
        {
          "internalType": "string",
          "name": "name",
          "type": "string"
        },
        {
          "internalType": "bool",
          "name": "registered",
          "type": "bool"
        },
        {
          "internalType": "bool",
          "name": "verifiedDoctor",
          "type": "bool"
        },
        {
          "internalType": "bool",
          "name": "verifiedPatient",
          "type": "bool"
        },
        {
          "internalType": "uint256",
          "name": "requestCount",
          "type": "uint256"
        }
      ],
      "stateMutability": "view",
      "type": "function",
      "constant": true
    },
    {
      "inputs": [
        {
          "internalType": "string",
          "name": "_name",
          "type": "string"
        }
      ],
      "name": "registerDoctor",
      "outputs": [],
      "stateMutability": "nonpayable",
      "type": "function"
    },
    {
      "inputs": [
        {
          "internalType": "string",
          "name": "_name",
          "type": "string"
        }
      ],
      "name": "registerPatient",
      "outputs": [],
      "stateMutability": "nonpayable",
      "type": "function"
    },
    {
      "inputs": [],
      "name": "getName",
      "outputs": [
        {
          "internalType": "string",
          "name": "",
          "type": "string"
        }
      ],
      "stateMutability": "view",
      "type": "function",
      "constant": true
    },
    {
      "inputs": [],
      "name": "isVerifiedDoctor",
      "outputs": [
        {
          "internalType": "bool",
          "name": "",
          "type": "bool"
        }
      ],
      "stateMutability": "view",
      "type": "function",
      "constant": true
    },
    {
      "inputs": [],
      "name": "isVerifiedPatient",
      "outputs": [
        {
          "internalType": "bool",
          "name": "",
          "type": "bool"
        }
      ],
      "stateMutability": "view",
      "type": "function",
      "constant": true
    },
    {
      "inputs": [
        {
          "internalType": "address",
          "name": "_patientAddress",
          "type": "address"
        },
        {
          "internalType": "uint256",
          "name": "_bundleNumber",
          "type": "uint256"
        }
      ],
      "name": "requestDocuments",
      "outputs": [],
      "stateMutability": "nonpayable",
      "type": "function"
    },
    {
      "inputs": [],
      "name": "checkPatientRequestCount",
      "outputs": [
        {
          "internalType": "uint256",
          "name": "",
          "type": "uint256"
        }
      ],
      "stateMutability": "view",
      "type": "function",
      "constant": true
    },
    {
      "inputs": [
        {
          "internalType": "uint256",
          "name": "index",
          "type": "uint256"
        }
      ],
      "name": "checkPatientRequestAtIndex",
      "outputs": [
        {
          "components": [
            {
              "internalType": "uint256",
              "name": "requestNo",
              "type": "uint256"
            },
            {
              "internalType": "address",
              "name": "requester",
              "type": "address"
            },
            {
              "internalType": "uint256",
              "name": "bundleNumber",
              "type": "uint256"
            }
          ],
          "internalType": "struct EHRSC.Request",
          "name": "",
          "type": "tuple"
        }
      ],
      "stateMutability": "view",
      "type": "function",
      "constant": true
    },
    {
      "inputs": [
        {
          "internalType": "string",
          "name": "_reason",
          "type": "string"
        }
      ],
      "name": "requestAppointment",
      "outputs": [],
      "stateMutability": "nonpayable",
      "type": "function"
    }
  ],
  "bytecode": "0x608060405234801561001057600080fd5b50611c75806100206000396000f3fe608060405234801561001057600080fd5b50600436106100ad5760003560e01c80638ada2cf6116100715780638ada2cf6146101905780638f09ab5b146101c5578063b5eed62e146101e1578063c94752f414610211578063cc81afc81461022d578063fe87f6501461024b576100ae565b806317d7de7c146100fc578063201af7c41461011a57806337f51969146101385780633df97ca514610156578063869c9eaf14610174576100ae565b5b6040518060400160405280600881526020017f66616c6c6261636b000000000000000000000000000000000000000000000000815250600090805190602001906100f9929190610f6c565b50005b610104610267565b604051610111919061176a565b60405180910390f35b610122610339565b60405161012f9190611854565b60405180910390f35b610140610412565b60405161014d919061174f565b60405180910390f35b61015e610469565b60405161016b919061174f565b60405180910390f35b61018e6004803603810190610189919061113d565b6104c0565b005b6101aa60048036038101906101a591906110d8565b61068b565b6040516101bc969594939291906116e7565b60405180910390f35b6101df60048036038101906101da919061113d565b610796565b005b6101fb60048036038101906101f6919061117e565b610957565b6040516102089190611810565b60405180910390f35b61022b60048036038101906102269190611101565b610af2565b005b610235610d22565b604051610242919061176a565b60405180910390f35b6102656004803603810190610260919061113d565b610db0565b005b6060600160003373ffffffffffffffffffffffffffffffffffffffff1673ffffffffffffffffffffffffffffffffffffffff16815260200190815260200160002060010180546102b690611a4f565b80601f01602080910402602001604051908101604052809291908181526020018280546102e290611a4f565b801561032f5780601f106103045761010080835404028352916020019161032f565b820191906000526020600020905b81548152906001019060200180831161031257829003601f168201915b5050505050905090565b6000600160003373ffffffffffffffffffffffffffffffffffffffff1673ffffffffffffffffffffffffffffffffffffffff16815260200190815260200160002060020160029054906101000a900460ff166103ca576040517f08c379a00000000000000000000000000000000000000000000000000000000081526004016103c19061178c565b60405180910390fd5b600160003373ffffffffffffffffffffffffffffffffffffffff1673ffffffffffffffffffffffffffffffffffffffff16815260200190815260200160002060030154905090565b6000600160003373ffffffffffffffffffffffffffffffffffffffff1673ffffffffffffffffffffffffffffffffffffffff16815260200190815260200160002060020160019054906101000a900460ff16905090565b6000600160003373ffffffffffffffffffffffffffffffffffffffff1673ffffffffffffffffffffffffffffffffffffffff16815260200190815260200160002060020160029054906101000a900460ff16905090565b600160003373ffffffffffffffffffffffffffffffffffffffff1673ffffffffffffffffffffffffffffffffffffffff16815260200190815260200160002060020160009054906101000a900460ff1615610550576040517f08c379a0000000000000000000000000000000000000000000000000000000008152600401610547906117ac565b60405180910390fd5b6000600160003373ffffffffffffffffffffffffffffffffffffffff1673ffffffffffffffffffffffffffffffffffffffff1681526020019081526020016000209050338160000160006101000a81548173ffffffffffffffffffffffffffffffffffffffff021916908373ffffffffffffffffffffffffffffffffffffffff160217905550818160010190805190602001906105ee929190610f6c565b5060018160020160006101000a81548160ff02191690831515021790555060008160020160016101000a81548160ff02191690831515021790555060018160020160026101000a81548160ff021916908315150217905550600081600301819055507f5f4b20b459c0acf1c7f277c49bcf58585ebede513f691fc703dbbd43aefb38438160405161067f91906117ee565b60405180910390a15050565b60016020528060005260406000206000915090508060000160009054906101000a900473ffffffffffffffffffffffffffffffffffffffff16908060010180546106d490611a4f565b80601f016020809104026020016040519081016040528092919081815260200182805461070090611a4f565b801561074d5780601f106107225761010080835404028352916020019161074d565b820191906000526020600020905b81548152906001019060200180831161073057829003601f168201915b5050505050908060020160009054906101000a900460ff16908060020160019054906101000a900460ff16908060020160029054906101000a900460ff16908060030154905086565b600160003373ffffffffffffffffffffffffffffffffffffffff1673ffffffffffffffffffffffffffffffffffffffff16815260200190815260200160002060020160009054906101000a900460ff1615610826576040517f08c379a000000000000000000000000000000000000000000000000000000000815260040161081d906117ac565b60405180910390fd5b6000600160003373ffffffffffffffffffffffffffffffffffffffff1673ffffffffffffffffffffffffffffffffffffffff1681526020019081526020016000209050338160000160006101000a81548173ffffffffffffffffffffffffffffffffffffffff021916908373ffffffffffffffffffffffffffffffffffffffff160217905550818160010190805190602001906108c4929190610f6c565b5060018160020160006101000a81548160ff02191690831515021790555060018160020160016101000a81548160ff02191690831515021790555060008160020160026101000a81548160ff0219169083151502179055507fafdb9c2a94de517a6dc6561cfb063ce9209208c235b3676a0df5b6fe21b871c48160405161094b91906117ee565b60405180910390a15050565b61095f610ff2565b600160003373ffffffffffffffffffffffffffffffffffffffff1673ffffffffffffffffffffffffffffffffffffffff16815260200190815260200160002060020160029054906101000a900460ff166109ee576040517f08c379a00000000000000000000000000000000000000000000000000000000081526004016109e59061178c565b60405180910390fd5b600160003373ffffffffffffffffffffffffffffffffffffffff1673ffffffffffffffffffffffffffffffffffffffff1681526020019081526020016000206004018281548110610a68577f4e487b7100000000000000000000000000000000000000000000000000000000600052603260045260246000fd5b9060005260206000209060030201604051806060016040529081600082015481526020016001820160009054906101000a900473ffffffffffffffffffffffffffffffffffffffff1673ffffffffffffffffffffffffffffffffffffffff1673ffffffffffffffffffffffffffffffffffffffff1681526020016002820154815250509050919050565b600160003373ffffffffffffffffffffffffffffffffffffffff1673ffffffffffffffffffffffffffffffffffffffff16815260200190815260200160002060020160019054906101000a900460ff16610b4b57600080fd5b6000600160008473ffffffffffffffffffffffffffffffffffffffff1673ffffffffffffffffffffffffffffffffffffffff168152602001908152602001600020600301549050600060405180606001604052808381526020013373ffffffffffffffffffffffffffffffffffffffff168152602001848152509050600160008573ffffffffffffffffffffffffffffffffffffffff1673ffffffffffffffffffffffffffffffffffffffff1681526020019081526020016000206004018190806001815401808255809150506001900390600052602060002090600302016000909190919091506000820151816000015560208201518160010160006101000a81548173ffffffffffffffffffffffffffffffffffffffff021916908373ffffffffffffffffffffffffffffffffffffffff16021790555060408201518160020155505081610c9a90611b03565b915081600160008673ffffffffffffffffffffffffffffffffffffffff1673ffffffffffffffffffffffffffffffffffffffff168152602001908152602001600020600301819055507fba910960b67d997430413a8491c25a9bd30e767082524f5a4c398d28d1f1c72e8185604051610d1492919061182b565b60405180910390a150505050565b60008054610d2f90611a4f565b80601f0160208091040260200160405190810160405280929190818152602001828054610d5b90611a4f565b8015610da85780601f10610d7d57610100808354040283529160200191610da8565b820191906000526020600020905b815481529060010190602001808311610d8b57829003601f168201915b505050505081565b600160003373ffffffffffffffffffffffffffffffffffffffff1673ffffffffffffffffffffffffffffffffffffffff16815260200190815260200160002060020160029054906101000a900460ff16610e3f576040517f08c379a0000000000000000000000000000000000000000000000000000000008152600401610e369061178c565b60405180910390fd5b600060405180608001604052808381526020016040518060200160405280600081525081526020016000815260200160008152509050600160003373ffffffffffffffffffffffffffffffffffffffff1673ffffffffffffffffffffffffffffffffffffffff1681526020019081526020016000206005018190806001815401808255809150506001900390600052602060002090600402016000909190919091506000820151816000019080519060200190610efd929190610f6c565b506020820151816001019080519060200190610f1a929190610f6c565b50604082015181600201556060820151816003015550507f7058516056f92f6e7765a333be422d27865510565de1b5a67e667d4c585138f781604051610f6091906117cc565b60405180910390a15050565b828054610f7890611a4f565b90600052602060002090601f016020900481019282610f9a5760008555610fe1565b82601f10610fb357805160ff1916838001178555610fe1565b82800160010185558215610fe1579182015b82811115610fe0578251825591602001919060010190610fc5565b5b509050610fee9190611029565b5090565b604051806060016040528060008152602001600073ffffffffffffffffffffffffffffffffffffffff168152602001600081525090565b5b8082111561104257600081600090555060010161102a565b5090565b6000611059611054846118a0565b61186f565b90508281526020810184848401111561107157600080fd5b61107c848285611a0d565b509392505050565b60008135905061109381611c11565b92915050565b600082601f8301126110aa57600080fd5b81356110ba848260208601611046565b91505092915050565b6000813590506110d281611c28565b92915050565b6000602082840312156110ea57600080fd5b60006110f884828501611084565b91505092915050565b6000806040838503121561111457600080fd5b600061112285828601611084565b9250506020611133858286016110c3565b9150509250929050565b60006020828403121561114f57600080fd5b600082013567ffffffffffffffff81111561116957600080fd5b61117584828501611099565b91505092915050565b60006020828403121561119057600080fd5b600061119e848285016110c3565b91505092915050565b60006111b383836114bc565b905092915050565b60006111c78383611664565b60608301905092915050565b6111dc816119c5565b82525050565b6111eb816119c5565b82525050565b60006111fc8261190f565b611206818561194a565b935083602082028501611218856118d0565b8060005b858110156112535784840389528161123485826111a7565b945061123f83611930565b925060208a0199505060018101905061121c565b50829750879550505050505092915050565b60006112708261191a565b61127a818561195b565b9350611285836118e5565b8060005b838110156112b5578161129c88826111bb565b97506112a78361193d565b925050600181019050611289565b5085935050505092915050565b6112cb816119d7565b82525050565b6112da816119d7565b82525050565b60006112eb82611925565b6112f5818561196c565b9350611305818560208601611a1c565b61130e81611bd9565b840191505092915050565b600061132482611925565b61132e818561197d565b935061133e818560208601611a1c565b61134781611bd9565b840191505092915050565b6000815461135f81611a4f565b611369818661196c565b945060018216600081146113845760018114611396576113c9565b60ff19831686526020860193506113c9565b61139f856118fa565b60005b838110156113c1578154818901526001820191506020810190506113a2565b808801955050505b50505092915050565b60006113df60118361197d565b91507f4d75737420626520612070617469656e740000000000000000000000000000006000830152602082019050919050565b600061141f60198361197d565b91507f506572736f6e20616c72656164792072656769737465726564000000000000006000830152602082019050919050565b6000608083016000830151848203600086015261146f82826112e0565b9150506020830151848203602086015261148982826112e0565b915050604083015161149e60408601826116c9565b5060608301516114b160608601826116c9565b508091505092915050565b600060808301600080840185830360008701526114d98382611352565b9250506001840185830360208701526114f28382611352565b9250506002840154905061150581611ab5565b61151260408701826116c9565b506003840154905061152381611ab5565b61153060608701826116c9565b50819250505092915050565b60006101008301600080840154905061155481611a81565b61156160008701826111d3565b506001840185830360208701526115788382611352565b9250506002840154905061158b81611a9b565b61159860408701826112c2565b506115a281611acf565b6115af60608701826112c2565b506115b981611ae9565b6115c660808701826112c2565b50600384015490506115d781611ab5565b6115e460a08701826116c9565b506004840185830360c08701526115fb8382611265565b9250506005840185830360e087015261161483826111f1565b925050819250505092915050565b60608201600082015161163860008501826116c9565b50602082015161164b60208501826111d3565b50604082015161165e60408501826116c9565b50505050565b60608201600080830154905061167981611ab5565b61168660008601826116c9565b506001830154905061169781611a81565b6116a460208601826111d3565b50600283015490506116b581611ab5565b6116c260408601826116c9565b5050505050565b6116d281611a03565b82525050565b6116e181611a03565b82525050565b600060c0820190506116fc60008301896111e2565b818103602083015261170e8188611319565b905061171d60408301876112d1565b61172a60608301866112d1565b61173760808301856112d1565b61174460a08301846116d8565b979650505050505050565b600060208201905061176460008301846112d1565b92915050565b600060208201905081810360008301526117848184611319565b905092915050565b600060208201905081810360008301526117a5816113d2565b9050919050565b600060208201905081810360008301526117c581611412565b9050919050565b600060208201905081810360008301526117e68184611452565b905092915050565b60006020820190508181036000830152611808818461153c565b905092915050565b60006060820190506118256000830184611622565b92915050565b60006080820190506118406000830185611622565b61184d60608301846111e2565b9392505050565b600060208201905061186960008301846116d8565b92915050565b6000604051905081810181811067ffffffffffffffff8211171561189657611895611baa565b5b8060405250919050565b600067ffffffffffffffff8211156118bb576118ba611baa565b5b601f19601f8301169050602081019050919050565b60008190508160005260206000209050919050565b60008190508160005260206000209050919050565b60008190508160005260206000209050919050565b600081549050919050565b600081549050919050565b600081519050919050565b6000600482019050919050565b6000600382019050919050565b600082825260208201905092915050565b600082825260208201905092915050565b600082825260208201905092915050565b600082825260208201905092915050565b600073ffffffffffffffffffffffffffffffffffffffff82169050919050565b600060ff82169050919050565b6000819050919050565b60006119d0826119e3565b9050919050565b60008115159050919050565b600073ffffffffffffffffffffffffffffffffffffffff82169050919050565b6000819050919050565b82818337600083830152505050565b60005b83811015611a3a578082015181840152602081019050611a1f565b83811115611a49576000848401525b50505050565b60006002820490506001821680611a6757607f821691505b60208210811415611a7b57611a7a611b7b565b5b50919050565b6000611a94611a8f83611bea565b61198e565b9050919050565b6000611aae611aa983611bea565b6119ae565b9050919050565b6000611ac8611ac383611bea565b6119bb565b9050919050565b6000611ae2611add83611c04565b6119ae565b9050919050565b6000611afc611af783611bf7565b6119ae565b9050919050565b6000611b0e82611a03565b91507fffffffffffffffffffffffffffffffffffffffffffffffffffffffffffffffff821415611b4157611b40611b4c565b5b600182019050919050565b7f4e487b7100000000000000000000000000000000000000000000000000000000600052601160045260246000fd5b7f4e487b7100000000000000000000000000000000000000000000000000000000600052602260045260246000fd5b7f4e487b7100000000000000000000000000000000000000000000000000000000600052604160045260246000fd5b6000601f19601f8301169050919050565b60008160001c9050919050565b60008160101c9050919050565b60008160081c9050919050565b611c1a816119c5565b8114611c2557600080fd5b50565b611c3181611a03565b8114611c3c57600080fd5b5056fea26469706673582212206770ece7acf804fa596726be7a3dcb52605e3f9da9cd3787300f8b1c499befd164736f6c63430008000033",
  "immutableReferences": {},
  "source": "// SPDX-License-Identifier: MIT\n// pragma solidity >=0.4.22 <0.8.0;\npragma solidity >=0.7.0 <0.9.0;\n\ncontract EHRSC {\n    string public functionCalled;\n\n    struct Person {\n        address personAddress;\n        string name;\n        bool registered;\n        bool verifiedDoctor;\n        bool verifiedPatient;\n        uint256 requestCount;\n        Request[] requests;\n        Appointment[] appointments;\n        // mapping(uint256 => HealthRecord) healthRecords;\n    }\n\n    struct Request {\n        uint256 requestNo;\n        address requester;\n        uint256 bundleNumber;\n    }\n\n    struct Appointment {\n        string reason;\n        string venue;\n        uint256 date;\n        uint256 time; // time object?\n    }\n\n    // struct HealthRecord {}\n    // struct Hospital {}\n\n    mapping(address => Person) public persons;\n\n    event DoctorRegistered(Person doctor);\n    event PatientRegistered(Person patient);\n    // event DoctorVerified(Person doctor);\n    // event PatientVerified(Person patient);\n    event RequestedDocuments(Request newRequest, address patientAddress);\n    event RequestedAppointment(Appointment newAppointment);\n\n    modifier onlyDoctor() {\n        require(persons[msg.sender].verifiedDoctor);\n        _;\n    }\n\n    modifier onlyPatient() {\n        require(persons[msg.sender].verifiedPatient, \"Must be a patient\");\n        _;\n    }\n\n    modifier onlyRegistered() {\n        require(!persons[msg.sender].registered, \"Person already registered\");\n        _;\n    }\n\n    function registerDoctor(string memory _name) public onlyRegistered {\n        Person storage doctor = persons[msg.sender];\n        doctor.personAddress = msg.sender;\n        doctor.name = _name;\n        doctor.registered = true;\n        doctor.verifiedDoctor = true;\n        doctor.verifiedPatient = false;\n        // gender, email, nationality, etc.\n        emit DoctorRegistered(doctor);\n    }\n\n    function registerPatient(string memory _name) public onlyRegistered {\n        Person storage patient = persons[msg.sender];\n        patient.personAddress = msg.sender;\n        patient.name = _name;\n        patient.registered = true;\n        patient.verifiedDoctor = false;\n        patient.verifiedPatient = true;\n        patient.requestCount = 0;\n        // patient info\n        // IC for locals / passport for foreigners\n        // contact and home address\n        // related contacts\n        // employment details\n        emit PatientRegistered(patient);\n    }\n\n    function getName() public view returns (string memory) {\n        return persons[msg.sender].name;\n    }\n\n    function isVerifiedDoctor() public view returns (bool) {\n        return persons[msg.sender].verifiedDoctor;\n    }\n\n    function isVerifiedPatient() public view returns (bool) {\n        return persons[msg.sender].verifiedPatient;\n    }\n\n    function requestDocuments(address _patientAddress, uint256 _bundleNumber)\n        public\n        onlyDoctor\n    {\n        // require(persons[patientAddress].verifiedPatient); // TODO: document must exist\n        uint256 count = persons[_patientAddress].requestCount; // used for tracking request count\n        Request memory newRequest = Request(count, msg.sender, _bundleNumber);\n        persons[_patientAddress].requests.push(newRequest);\n        persons[_patientAddress].requestCount = ++count;\n        emit RequestedDocuments(newRequest, _patientAddress);\n    }\n\n    function checkPatientRequestCount()\n        public\n        view\n        onlyPatient\n        returns (uint256)\n    {\n        return persons[msg.sender].requestCount;\n    }\n\n    function checkPatientRequestAtIndex(uint256 index)\n        public\n        view\n        onlyPatient\n        returns (Request memory)\n    {\n        return persons[msg.sender].requests[index];\n    }\n\n    function requestAppointment(string memory _reason) public onlyPatient {\n        Appointment memory newAppointment = Appointment(_reason, \"\", 0, 0);\n        persons[msg.sender].appointments.push(newAppointment);\n        emit RequestedAppointment(newAppointment);\n    }\n\n    fallback() external {\n        functionCalled = \"fallback\";\n    }\n\n    // TODO: function: RA verifies patient and doctor\n    // TODO: function: Patient allow access to doctor or send re-encryption keys to NuCypher network\n}\n",
  "sourcePath": "/mnt/c/Users/assid/Documents/Workspace/EHR-Besu/contracts/EHRSC.sol",
  "compiler": {
    "name": "solc",
    "version": "0.8.0+commit.c7dfd78e.Emscripten.clang"
  },
  "schemaVersion": "3.4.3",
  "updatedAt": "2021-10-06T05:55:23.725Z",
  "networkType": "ethereum",
  "devdoc": {
    "kind": "dev",
    "methods": {},
    "version": 1
  },
  "userdoc": {
    "kind": "user",
    "methods": {},
    "version": 1
  }
}