{
  "contractName": "EHRSC",
  "abi": [
    {
      "inputs": [],
      "stateMutability": "nonpayable",
      "type": "constructor"
    },
    {
      "anonymous": false,
      "inputs": [
        {
          "components": [
            {
              "internalType": "address",
              "name": "personAddress",
              "type": "address"
            },
            {
              "internalType": "string",
              "name": "name",
              "type": "string"
            },
            {
              "internalType": "enum EHRSC.EntityClaim",
              "name": "entityClaim",
              "type": "uint8"
            },
            {
              "internalType": "bool",
              "name": "registered",
              "type": "bool"
            },
            {
              "internalType": "bool",
              "name": "verifiedDoctor",
              "type": "bool"
            },
            {
              "internalType": "bool",
              "name": "verifiedPatient",
              "type": "bool"
            },
            {
              "internalType": "bool",
              "name": "verifiedRegulatoryAgencyAdmin",
              "type": "bool"
            },
            {
              "internalType": "uint256",
              "name": "requestCount",
              "type": "uint256"
            },
            {
              "components": [
                {
                  "internalType": "uint256",
                  "name": "requestNo",
                  "type": "uint256"
                },
                {
                  "internalType": "address",
                  "name": "requester",
                  "type": "address"
                },
                {
                  "internalType": "uint256",
                  "name": "bundleNumber",
                  "type": "uint256"
                }
              ],
              "internalType": "struct EHRSC.Request[]",
              "name": "requests",
              "type": "tuple[]"
            },
            {
              "components": [
                {
                  "internalType": "string",
                  "name": "reason",
                  "type": "string"
                },
                {
                  "internalType": "string",
                  "name": "venue",
                  "type": "string"
                },
                {
                  "internalType": "uint256",
                  "name": "date",
                  "type": "uint256"
                },
                {
                  "internalType": "uint256",
                  "name": "time",
                  "type": "uint256"
                }
              ],
              "internalType": "struct EHRSC.Appointment[]",
              "name": "appointments",
              "type": "tuple[]"
            }
          ],
          "indexed": false,
          "internalType": "struct EHRSC.Person",
          "name": "doctor",
          "type": "tuple"
        }
      ],
      "name": "DoctorRegistered",
      "type": "event"
    },
    {
      "anonymous": false,
      "inputs": [
        {
          "components": [
            {
              "internalType": "address",
              "name": "personAddress",
              "type": "address"
            },
            {
              "internalType": "string",
              "name": "name",
              "type": "string"
            },
            {
              "internalType": "enum EHRSC.EntityClaim",
              "name": "entityClaim",
              "type": "uint8"
            },
            {
              "internalType": "bool",
              "name": "registered",
              "type": "bool"
            },
            {
              "internalType": "bool",
              "name": "verifiedDoctor",
              "type": "bool"
            },
            {
              "internalType": "bool",
              "name": "verifiedPatient",
              "type": "bool"
            },
            {
              "internalType": "bool",
              "name": "verifiedRegulatoryAgencyAdmin",
              "type": "bool"
            },
            {
              "internalType": "uint256",
              "name": "requestCount",
              "type": "uint256"
            },
            {
              "components": [
                {
                  "internalType": "uint256",
                  "name": "requestNo",
                  "type": "uint256"
                },
                {
                  "internalType": "address",
                  "name": "requester",
                  "type": "address"
                },
                {
                  "internalType": "uint256",
                  "name": "bundleNumber",
                  "type": "uint256"
                }
              ],
              "internalType": "struct EHRSC.Request[]",
              "name": "requests",
              "type": "tuple[]"
            },
            {
              "components": [
                {
                  "internalType": "string",
                  "name": "reason",
                  "type": "string"
                },
                {
                  "internalType": "string",
                  "name": "venue",
                  "type": "string"
                },
                {
                  "internalType": "uint256",
                  "name": "date",
                  "type": "uint256"
                },
                {
                  "internalType": "uint256",
                  "name": "time",
                  "type": "uint256"
                }
              ],
              "internalType": "struct EHRSC.Appointment[]",
              "name": "appointments",
              "type": "tuple[]"
            }
          ],
          "indexed": false,
          "internalType": "struct EHRSC.Person",
          "name": "doctor",
          "type": "tuple"
        }
      ],
      "name": "DoctorVerified",
      "type": "event"
    },
    {
      "anonymous": false,
      "inputs": [
        {
          "components": [
            {
              "internalType": "address",
              "name": "personAddress",
              "type": "address"
            },
            {
              "internalType": "string",
              "name": "name",
              "type": "string"
            },
            {
              "internalType": "enum EHRSC.EntityClaim",
              "name": "entityClaim",
              "type": "uint8"
            },
            {
              "internalType": "bool",
              "name": "registered",
              "type": "bool"
            },
            {
              "internalType": "bool",
              "name": "verifiedDoctor",
              "type": "bool"
            },
            {
              "internalType": "bool",
              "name": "verifiedPatient",
              "type": "bool"
            },
            {
              "internalType": "bool",
              "name": "verifiedRegulatoryAgencyAdmin",
              "type": "bool"
            },
            {
              "internalType": "uint256",
              "name": "requestCount",
              "type": "uint256"
            },
            {
              "components": [
                {
                  "internalType": "uint256",
                  "name": "requestNo",
                  "type": "uint256"
                },
                {
                  "internalType": "address",
                  "name": "requester",
                  "type": "address"
                },
                {
                  "internalType": "uint256",
                  "name": "bundleNumber",
                  "type": "uint256"
                }
              ],
              "internalType": "struct EHRSC.Request[]",
              "name": "requests",
              "type": "tuple[]"
            },
            {
              "components": [
                {
                  "internalType": "string",
                  "name": "reason",
                  "type": "string"
                },
                {
                  "internalType": "string",
                  "name": "venue",
                  "type": "string"
                },
                {
                  "internalType": "uint256",
                  "name": "date",
                  "type": "uint256"
                },
                {
                  "internalType": "uint256",
                  "name": "time",
                  "type": "uint256"
                }
              ],
              "internalType": "struct EHRSC.Appointment[]",
              "name": "appointments",
              "type": "tuple[]"
            }
          ],
          "indexed": false,
          "internalType": "struct EHRSC.Person",
          "name": "patient",
          "type": "tuple"
        }
      ],
      "name": "PatientRegistered",
      "type": "event"
    },
    {
      "anonymous": false,
      "inputs": [
        {
          "components": [
            {
              "internalType": "address",
              "name": "personAddress",
              "type": "address"
            },
            {
              "internalType": "string",
              "name": "name",
              "type": "string"
            },
            {
              "internalType": "enum EHRSC.EntityClaim",
              "name": "entityClaim",
              "type": "uint8"
            },
            {
              "internalType": "bool",
              "name": "registered",
              "type": "bool"
            },
            {
              "internalType": "bool",
              "name": "verifiedDoctor",
              "type": "bool"
            },
            {
              "internalType": "bool",
              "name": "verifiedPatient",
              "type": "bool"
            },
            {
              "internalType": "bool",
              "name": "verifiedRegulatoryAgencyAdmin",
              "type": "bool"
            },
            {
              "internalType": "uint256",
              "name": "requestCount",
              "type": "uint256"
            },
            {
              "components": [
                {
                  "internalType": "uint256",
                  "name": "requestNo",
                  "type": "uint256"
                },
                {
                  "internalType": "address",
                  "name": "requester",
                  "type": "address"
                },
                {
                  "internalType": "uint256",
                  "name": "bundleNumber",
                  "type": "uint256"
                }
              ],
              "internalType": "struct EHRSC.Request[]",
              "name": "requests",
              "type": "tuple[]"
            },
            {
              "components": [
                {
                  "internalType": "string",
                  "name": "reason",
                  "type": "string"
                },
                {
                  "internalType": "string",
                  "name": "venue",
                  "type": "string"
                },
                {
                  "internalType": "uint256",
                  "name": "date",
                  "type": "uint256"
                },
                {
                  "internalType": "uint256",
                  "name": "time",
                  "type": "uint256"
                }
              ],
              "internalType": "struct EHRSC.Appointment[]",
              "name": "appointments",
              "type": "tuple[]"
            }
          ],
          "indexed": false,
          "internalType": "struct EHRSC.Person",
          "name": "patient",
          "type": "tuple"
        }
      ],
      "name": "PatientVerified",
      "type": "event"
    },
    {
      "anonymous": false,
      "inputs": [
        {
          "components": [
            {
              "internalType": "address",
              "name": "personAddress",
              "type": "address"
            },
            {
              "internalType": "string",
              "name": "name",
              "type": "string"
            },
            {
              "internalType": "enum EHRSC.EntityClaim",
              "name": "entityClaim",
              "type": "uint8"
            },
            {
              "internalType": "bool",
              "name": "registered",
              "type": "bool"
            },
            {
              "internalType": "bool",
              "name": "verifiedDoctor",
              "type": "bool"
            },
            {
              "internalType": "bool",
              "name": "verifiedPatient",
              "type": "bool"
            },
            {
              "internalType": "bool",
              "name": "verifiedRegulatoryAgencyAdmin",
              "type": "bool"
            },
            {
              "internalType": "uint256",
              "name": "requestCount",
              "type": "uint256"
            },
            {
              "components": [
                {
                  "internalType": "uint256",
                  "name": "requestNo",
                  "type": "uint256"
                },
                {
                  "internalType": "address",
                  "name": "requester",
                  "type": "address"
                },
                {
                  "internalType": "uint256",
                  "name": "bundleNumber",
                  "type": "uint256"
                }
              ],
              "internalType": "struct EHRSC.Request[]",
              "name": "requests",
              "type": "tuple[]"
            },
            {
              "components": [
                {
                  "internalType": "string",
                  "name": "reason",
                  "type": "string"
                },
                {
                  "internalType": "string",
                  "name": "venue",
                  "type": "string"
                },
                {
                  "internalType": "uint256",
                  "name": "date",
                  "type": "uint256"
                },
                {
                  "internalType": "uint256",
                  "name": "time",
                  "type": "uint256"
                }
              ],
              "internalType": "struct EHRSC.Appointment[]",
              "name": "appointments",
              "type": "tuple[]"
            }
          ],
          "indexed": false,
          "internalType": "struct EHRSC.Person",
          "name": "regulatoryAgencyAdmin",
          "type": "tuple"
        }
      ],
      "name": "RegulatorAgencyAdminVerified",
      "type": "event"
    },
    {
      "anonymous": false,
      "inputs": [
        {
          "components": [
            {
              "internalType": "address",
              "name": "personAddress",
              "type": "address"
            },
            {
              "internalType": "string",
              "name": "name",
              "type": "string"
            },
            {
              "internalType": "enum EHRSC.EntityClaim",
              "name": "entityClaim",
              "type": "uint8"
            },
            {
              "internalType": "bool",
              "name": "registered",
              "type": "bool"
            },
            {
              "internalType": "bool",
              "name": "verifiedDoctor",
              "type": "bool"
            },
            {
              "internalType": "bool",
              "name": "verifiedPatient",
              "type": "bool"
            },
            {
              "internalType": "bool",
              "name": "verifiedRegulatoryAgencyAdmin",
              "type": "bool"
            },
            {
              "internalType": "uint256",
              "name": "requestCount",
              "type": "uint256"
            },
            {
              "components": [
                {
                  "internalType": "uint256",
                  "name": "requestNo",
                  "type": "uint256"
                },
                {
                  "internalType": "address",
                  "name": "requester",
                  "type": "address"
                },
                {
                  "internalType": "uint256",
                  "name": "bundleNumber",
                  "type": "uint256"
                }
              ],
              "internalType": "struct EHRSC.Request[]",
              "name": "requests",
              "type": "tuple[]"
            },
            {
              "components": [
                {
                  "internalType": "string",
                  "name": "reason",
                  "type": "string"
                },
                {
                  "internalType": "string",
                  "name": "venue",
                  "type": "string"
                },
                {
                  "internalType": "uint256",
                  "name": "date",
                  "type": "uint256"
                },
                {
                  "internalType": "uint256",
                  "name": "time",
                  "type": "uint256"
                }
              ],
              "internalType": "struct EHRSC.Appointment[]",
              "name": "appointments",
              "type": "tuple[]"
            }
          ],
          "indexed": false,
          "internalType": "struct EHRSC.Person",
          "name": "regulatoryAgencyAdmin",
          "type": "tuple"
        }
      ],
      "name": "RegulatoryAgencyAdminRegistered",
      "type": "event"
    },
    {
      "anonymous": false,
      "inputs": [
        {
          "components": [
            {
              "internalType": "string",
              "name": "reason",
              "type": "string"
            },
            {
              "internalType": "string",
              "name": "venue",
              "type": "string"
            },
            {
              "internalType": "uint256",
              "name": "date",
              "type": "uint256"
            },
            {
              "internalType": "uint256",
              "name": "time",
              "type": "uint256"
            }
          ],
          "indexed": false,
          "internalType": "struct EHRSC.Appointment",
          "name": "newAppointment",
          "type": "tuple"
        }
      ],
      "name": "RequestedAppointment",
      "type": "event"
    },
    {
      "anonymous": false,
      "inputs": [
        {
          "components": [
            {
              "internalType": "uint256",
              "name": "requestNo",
              "type": "uint256"
            },
            {
              "internalType": "address",
              "name": "requester",
              "type": "address"
            },
            {
              "internalType": "uint256",
              "name": "bundleNumber",
              "type": "uint256"
            }
          ],
          "indexed": false,
          "internalType": "struct EHRSC.Request",
          "name": "newRequest",
          "type": "tuple"
        },
        {
          "indexed": false,
          "internalType": "address",
          "name": "patientAddress",
          "type": "address"
        }
      ],
      "name": "RequestedDocuments",
      "type": "event"
    },
    {
      "inputs": [],
      "name": "owner",
      "outputs": [
        {
          "internalType": "address",
          "name": "",
          "type": "address"
        }
      ],
      "stateMutability": "view",
      "type": "function",
      "constant": true
    },
    {
      "inputs": [
        {
          "internalType": "address",
          "name": "",
          "type": "address"
        }
      ],
      "name": "persons",
      "outputs": [
        {
          "internalType": "address",
          "name": "personAddress",
          "type": "address"
        },
        {
          "internalType": "string",
          "name": "name",
          "type": "string"
        },
        {
          "internalType": "enum EHRSC.EntityClaim",
          "name": "entityClaim",
          "type": "uint8"
        },
        {
          "internalType": "bool",
          "name": "registered",
          "type": "bool"
        },
        {
          "internalType": "bool",
          "name": "verifiedDoctor",
          "type": "bool"
        },
        {
          "internalType": "bool",
          "name": "verifiedPatient",
          "type": "bool"
        },
        {
          "internalType": "bool",
          "name": "verifiedRegulatoryAgencyAdmin",
          "type": "bool"
        },
        {
          "internalType": "uint256",
          "name": "requestCount",
          "type": "uint256"
        }
      ],
      "stateMutability": "view",
      "type": "function",
      "constant": true
    },
    {
      "inputs": [
        {
          "internalType": "string",
          "name": "_name",
          "type": "string"
        }
      ],
      "name": "registerDoctor",
      "outputs": [],
      "stateMutability": "nonpayable",
      "type": "function"
    },
    {
      "inputs": [
        {
          "internalType": "string",
          "name": "_name",
          "type": "string"
        }
      ],
      "name": "registerPatient",
      "outputs": [],
      "stateMutability": "nonpayable",
      "type": "function"
    },
    {
      "inputs": [
        {
          "internalType": "string",
          "name": "_name",
          "type": "string"
        }
      ],
      "name": "registerRegulatoryAgencyAdmin",
      "outputs": [],
      "stateMutability": "nonpayable",
      "type": "function"
    },
    {
      "inputs": [],
      "name": "getName",
      "outputs": [
        {
          "internalType": "string",
          "name": "",
          "type": "string"
        }
      ],
      "stateMutability": "view",
      "type": "function",
      "constant": true
    },
    {
      "inputs": [],
      "name": "isVerifiedRAAdmin",
      "outputs": [
        {
          "internalType": "bool",
          "name": "",
          "type": "bool"
        }
      ],
      "stateMutability": "view",
      "type": "function",
      "constant": true
    },
    {
      "inputs": [],
      "name": "isVerifiedDoctor",
      "outputs": [
        {
          "internalType": "bool",
          "name": "",
          "type": "bool"
        }
      ],
      "stateMutability": "view",
      "type": "function",
      "constant": true
    },
    {
      "inputs": [],
      "name": "isVerifiedPatient",
      "outputs": [
        {
          "internalType": "bool",
          "name": "",
          "type": "bool"
        }
      ],
      "stateMutability": "view",
      "type": "function",
      "constant": true
    },
    {
      "inputs": [
        {
          "internalType": "address",
          "name": "_patientAddress",
          "type": "address"
        },
        {
          "internalType": "uint256",
          "name": "_bundleNumber",
          "type": "uint256"
        }
      ],
      "name": "requestDocuments",
      "outputs": [],
      "stateMutability": "nonpayable",
      "type": "function"
    },
    {
      "inputs": [],
      "name": "checkPatientRequestCount",
      "outputs": [
        {
          "internalType": "uint256",
          "name": "",
          "type": "uint256"
        }
      ],
      "stateMutability": "view",
      "type": "function",
      "constant": true
    },
    {
      "inputs": [
        {
          "internalType": "uint256",
          "name": "index",
          "type": "uint256"
        }
      ],
      "name": "checkPatientRequestAtIndex",
      "outputs": [
        {
          "components": [
            {
              "internalType": "uint256",
              "name": "requestNo",
              "type": "uint256"
            },
            {
              "internalType": "address",
              "name": "requester",
              "type": "address"
            },
            {
              "internalType": "uint256",
              "name": "bundleNumber",
              "type": "uint256"
            }
          ],
          "internalType": "struct EHRSC.Request",
          "name": "",
          "type": "tuple"
        }
      ],
      "stateMutability": "view",
      "type": "function",
      "constant": true
    },
    {
      "inputs": [
        {
          "internalType": "string",
          "name": "_reason",
          "type": "string"
        },
        {
          "internalType": "string",
          "name": "_venue",
          "type": "string"
        },
        {
          "internalType": "uint256",
          "name": "_date",
          "type": "uint256"
        },
        {
          "internalType": "uint256",
          "name": "_time",
          "type": "uint256"
        }
      ],
      "name": "requestAppointment",
      "outputs": [],
      "stateMutability": "nonpayable",
      "type": "function"
    },
    {
      "inputs": [
        {
          "internalType": "address",
          "name": "_personAddress",
          "type": "address"
        }
      ],
      "name": "verifyByOwner",
      "outputs": [],
      "stateMutability": "nonpayable",
      "type": "function"
    },
    {
      "inputs": [],
      "name": "getOwner",
      "outputs": [
        {
          "internalType": "address",
          "name": "",
          "type": "address"
        }
      ],
      "stateMutability": "view",
      "type": "function",
      "constant": true
    },
    {
      "inputs": [
        {
          "internalType": "address",
          "name": "_personAddress",
          "type": "address"
        }
      ],
      "name": "regulatoryAgencyAdminVerify",
      "outputs": [],
      "stateMutability": "nonpayable",
      "type": "function"
    }
  ],
  "bytecode": "0x608060405234801561001057600080fd5b50336000806101000a81548173ffffffffffffffffffffffffffffffffffffffff021916908373ffffffffffffffffffffffffffffffffffffffff160217905550612ce5806100606000396000f3fe608060405234801561001057600080fd5b50600436106101005760003560e01c8063869c9eaf116100975780638f09ab5b116100665780638f09ab5b1461027e578063b5eed62e1461029a578063c0d0dd1b146102ca578063c94752f4146102e657610100565b8063869c9eaf146101ef578063893d20e81461020b5780638ada2cf6146102295780638da5cb5b1461026057610100565b80633df97ca5116100d35780633df97ca51461017d578063407a9c5a1461019b57806340d990f0146101b75780636f5891b9146101d357610100565b806317d7de7c14610105578063201af7c41461012357806324d8a9591461014157806337f519691461015f575b600080fd5b61010d610302565b60405161011a9190612675565b60405180910390f35b61012b6103d4565b6040516101389190612801565b60405180910390f35b6101496104ad565b604051610156919061265a565b60405180910390f35b610167610504565b604051610174919061265a565b60405180910390f35b61018561055b565b604051610192919061265a565b60405180910390f35b6101b560048036038101906101b09190611c8e565b6105b2565b005b6101d160048036038101906101cc9190611cf3565b610b15565b005b6101ed60048036038101906101e89190611c8e565b610d46565b005b61020960048036038101906102049190611cf3565b610efa565b005b610213611135565b60405161022091906125ba565b60405180910390f35b610243600480360381019061023e9190611c8e565b61115e565b6040516102579897969594939291906125d5565b60405180910390f35b61026861128f565b60405161027591906125ba565b60405180910390f35b61029860048036038101906102939190611cf3565b6112b3565b005b6102b460048036038101906102af9190611dc7565b6114e4565b6040516102c191906127bd565b60405180910390f35b6102e460048036038101906102df9190611d34565b61167f565b005b61030060048036038101906102fb9190611cb7565b61182d565b005b6060600160003373ffffffffffffffffffffffffffffffffffffffff1673ffffffffffffffffffffffffffffffffffffffff168152602001908152602001600020600101805461035190612a2e565b80601f016020809104026020016040519081016040528092919081815260200182805461037d90612a2e565b80156103ca5780601f1061039f576101008083540402835291602001916103ca565b820191906000526020600020905b8154815290600101906020018083116103ad57829003601f168201915b5050505050905090565b6000600160003373ffffffffffffffffffffffffffffffffffffffff1673ffffffffffffffffffffffffffffffffffffffff16815260200190815260200160002060020160039054906101000a900460ff16610465576040517f08c379a000000000000000000000000000000000000000000000000000000000815260040161045c906126f7565b60405180910390fd5b600160003373ffffffffffffffffffffffffffffffffffffffff1673ffffffffffffffffffffffffffffffffffffffff16815260200190815260200160002060030154905090565b6000600160003373ffffffffffffffffffffffffffffffffffffffff1673ffffffffffffffffffffffffffffffffffffffff16815260200190815260200160002060020160049054906101000a900460ff16905090565b6000600160003373ffffffffffffffffffffffffffffffffffffffff1673ffffffffffffffffffffffffffffffffffffffff16815260200190815260200160002060020160029054906101000a900460ff16905090565b6000600160003373ffffffffffffffffffffffffffffffffffffffff1673ffffffffffffffffffffffffffffffffffffffff16815260200190815260200160002060020160039054906101000a900460ff16905090565b600160003373ffffffffffffffffffffffffffffffffffffffff1673ffffffffffffffffffffffffffffffffffffffff16815260200190815260200160002060020160049054906101000a900460ff16610641576040517f08c379a000000000000000000000000000000000000000000000000000000000815260040161063890612737565b60405180910390fd5b6000600281111561067b577f4e487b7100000000000000000000000000000000000000000000000000000000600052602160045260246000fd5b600160008373ffffffffffffffffffffffffffffffffffffffff1673ffffffffffffffffffffffffffffffffffffffff16815260200190815260200160002060020160009054906101000a900460ff166002811115610703577f4e487b7100000000000000000000000000000000000000000000000000000000600052602160045260246000fd5b14156107dd5760018060008373ffffffffffffffffffffffffffffffffffffffff1673ffffffffffffffffffffffffffffffffffffffff16815260200190815260200160002060020160046101000a81548160ff0219169083151502179055507f2110f09626d4d6ae48b8b2a2d3a8d306a89b036573e86bcae3dcf6bc482026e6600160008373ffffffffffffffffffffffffffffffffffffffff1673ffffffffffffffffffffffffffffffffffffffff1681526020019081526020016000206040516107d09190612779565b60405180910390a1610b12565b60016002811115610817577f4e487b7100000000000000000000000000000000000000000000000000000000600052602160045260246000fd5b600160008373ffffffffffffffffffffffffffffffffffffffff1673ffffffffffffffffffffffffffffffffffffffff16815260200190815260200160002060020160009054906101000a900460ff16600281111561089f577f4e487b7100000000000000000000000000000000000000000000000000000000600052602160045260246000fd5b14156109795760018060008373ffffffffffffffffffffffffffffffffffffffff1673ffffffffffffffffffffffffffffffffffffffff16815260200190815260200160002060020160026101000a81548160ff0219169083151502179055507f35e48aa229a688101b862048a0ec9693811f9347aad6dde7efd70ffa54ce966e600160008373ffffffffffffffffffffffffffffffffffffffff1673ffffffffffffffffffffffffffffffffffffffff16815260200190815260200160002060405161096c9190612779565b60405180910390a1610b11565b6002808111156109b2577f4e487b7100000000000000000000000000000000000000000000000000000000600052602160045260246000fd5b600160008373ffffffffffffffffffffffffffffffffffffffff1673ffffffffffffffffffffffffffffffffffffffff16815260200190815260200160002060020160009054906101000a900460ff166002811115610a3a577f4e487b7100000000000000000000000000000000000000000000000000000000600052602160045260246000fd5b1415610b105760018060008373ffffffffffffffffffffffffffffffffffffffff1673ffffffffffffffffffffffffffffffffffffffff16815260200190815260200160002060020160036101000a81548160ff0219169083151502179055507f7b1cd288c9adf0b98210588388acddb231cd5230a7ba6336e1113697d953e946600160008373ffffffffffffffffffffffffffffffffffffffff1673ffffffffffffffffffffffffffffffffffffffff168152602001908152602001600020604051610b079190612779565b60405180910390a15b5b5b50565b600160003373ffffffffffffffffffffffffffffffffffffffff1673ffffffffffffffffffffffffffffffffffffffff16815260200190815260200160002060020160019054906101000a900460ff1615610ba5576040517f08c379a0000000000000000000000000000000000000000000000000000000008152600401610b9c90612717565b60405180910390fd5b6000600160003373ffffffffffffffffffffffffffffffffffffffff1673ffffffffffffffffffffffffffffffffffffffff1681526020019081526020016000209050338160000160006101000a81548173ffffffffffffffffffffffffffffffffffffffff021916908373ffffffffffffffffffffffffffffffffffffffff16021790555081816001019080519060200190610c43929190611b22565b5060008160020160006101000a81548160ff02191690836002811115610c92577f4e487b7100000000000000000000000000000000000000000000000000000000600052602160045260246000fd5b021790555060018160020160016101000a81548160ff02191690831515021790555060008160020160026101000a81548160ff02191690831515021790555060008160020160036101000a81548160ff02191690831515021790555060008160020160046101000a81548160ff0219169083151502179055507f18678ac23c07e28bbb47337f12e0dbe922dd98780f9e64bf12382e82cf35580181604051610d3a919061279b565b60405180910390a15050565b3373ffffffffffffffffffffffffffffffffffffffff1660008054906101000a900473ffffffffffffffffffffffffffffffffffffffff1673ffffffffffffffffffffffffffffffffffffffff1614610dd4576040517f08c379a0000000000000000000000000000000000000000000000000000000008152600401610dcb906126d7565b60405180910390fd5b60006002811115610e0e577f4e487b7100000000000000000000000000000000000000000000000000000000600052602160045260246000fd5b600160008373ffffffffffffffffffffffffffffffffffffffff1673ffffffffffffffffffffffffffffffffffffffff16815260200190815260200160002060020160009054906101000a900460ff166002811115610e96577f4e487b7100000000000000000000000000000000000000000000000000000000600052602160045260246000fd5b1415610ef75760018060008373ffffffffffffffffffffffffffffffffffffffff1673ffffffffffffffffffffffffffffffffffffffff16815260200190815260200160002060020160046101000a81548160ff0219169083151502179055505b50565b600160003373ffffffffffffffffffffffffffffffffffffffff1673ffffffffffffffffffffffffffffffffffffffff16815260200190815260200160002060020160019054906101000a900460ff1615610f8a576040517f08c379a0000000000000000000000000000000000000000000000000000000008152600401610f8190612717565b60405180910390fd5b6000600160003373ffffffffffffffffffffffffffffffffffffffff1673ffffffffffffffffffffffffffffffffffffffff1681526020019081526020016000209050338160000160006101000a81548173ffffffffffffffffffffffffffffffffffffffff021916908373ffffffffffffffffffffffffffffffffffffffff16021790555081816001019080519060200190611028929190611b22565b5060028160020160006101000a81548160ff02191690836002811115611077577f4e487b7100000000000000000000000000000000000000000000000000000000600052602160045260246000fd5b021790555060018160020160016101000a81548160ff02191690831515021790555060008160020160026101000a81548160ff02191690831515021790555060008160020160036101000a81548160ff02191690831515021790555060008160020160046101000a81548160ff021916908315150217905550600081600301819055507f80dbbc28518b386553d0559d585d52503b9de0bd718337a8e6cca803c4806fea81604051611129919061279b565b60405180910390a15050565b60008060009054906101000a900473ffffffffffffffffffffffffffffffffffffffff16905090565b60016020528060005260406000206000915090508060000160009054906101000a900473ffffffffffffffffffffffffffffffffffffffff16908060010180546111a790612a2e565b80601f01602080910402602001604051908101604052809291908181526020018280546111d390612a2e565b80156112205780601f106111f557610100808354040283529160200191611220565b820191906000526020600020905b81548152906001019060200180831161120357829003601f168201915b5050505050908060020160009054906101000a900460ff16908060020160019054906101000a900460ff16908060020160029054906101000a900460ff16908060020160039054906101000a900460ff16908060020160049054906101000a900460ff16908060030154905088565b60008054906101000a900473ffffffffffffffffffffffffffffffffffffffff1681565b600160003373ffffffffffffffffffffffffffffffffffffffff1673ffffffffffffffffffffffffffffffffffffffff16815260200190815260200160002060020160019054906101000a900460ff1615611343576040517f08c379a000000000000000000000000000000000000000000000000000000000815260040161133a90612717565b60405180910390fd5b6000600160003373ffffffffffffffffffffffffffffffffffffffff1673ffffffffffffffffffffffffffffffffffffffff1681526020019081526020016000209050338160000160006101000a81548173ffffffffffffffffffffffffffffffffffffffff021916908373ffffffffffffffffffffffffffffffffffffffff160217905550818160010190805190602001906113e1929190611b22565b5060018160020160006101000a81548160ff02191690836002811115611430577f4e487b7100000000000000000000000000000000000000000000000000000000600052602160045260246000fd5b021790555060018160020160016101000a81548160ff02191690831515021790555060008160020160026101000a81548160ff02191690831515021790555060008160020160036101000a81548160ff02191690831515021790555060008160020160046101000a81548160ff0219169083151502179055507f81836adbb63de69dce57aed2b6fd9714df77f5873b39bf500ec34dc5e5a4bbdb816040516114d8919061279b565b60405180910390a15050565b6114ec611ba8565b600160003373ffffffffffffffffffffffffffffffffffffffff1673ffffffffffffffffffffffffffffffffffffffff16815260200190815260200160002060020160039054906101000a900460ff1661157b576040517f08c379a0000000000000000000000000000000000000000000000000000000008152600401611572906126f7565b60405180910390fd5b600160003373ffffffffffffffffffffffffffffffffffffffff1673ffffffffffffffffffffffffffffffffffffffff16815260200190815260200160002060040182815481106115f5577f4e487b7100000000000000000000000000000000000000000000000000000000600052603260045260246000fd5b9060005260206000209060030201604051806060016040529081600082015481526020016001820160009054906101000a900473ffffffffffffffffffffffffffffffffffffffff1673ffffffffffffffffffffffffffffffffffffffff1673ffffffffffffffffffffffffffffffffffffffff1681526020016002820154815250509050919050565b600160003373ffffffffffffffffffffffffffffffffffffffff1673ffffffffffffffffffffffffffffffffffffffff16815260200190815260200160002060020160039054906101000a900460ff1661170e576040517f08c379a0000000000000000000000000000000000000000000000000000000008152600401611705906126f7565b60405180910390fd5b60006040518060800160405280868152602001858152602001848152602001838152509050600160003373ffffffffffffffffffffffffffffffffffffffff1673ffffffffffffffffffffffffffffffffffffffff16815260200190815260200160002060050181908060018154018082558091505060019003906000526020600020906004020160009091909190915060008201518160000190805190602001906117bb929190611b22565b5060208201518160010190805190602001906117d8929190611b22565b50604082015181600201556060820151816003015550507f7058516056f92f6e7765a333be422d27865510565de1b5a67e667d4c585138f78160405161181e9190612757565b60405180910390a15050505050565b600160003373ffffffffffffffffffffffffffffffffffffffff1673ffffffffffffffffffffffffffffffffffffffff16815260200190815260200160002060020160029054906101000a900460ff166118bc576040517f08c379a00000000000000000000000000000000000000000000000000000000081526004016118b3906126b7565b60405180910390fd5b600160008373ffffffffffffffffffffffffffffffffffffffff1673ffffffffffffffffffffffffffffffffffffffff16815260200190815260200160002060020160039054906101000a900460ff1661194b576040517f08c379a000000000000000000000000000000000000000000000000000000000815260040161194290612697565b60405180910390fd5b6000600160008473ffffffffffffffffffffffffffffffffffffffff1673ffffffffffffffffffffffffffffffffffffffff168152602001908152602001600020600301549050600060405180606001604052808381526020013373ffffffffffffffffffffffffffffffffffffffff168152602001848152509050600160008573ffffffffffffffffffffffffffffffffffffffff1673ffffffffffffffffffffffffffffffffffffffff1681526020019081526020016000206004018190806001815401808255809150506001900390600052602060002090600302016000909190919091506000820151816000015560208201518160010160006101000a81548173ffffffffffffffffffffffffffffffffffffffff021916908373ffffffffffffffffffffffffffffffffffffffff16021790555060408201518160020155505081611a9a90612b16565b915081600160008673ffffffffffffffffffffffffffffffffffffffff1673ffffffffffffffffffffffffffffffffffffffff168152602001908152602001600020600301819055507fba910960b67d997430413a8491c25a9bd30e767082524f5a4c398d28d1f1c72e8185604051611b149291906127d8565b60405180910390a150505050565b828054611b2e90612a2e565b90600052602060002090601f016020900481019282611b505760008555611b97565b82601f10611b6957805160ff1916838001178555611b97565b82800160010185558215611b97579182015b82811115611b96578251825591602001919060010190611b7b565b5b509050611ba49190611bdf565b5090565b604051806060016040528060008152602001600073ffffffffffffffffffffffffffffffffffffffff168152602001600081525090565b5b80821115611bf8576000816000905550600101611be0565b5090565b6000611c0f611c0a8461284d565b61281c565b905082815260208101848484011115611c2757600080fd5b611c328482856129ec565b509392505050565b600081359050611c4981612c81565b92915050565b600082601f830112611c6057600080fd5b8135611c70848260208601611bfc565b91505092915050565b600081359050611c8881612c98565b92915050565b600060208284031215611ca057600080fd5b6000611cae84828501611c3a565b91505092915050565b60008060408385031215611cca57600080fd5b6000611cd885828601611c3a565b9250506020611ce985828601611c79565b9150509250929050565b600060208284031215611d0557600080fd5b600082013567ffffffffffffffff811115611d1f57600080fd5b611d2b84828501611c4f565b91505092915050565b60008060008060808587031215611d4a57600080fd5b600085013567ffffffffffffffff811115611d6457600080fd5b611d7087828801611c4f565b945050602085013567ffffffffffffffff811115611d8d57600080fd5b611d9987828801611c4f565b9350506040611daa87828801611c79565b9250506060611dbb87828801611c79565b91505092959194509250565b600060208284031215611dd957600080fd5b6000611de784828501611c79565b91505092915050565b6000611dfc8383612249565b905092915050565b6000611e108383612537565b60608301905092915050565b611e258161297f565b82525050565b611e348161297f565b82525050565b6000611e45826128bc565b611e4f81856128f7565b935083602082028501611e618561287d565b8060005b85811015611e9c57848403895281611e7d8582611df0565b9450611e88836128dd565b925060208a01995050600181019050611e65565b50829750879550505050505092915050565b6000611eb9826128c7565b611ec38185612908565b9350611ece83612892565b8060005b83811015611efe5781611ee58882611e04565b9750611ef0836128ea565b925050600181019050611ed2565b5085935050505092915050565b611f1481612991565b82525050565b611f2381612991565b82525050565b611f32816129da565b82525050565b611f41816129da565b82525050565b6000611f52826128d2565b611f5c8185612919565b9350611f6c8185602086016129fb565b611f7581612c1b565b840191505092915050565b6000611f8b826128d2565b611f95818561292a565b9350611fa58185602086016129fb565b611fae81612c1b565b840191505092915050565b60008154611fc681612a2e565b611fd08186612919565b94506001821660008114611feb5760018114611ffd57612030565b60ff1983168652602086019350612030565b612006856128a7565b60005b8381101561202857815481890152600182019150602081019050612009565b808801955050505b50505092915050565b600061204660188361292a565b91507f50617469656e74206d75737420626520766572696669656400000000000000006000830152602082019050919050565b600061208660108361292a565b91507f4d757374206265206120646f63746f72000000000000000000000000000000006000830152602082019050919050565b60006120c660108361292a565b91507f4d75737420626520616e206f776e6572000000000000000000000000000000006000830152602082019050919050565b600061210660118361292a565b91507f4d75737420626520612070617469656e740000000000000000000000000000006000830152602082019050919050565b600061214660198361292a565b91507f506572736f6e20616c72656164792072656769737465726564000000000000006000830152602082019050919050565b600061218660218361292a565b91507f4d757374206265206120726567756c61746f7279206167656e63792061646d6960008301527f6e000000000000000000000000000000000000000000000000000000000000006020830152604082019050919050565b600060808301600083015184820360008601526121fc8282611f47565b915050602083015184820360208601526122168282611f47565b915050604083015161222b604086018261259c565b50606083015161223e606086018261259c565b508091505092915050565b600060808301600080840185830360008701526122668382611fb9565b92505060018401858303602087015261227f8382611fb9565b9250506002840154905061229281612a94565b61229f604087018261259c565b50600384015490506122b081612a94565b6122bd606087018261259c565b50819250505092915050565b6000610140830160008084015490506122e181612a60565b6122ee6000870182611e1c565b506001840185830360208701526123058382611fb9565b9250506002840154905061231881612a7a565b6123256040870182611f29565b5061232f81612aae565b61233c6060870182611f0b565b5061234681612ac8565b6123536080870182611f0b565b5061235d81612ae2565b61236a60a0870182611f0b565b5061237481612afc565b61238160c0870182611f0b565b506003840154905061239281612a94565b61239f60e087018261259c565b50600484018583036101008701526123b78382611eae565b925050600584018583036101208701526123d18382611e3a565b925050819250505092915050565b6000610140830160008084015490506123f781612a60565b6124046000870182611e1c565b5060018401858303602087015261241b8382611fb9565b9250506002840154905061242e81612a7a565b61243b6040870182611f29565b5061244581612aae565b6124526060870182611f0b565b5061245c81612ac8565b6124696080870182611f0b565b5061247381612ae2565b61248060a0870182611f0b565b5061248a81612afc565b61249760c0870182611f0b565b50600384015490506124a881612a94565b6124b560e087018261259c565b50600484018583036101008701526124cd8382611eae565b925050600584018583036101208701526124e78382611e3a565b925050819250505092915050565b60608201600082015161250b600085018261259c565b50602082015161251e6020850182611e1c565b506040820151612531604085018261259c565b50505050565b60608201600080830154905061254c81612a94565b612559600086018261259c565b506001830154905061256a81612a60565b6125776020860182611e1c565b506002830154905061258881612a94565b612595604086018261259c565b5050505050565b6125a5816129d0565b82525050565b6125b4816129d0565b82525050565b60006020820190506125cf6000830184611e2b565b92915050565b6000610100820190506125eb600083018b611e2b565b81810360208301526125fd818a611f80565b905061260c6040830189611f38565b6126196060830188611f1a565b6126266080830187611f1a565b61263360a0830186611f1a565b61264060c0830185611f1a565b61264d60e08301846125ab565b9998505050505050505050565b600060208201905061266f6000830184611f1a565b92915050565b6000602082019050818103600083015261268f8184611f80565b905092915050565b600060208201905081810360008301526126b081612039565b9050919050565b600060208201905081810360008301526126d081612079565b9050919050565b600060208201905081810360008301526126f0816120b9565b9050919050565b60006020820190508181036000830152612710816120f9565b9050919050565b6000602082019050818103600083015261273081612139565b9050919050565b6000602082019050818103600083015261275081612179565b9050919050565b6000602082019050818103600083015261277181846121df565b905092915050565b6000602082019050818103600083015261279381846123df565b905092915050565b600060208201905081810360008301526127b581846122c9565b905092915050565b60006060820190506127d260008301846124f5565b92915050565b60006080820190506127ed60008301856124f5565b6127fa6060830184611e2b565b9392505050565b600060208201905061281660008301846125ab565b92915050565b6000604051905081810181811067ffffffffffffffff8211171561284357612842612bec565b5b8060405250919050565b600067ffffffffffffffff82111561286857612867612bec565b5b601f19601f8301169050602081019050919050565b60008190508160005260206000209050919050565b60008190508160005260206000209050919050565b60008190508160005260206000209050919050565b600081549050919050565b600081549050919050565b600081519050919050565b6000600482019050919050565b6000600382019050919050565b600082825260208201905092915050565b600082825260208201905092915050565b600082825260208201905092915050565b600082825260208201905092915050565b600073ffffffffffffffffffffffffffffffffffffffff82169050919050565b600060ff82169050919050565b600060ff82169050919050565b6000819050919050565b600061298a826129b0565b9050919050565b60008115159050919050565b60008190506129ab82612c6d565b919050565b600073ffffffffffffffffffffffffffffffffffffffff82169050919050565b6000819050919050565b60006129e58261299d565b9050919050565b82818337600083830152505050565b60005b83811015612a195780820151818401526020810190506129fe565b83811115612a28576000848401525b50505050565b60006002820490506001821680612a4657607f821691505b60208210811415612a5a57612a59612bbd565b5b50919050565b6000612a73612a6e83612c2c565b61293b565b9050919050565b6000612a8d612a8883612c2c565b612968565b9050919050565b6000612aa7612aa283612c2c565b612975565b9050919050565b6000612ac1612abc83612c60565b61295b565b9050919050565b6000612adb612ad683612c39565b61295b565b9050919050565b6000612af5612af083612c46565b61295b565b9050919050565b6000612b0f612b0a83612c53565b61295b565b9050919050565b6000612b21826129d0565b91507fffffffffffffffffffffffffffffffffffffffffffffffffffffffffffffffff821415612b5457612b53612b5f565b5b600182019050919050565b7f4e487b7100000000000000000000000000000000000000000000000000000000600052601160045260246000fd5b7f4e487b7100000000000000000000000000000000000000000000000000000000600052602160045260246000fd5b7f4e487b7100000000000000000000000000000000000000000000000000000000600052602260045260246000fd5b7f4e487b7100000000000000000000000000000000000000000000000000000000600052604160045260246000fd5b6000601f19601f8301169050919050565b60008160001c9050919050565b60008160101c9050919050565b60008160181c9050919050565b60008160201c9050919050565b60008160081c9050919050565b60038110612c7e57612c7d612b8e565b5b50565b612c8a8161297f565b8114612c9557600080fd5b50565b612ca1816129d0565b8114612cac57600080fd5b5056fea2646970667358221220e7230477ab2986f85247e5e51a2412241626f5a107bd5d3e399348449982c1d164736f6c63430008000033",
  "immutableReferences": {},
  "source": "// SPDX-License-Identifier: MIT\npragma solidity >=0.7.0 <0.9.0;\n\ncontract EHRSC {\n    address public owner;\n\n    mapping(address => Person) public persons;\n\n    enum EntityClaim {\n        REGULATORY_AGENCY_ADMIN,\n        DOCTOR,\n        PATIENT\n    }\n\n    event DoctorRegistered(Person doctor);\n    event PatientRegistered(Person patient);\n    event RegulatoryAgencyAdminRegistered(Person regulatoryAgencyAdmin);\n    event DoctorVerified(Person doctor);\n    event PatientVerified(Person patient);\n    event RegulatorAgencyAdminVerified(Person regulatoryAgencyAdmin);\n    event RequestedDocuments(Request newRequest, address patientAddress);\n    event RequestedAppointment(Appointment newAppointment);\n\n    struct Appointment {\n        string reason;\n        string venue;\n        uint256 date;\n        uint256 time;\n    }\n\n    struct Person {\n        address personAddress;\n        string name;\n        EntityClaim entityClaim;\n        bool registered;\n        bool verifiedDoctor;\n        bool verifiedPatient;\n        bool verifiedRegulatoryAgencyAdmin;\n        uint256 requestCount;\n        Request[] requests;\n        Appointment[] appointments;\n    }\n\n    struct Request {\n        uint256 requestNo;\n        address requester;\n        uint256 bundleNumber;\n    }\n\n    // struct InsuranceCompany {}\n    // struct Laboratory {}\n    // struct Pharmacy {}\n    // struct RegulatoryAgency {}\n    // struct HealthRecord {}\n    // struct Hospital {}\n\n    modifier onlyDoctor() {\n        require(persons[msg.sender].verifiedDoctor, \"Must be a doctor\");\n        _;\n    }\n\n    modifier onlyPatient() {\n        require(persons[msg.sender].verifiedPatient, \"Must be a patient\");\n        _;\n    }\n\n    modifier onlyOwner() {\n        require(owner == msg.sender, \"Must be an owner\");\n        _;\n    }\n\n    modifier onlyRegulatoryAgencyAdmin() {\n        require(\n            persons[msg.sender].verifiedRegulatoryAgencyAdmin,\n            \"Must be a regulatory agency admin\"\n        );\n        _;\n    }\n\n    modifier onlyRegistered() {\n        require(!persons[msg.sender].registered, \"Person already registered\");\n        _;\n    }\n\n    constructor() {\n        owner = msg.sender;\n    }\n\n    function registerDoctor(string memory _name) public onlyRegistered {\n        Person storage doctor = persons[msg.sender];\n        doctor.personAddress = msg.sender;\n        doctor.name = _name;\n        doctor.entityClaim = EntityClaim.DOCTOR;\n        doctor.registered = true;\n        doctor.verifiedDoctor = false;\n        doctor.verifiedPatient = false;\n        doctor.verifiedRegulatoryAgencyAdmin = false;\n        emit DoctorRegistered(doctor);\n    }\n\n    function registerPatient(string memory _name) public onlyRegistered {\n        Person storage patient = persons[msg.sender];\n        patient.personAddress = msg.sender;\n        patient.name = _name;\n        patient.entityClaim = EntityClaim.PATIENT;\n        patient.registered = true;\n        patient.verifiedDoctor = false;\n        patient.verifiedPatient = false;\n        patient.verifiedRegulatoryAgencyAdmin = false;\n        patient.requestCount = 0;\n        emit PatientRegistered(patient);\n    }\n\n    function registerRegulatoryAgencyAdmin(string memory _name)\n        public\n        onlyRegistered\n    {\n        Person storage regulatoryAgencyAdmin = persons[msg.sender];\n        regulatoryAgencyAdmin.personAddress = msg.sender;\n        regulatoryAgencyAdmin.name = _name;\n        regulatoryAgencyAdmin.entityClaim = EntityClaim.REGULATORY_AGENCY_ADMIN;\n        regulatoryAgencyAdmin.registered = true;\n        regulatoryAgencyAdmin.verifiedDoctor = false;\n        regulatoryAgencyAdmin.verifiedPatient = false;\n        regulatoryAgencyAdmin.verifiedRegulatoryAgencyAdmin = false;\n        emit RegulatoryAgencyAdminRegistered(regulatoryAgencyAdmin);\n    }\n\n    function getName() public view returns (string memory) {\n        return persons[msg.sender].name;\n    }\n\n    function isVerifiedRAAdmin() public view returns (bool) {\n        return persons[msg.sender].verifiedRegulatoryAgencyAdmin;\n    }\n\n    function isVerifiedDoctor() public view returns (bool) {\n        return persons[msg.sender].verifiedDoctor;\n    }\n\n    function isVerifiedPatient() public view returns (bool) {\n        return persons[msg.sender].verifiedPatient;\n    }\n\n    function requestDocuments(address _patientAddress, uint256 _bundleNumber)\n        public\n        onlyDoctor\n    {\n        require(\n            persons[_patientAddress].verifiedPatient,\n            \"Patient must be verified\"\n        ); // TODO: check document must exist\n        uint256 count = persons[_patientAddress].requestCount;\n        Request memory newRequest = Request(count, msg.sender, _bundleNumber);\n        persons[_patientAddress].requests.push(newRequest);\n        persons[_patientAddress].requestCount = ++count;\n        emit RequestedDocuments(newRequest, _patientAddress);\n    }\n\n    function checkPatientRequestCount()\n        public\n        view\n        onlyPatient\n        returns (uint256)\n    {\n        return persons[msg.sender].requestCount;\n    }\n\n    function checkPatientRequestAtIndex(uint256 index)\n        public\n        view\n        onlyPatient\n        returns (Request memory)\n    {\n        return persons[msg.sender].requests[index];\n    }\n\n    function requestAppointment(\n        string memory _reason,\n        string memory _venue,\n        uint256 _date,\n        uint256 _time\n    ) public onlyPatient {\n        Appointment memory newAppointment = Appointment(\n            _reason,\n            _venue,\n            _date,\n            _time\n        );\n        persons[msg.sender].appointments.push(newAppointment);\n        emit RequestedAppointment(newAppointment);\n    }\n\n    function verifyByOwner(address _personAddress) public onlyOwner {\n        if (\n            persons[_personAddress].entityClaim ==\n            EntityClaim.REGULATORY_AGENCY_ADMIN\n        ) {\n            persons[_personAddress].verifiedRegulatoryAgencyAdmin = true;\n        }\n    }\n\n    function getOwner() public view returns (address) {\n        return owner;\n    }\n\n    function regulatoryAgencyAdminVerify(address _personAddress)\n        public\n        onlyRegulatoryAgencyAdmin\n    {\n        if (\n            persons[_personAddress].entityClaim ==\n            EntityClaim.REGULATORY_AGENCY_ADMIN\n        ) {\n            persons[_personAddress].verifiedRegulatoryAgencyAdmin = true;\n            emit RegulatorAgencyAdminVerified(persons[_personAddress]);\n        } else if (persons[_personAddress].entityClaim == EntityClaim.DOCTOR) {\n            persons[_personAddress].verifiedDoctor = true;\n            emit DoctorVerified(persons[_personAddress]);\n        } else if (persons[_personAddress].entityClaim == EntityClaim.PATIENT) {\n            persons[_personAddress].verifiedPatient = true;\n            emit PatientVerified(persons[_personAddress]);\n        }\n    }\n\n    // TODO: function Hospital accepts appointment request\n    // TODO: function: Patient allow access to doctor or send re-encryption keys to NuCypher network\n}\n",
  "sourcePath": "/mnt/c/Users/assid/Workspace/EHR-Besu/contracts/EHRSC.sol",
  "compiler": {
    "name": "solc",
    "version": "0.8.0+commit.c7dfd78e.Emscripten.clang"
  },
  "schemaVersion": "3.4.3",
  "updatedAt": "2021-10-15T09:15:19.183Z",
  "networkType": "ethereum",
  "devdoc": {
    "kind": "dev",
    "methods": {},
    "version": 1
  },
  "userdoc": {
    "kind": "user",
    "methods": {},
    "version": 1
  }
}