{
  "contractName": "EHRSC",
  "abi": [
    {
      "anonymous": false,
      "inputs": [
        {
          "components": [
            {
              "internalType": "address",
              "name": "personAddress",
              "type": "address"
            },
            {
              "internalType": "string",
              "name": "name",
              "type": "string"
            },
            {
              "internalType": "bool",
              "name": "registered",
              "type": "bool"
            },
            {
              "internalType": "bool",
              "name": "verifiedDoctor",
              "type": "bool"
            },
            {
              "internalType": "bool",
              "name": "verifiedPatient",
              "type": "bool"
            },
            {
              "internalType": "uint256",
              "name": "requestCount",
              "type": "uint256"
            },
            {
              "components": [
                {
                  "internalType": "uint256",
                  "name": "requestNo",
                  "type": "uint256"
                },
                {
                  "internalType": "address",
                  "name": "requester",
                  "type": "address"
                },
                {
                  "internalType": "uint256",
                  "name": "bundleNumber",
                  "type": "uint256"
                }
              ],
              "internalType": "struct EHRSC.Request[]",
              "name": "requests",
              "type": "tuple[]"
            },
            {
              "components": [
                {
                  "internalType": "string",
                  "name": "reason",
                  "type": "string"
                },
                {
                  "internalType": "string",
                  "name": "venue",
                  "type": "string"
                },
                {
                  "internalType": "uint256",
                  "name": "date",
                  "type": "uint256"
                },
                {
                  "internalType": "uint256",
                  "name": "time",
                  "type": "uint256"
                }
              ],
              "internalType": "struct EHRSC.Appointment[]",
              "name": "appointments",
              "type": "tuple[]"
            }
          ],
          "indexed": false,
          "internalType": "struct EHRSC.Person",
          "name": "doctor",
          "type": "tuple"
        }
      ],
      "name": "DoctorRegistered",
      "type": "event"
    },
    {
      "anonymous": false,
      "inputs": [
        {
          "components": [
            {
              "internalType": "string",
              "name": "reason",
              "type": "string"
            },
            {
              "internalType": "string",
              "name": "venue",
              "type": "string"
            },
            {
              "internalType": "uint256",
              "name": "date",
              "type": "uint256"
            },
            {
              "internalType": "uint256",
              "name": "time",
              "type": "uint256"
            }
          ],
          "indexed": false,
          "internalType": "struct EHRSC.Appointment",
          "name": "newAppointment",
          "type": "tuple"
        },
        {
          "indexed": false,
          "internalType": "address",
          "name": "patientAddress",
          "type": "address"
        }
      ],
      "name": "RequestedAppointment",
      "type": "event"
    },
    {
      "anonymous": false,
      "inputs": [
        {
          "components": [
            {
              "internalType": "uint256",
              "name": "requestNo",
              "type": "uint256"
            },
            {
              "internalType": "address",
              "name": "requester",
              "type": "address"
            },
            {
              "internalType": "uint256",
              "name": "bundleNumber",
              "type": "uint256"
            }
          ],
          "indexed": false,
          "internalType": "struct EHRSC.Request",
          "name": "newRequest",
          "type": "tuple"
        },
        {
          "indexed": false,
          "internalType": "address",
          "name": "patientAddress",
          "type": "address"
        }
      ],
      "name": "RequestedDocuments",
      "type": "event"
    },
    {
      "stateMutability": "nonpayable",
      "type": "fallback"
    },
    {
      "inputs": [],
      "name": "functionCalled",
      "outputs": [
        {
          "internalType": "string",
          "name": "",
          "type": "string"
        }
      ],
      "stateMutability": "view",
      "type": "function",
      "constant": true
    },
    {
      "inputs": [
        {
          "internalType": "address",
          "name": "",
          "type": "address"
        }
      ],
      "name": "persons",
      "outputs": [
        {
          "internalType": "address",
          "name": "personAddress",
          "type": "address"
        },
        {
          "internalType": "string",
          "name": "name",
          "type": "string"
        },
        {
          "internalType": "bool",
          "name": "registered",
          "type": "bool"
        },
        {
          "internalType": "bool",
          "name": "verifiedDoctor",
          "type": "bool"
        },
        {
          "internalType": "bool",
          "name": "verifiedPatient",
          "type": "bool"
        },
        {
          "internalType": "uint256",
          "name": "requestCount",
          "type": "uint256"
        }
      ],
      "stateMutability": "view",
      "type": "function",
      "constant": true
    },
    {
      "inputs": [
        {
          "internalType": "string",
          "name": "_name",
          "type": "string"
        }
      ],
      "name": "registerDoctor",
      "outputs": [],
      "stateMutability": "nonpayable",
      "type": "function"
    },
    {
      "inputs": [
        {
          "internalType": "string",
          "name": "_name",
          "type": "string"
        }
      ],
      "name": "registerPatient",
      "outputs": [],
      "stateMutability": "nonpayable",
      "type": "function"
    },
    {
      "inputs": [
        {
          "internalType": "address",
          "name": "_personAddress",
          "type": "address"
        }
      ],
      "name": "getName",
      "outputs": [
        {
          "internalType": "string",
          "name": "",
          "type": "string"
        }
      ],
      "stateMutability": "view",
      "type": "function",
      "constant": true
    },
    {
      "inputs": [],
      "name": "isVerifiedDoctor",
      "outputs": [
        {
          "internalType": "bool",
          "name": "",
          "type": "bool"
        }
      ],
      "stateMutability": "view",
      "type": "function",
      "constant": true
    },
    {
      "inputs": [],
      "name": "isVerifiedPatient",
      "outputs": [
        {
          "internalType": "bool",
          "name": "",
          "type": "bool"
        }
      ],
      "stateMutability": "view",
      "type": "function",
      "constant": true
    },
    {
      "inputs": [
        {
          "internalType": "address",
          "name": "_patientAddress",
          "type": "address"
        },
        {
          "internalType": "uint256",
          "name": "_bundleNumber",
          "type": "uint256"
        }
      ],
      "name": "requestDocuments",
      "outputs": [],
      "stateMutability": "nonpayable",
      "type": "function"
    },
    {
      "inputs": [],
      "name": "checkPatientRequestCount",
      "outputs": [
        {
          "internalType": "uint256",
          "name": "",
          "type": "uint256"
        }
      ],
      "stateMutability": "view",
      "type": "function",
      "constant": true
    },
    {
      "inputs": [
        {
          "internalType": "uint256",
          "name": "index",
          "type": "uint256"
        }
      ],
      "name": "checkPatientRequestAtIndex",
      "outputs": [
        {
          "components": [
            {
              "internalType": "uint256",
              "name": "requestNo",
              "type": "uint256"
            },
            {
              "internalType": "address",
              "name": "requester",
              "type": "address"
            },
            {
              "internalType": "uint256",
              "name": "bundleNumber",
              "type": "uint256"
            }
          ],
          "internalType": "struct EHRSC.Request",
          "name": "",
          "type": "tuple"
        }
      ],
      "stateMutability": "view",
      "type": "function",
      "constant": true
    },
    {
      "inputs": [
        {
          "internalType": "string",
          "name": "_reason",
          "type": "string"
        }
      ],
      "name": "requestAppointment",
      "outputs": [],
      "stateMutability": "nonpayable",
      "type": "function"
    }
  ],
  "bytecode": "0x608060405234801561001057600080fd5b50611bd2806100206000396000f3fe608060405234801561001057600080fd5b50600436106100ad5760003560e01c80638ada2cf6116100715780638ada2cf6146101a25780638f09ab5b146101d7578063b5eed62e146101f3578063c94752f414610223578063cc81afc81461023f578063fe87f6501461025d576100ae565b8063201af7c4146100fc57806337f519691461011a5780633df97ca5146101385780635fd4b08a14610156578063869c9eaf14610186576100ae565b5b6040518060400160405280600881526020017f66616c6c6261636b000000000000000000000000000000000000000000000000815250600090805190602001906100f9929190610ebb565b50005b610104610279565b60405161011191906117b1565b60405180910390f35b610122610352565b60405161012f919061169e565b60405180910390f35b6101406103a9565b60405161014d919061169e565b60405180910390f35b610170600480360381019061016b9190611027565b610400565b60405161017d91906116b9565b60405180910390f35b6101a0600480360381019061019b919061108c565b6104d4565b005b6101bc60048036038101906101b79190611027565b6105d8565b6040516101ce96959493929190611636565b60405180910390f35b6101f160048036038101906101ec919061108c565b6106e3565b005b61020d600480360381019061020891906110cd565b6108a4565b60405161021a919061176d565b60405180910390f35b61023d60048036038101906102389190611050565b610a3f565b005b610247610c6f565b60405161025491906116b9565b60405180910390f35b6102776004803603810190610272919061108c565b610cfd565b005b6000600160003373ffffffffffffffffffffffffffffffffffffffff1673ffffffffffffffffffffffffffffffffffffffff16815260200190815260200160002060020160029054906101000a900460ff1661030a576040517f08c379a0000000000000000000000000000000000000000000000000000000008152600401610301906116db565b60405180910390fd5b600160003373ffffffffffffffffffffffffffffffffffffffff1673ffffffffffffffffffffffffffffffffffffffff16815260200190815260200160002060030154905090565b6000600160003373ffffffffffffffffffffffffffffffffffffffff1673ffffffffffffffffffffffffffffffffffffffff16815260200190815260200160002060020160019054906101000a900460ff16905090565b6000600160003373ffffffffffffffffffffffffffffffffffffffff1673ffffffffffffffffffffffffffffffffffffffff16815260200190815260200160002060020160029054906101000a900460ff16905090565b6060600160008373ffffffffffffffffffffffffffffffffffffffff1673ffffffffffffffffffffffffffffffffffffffff168152602001908152602001600020600101805461044f906119ac565b80601f016020809104026020016040519081016040528092919081815260200182805461047b906119ac565b80156104c85780601f1061049d576101008083540402835291602001916104c8565b820191906000526020600020905b8154815290600101906020018083116104ab57829003601f168201915b50505050509050919050565b6000600160003373ffffffffffffffffffffffffffffffffffffffff1673ffffffffffffffffffffffffffffffffffffffff1681526020019081526020016000209050338160000160006101000a81548173ffffffffffffffffffffffffffffffffffffffff021916908373ffffffffffffffffffffffffffffffffffffffff16021790555081816001019080519060200190610572929190610ebb565b5060018160020160006101000a81548160ff02191690831515021790555060008160020160016101000a81548160ff02191690831515021790555060018160020160026101000a81548160ff021916908315150217905550600081600301819055505050565b60016020528060005260406000206000915090508060000160009054906101000a900473ffffffffffffffffffffffffffffffffffffffff1690806001018054610621906119ac565b80601f016020809104026020016040519081016040528092919081815260200182805461064d906119ac565b801561069a5780601f1061066f5761010080835404028352916020019161069a565b820191906000526020600020905b81548152906001019060200180831161067d57829003601f168201915b5050505050908060020160009054906101000a900460ff16908060020160019054906101000a900460ff16908060020160029054906101000a900460ff16908060030154905086565b600160003373ffffffffffffffffffffffffffffffffffffffff1673ffffffffffffffffffffffffffffffffffffffff16815260200190815260200160002060020160009054906101000a900460ff1615610773576040517f08c379a000000000000000000000000000000000000000000000000000000000815260040161076a906116fb565b60405180910390fd5b6000600160003373ffffffffffffffffffffffffffffffffffffffff1673ffffffffffffffffffffffffffffffffffffffff1681526020019081526020016000209050338160000160006101000a81548173ffffffffffffffffffffffffffffffffffffffff021916908373ffffffffffffffffffffffffffffffffffffffff16021790555081816001019080519060200190610811929190610ebb565b5060018160020160006101000a81548160ff02191690831515021790555060018160020160016101000a81548160ff02191690831515021790555060008160020160026101000a81548160ff0219169083151502179055507fafdb9c2a94de517a6dc6561cfb063ce9209208c235b3676a0df5b6fe21b871c481604051610898919061174b565b60405180910390a15050565b6108ac610f41565b600160003373ffffffffffffffffffffffffffffffffffffffff1673ffffffffffffffffffffffffffffffffffffffff16815260200190815260200160002060020160029054906101000a900460ff1661093b576040517f08c379a0000000000000000000000000000000000000000000000000000000008152600401610932906116db565b60405180910390fd5b600160003373ffffffffffffffffffffffffffffffffffffffff1673ffffffffffffffffffffffffffffffffffffffff16815260200190815260200160002060040182815481106109b5577f4e487b7100000000000000000000000000000000000000000000000000000000600052603260045260246000fd5b9060005260206000209060030201604051806060016040529081600082015481526020016001820160009054906101000a900473ffffffffffffffffffffffffffffffffffffffff1673ffffffffffffffffffffffffffffffffffffffff1673ffffffffffffffffffffffffffffffffffffffff1681526020016002820154815250509050919050565b600160003373ffffffffffffffffffffffffffffffffffffffff1673ffffffffffffffffffffffffffffffffffffffff16815260200190815260200160002060020160019054906101000a900460ff16610a9857600080fd5b6000600160008473ffffffffffffffffffffffffffffffffffffffff1673ffffffffffffffffffffffffffffffffffffffff168152602001908152602001600020600301549050600060405180606001604052808381526020013373ffffffffffffffffffffffffffffffffffffffff168152602001848152509050600160008573ffffffffffffffffffffffffffffffffffffffff1673ffffffffffffffffffffffffffffffffffffffff1681526020019081526020016000206004018190806001815401808255809150506001900390600052602060002090600302016000909190919091506000820151816000015560208201518160010160006101000a81548173ffffffffffffffffffffffffffffffffffffffff021916908373ffffffffffffffffffffffffffffffffffffffff16021790555060408201518160020155505081610be790611a60565b915081600160008673ffffffffffffffffffffffffffffffffffffffff1673ffffffffffffffffffffffffffffffffffffffff168152602001908152602001600020600301819055507fba910960b67d997430413a8491c25a9bd30e767082524f5a4c398d28d1f1c72e8185604051610c61929190611788565b60405180910390a150505050565b60008054610c7c906119ac565b80601f0160208091040260200160405190810160405280929190818152602001828054610ca8906119ac565b8015610cf55780601f10610cca57610100808354040283529160200191610cf5565b820191906000526020600020905b815481529060010190602001808311610cd857829003601f168201915b505050505081565b600160003373ffffffffffffffffffffffffffffffffffffffff1673ffffffffffffffffffffffffffffffffffffffff16815260200190815260200160002060020160029054906101000a900460ff16610d8c576040517f08c379a0000000000000000000000000000000000000000000000000000000008152600401610d83906116db565b60405180910390fd5b600060405180608001604052808381526020016040518060200160405280600081525081526020016000815260200160008152509050600160003373ffffffffffffffffffffffffffffffffffffffff1673ffffffffffffffffffffffffffffffffffffffff1681526020019081526020016000206005018190806001815401808255809150506001900390600052602060002090600402016000909190919091506000820151816000019080519060200190610e4a929190610ebb565b506020820151816001019080519060200190610e67929190610ebb565b50604082015181600201556060820151816003015550507f1c977b924fb5aa56672d403f57962b1826cdaee8bf54496cf9b7ad9e4a75b29c8133604051610eaf92919061171b565b60405180910390a15050565b828054610ec7906119ac565b90600052602060002090601f016020900481019282610ee95760008555610f30565b82601f10610f0257805160ff1916838001178555610f30565b82800160010185558215610f30579182015b82811115610f2f578251825591602001919060010190610f14565b5b509050610f3d9190610f78565b5090565b604051806060016040528060008152602001600073ffffffffffffffffffffffffffffffffffffffff168152602001600081525090565b5b80821115610f91576000816000905550600101610f79565b5090565b6000610fa8610fa3846117fd565b6117cc565b905082815260208101848484011115610fc057600080fd5b610fcb84828561196a565b509392505050565b600081359050610fe281611b6e565b92915050565b600082601f830112610ff957600080fd5b8135611009848260208601610f95565b91505092915050565b60008135905061102181611b85565b92915050565b60006020828403121561103957600080fd5b600061104784828501610fd3565b91505092915050565b6000806040838503121561106357600080fd5b600061107185828601610fd3565b925050602061108285828601611012565b9150509250929050565b60006020828403121561109e57600080fd5b600082013567ffffffffffffffff8111156110b857600080fd5b6110c484828501610fe8565b91505092915050565b6000602082840312156110df57600080fd5b60006110ed84828501611012565b91505092915050565b6000611102838361140b565b905092915050565b600061111683836115b3565b60608301905092915050565b61112b81611922565b82525050565b61113a81611922565b82525050565b600061114b8261186c565b61115581856118a7565b9350836020820285016111678561182d565b8060005b858110156111a25784840389528161118385826110f6565b945061118e8361188d565b925060208a0199505060018101905061116b565b50829750879550505050505092915050565b60006111bf82611877565b6111c981856118b8565b93506111d483611842565b8060005b8381101561120457816111eb888261110a565b97506111f68361189a565b9250506001810190506111d8565b5085935050505092915050565b61121a81611934565b82525050565b61122981611934565b82525050565b600061123a82611882565b61124481856118c9565b9350611254818560208601611979565b61125d81611b36565b840191505092915050565b600061127382611882565b61127d81856118da565b935061128d818560208601611979565b61129681611b36565b840191505092915050565b600081546112ae816119ac565b6112b881866118c9565b945060018216600081146112d357600181146112e557611318565b60ff1983168652602086019350611318565b6112ee85611857565b60005b83811015611310578154818901526001820191506020810190506112f1565b808801955050505b50505092915050565b600061132e6011836118da565b91507f4d75737420626520612070617469656e740000000000000000000000000000006000830152602082019050919050565b600061136e6019836118da565b91507f506572736f6e20616c72656164792072656769737465726564000000000000006000830152602082019050919050565b600060808301600083015184820360008601526113be828261122f565b915050602083015184820360208601526113d8828261122f565b91505060408301516113ed6040860182611618565b5060608301516114006060860182611618565b508091505092915050565b6000608083016000808401858303600087015261142883826112a1565b92505060018401858303602087015261144183826112a1565b9250506002840154905061145481611a12565b6114616040870182611618565b506003840154905061147281611a12565b61147f6060870182611618565b50819250505092915050565b6000610100830160008084015490506114a3816119de565b6114b06000870182611122565b506001840185830360208701526114c783826112a1565b925050600284015490506114da816119f8565b6114e76040870182611211565b506114f181611a2c565b6114fe6060870182611211565b5061150881611a46565b6115156080870182611211565b506003840154905061152681611a12565b61153360a0870182611618565b506004840185830360c087015261154a83826111b4565b9250506005840185830360e08701526115638382611140565b925050819250505092915050565b6060820160008201516115876000850182611618565b50602082015161159a6020850182611122565b5060408201516115ad6040850182611618565b50505050565b6060820160008083015490506115c881611a12565b6115d56000860182611618565b50600183015490506115e6816119de565b6115f36020860182611122565b506002830154905061160481611a12565b6116116040860182611618565b5050505050565b61162181611960565b82525050565b61163081611960565b82525050565b600060c08201905061164b6000830189611131565b818103602083015261165d8188611268565b905061166c6040830187611220565b6116796060830186611220565b6116866080830185611220565b61169360a0830184611627565b979650505050505050565b60006020820190506116b36000830184611220565b92915050565b600060208201905081810360008301526116d38184611268565b905092915050565b600060208201905081810360008301526116f481611321565b9050919050565b6000602082019050818103600083015261171481611361565b9050919050565b6000604082019050818103600083015261173581856113a1565b90506117446020830184611131565b9392505050565b60006020820190508181036000830152611765818461148b565b905092915050565b60006060820190506117826000830184611571565b92915050565b600060808201905061179d6000830185611571565b6117aa6060830184611131565b9392505050565b60006020820190506117c66000830184611627565b92915050565b6000604051905081810181811067ffffffffffffffff821117156117f3576117f2611b07565b5b8060405250919050565b600067ffffffffffffffff82111561181857611817611b07565b5b601f19601f8301169050602081019050919050565b60008190508160005260206000209050919050565b60008190508160005260206000209050919050565b60008190508160005260206000209050919050565b600081549050919050565b600081549050919050565b600081519050919050565b6000600482019050919050565b6000600382019050919050565b600082825260208201905092915050565b600082825260208201905092915050565b600082825260208201905092915050565b600082825260208201905092915050565b600073ffffffffffffffffffffffffffffffffffffffff82169050919050565b600060ff82169050919050565b6000819050919050565b600061192d82611940565b9050919050565b60008115159050919050565b600073ffffffffffffffffffffffffffffffffffffffff82169050919050565b6000819050919050565b82818337600083830152505050565b60005b8381101561199757808201518184015260208101905061197c565b838111156119a6576000848401525b50505050565b600060028204905060018216806119c457607f821691505b602082108114156119d8576119d7611ad8565b5b50919050565b60006119f16119ec83611b47565b6118eb565b9050919050565b6000611a0b611a0683611b47565b61190b565b9050919050565b6000611a25611a2083611b47565b611918565b9050919050565b6000611a3f611a3a83611b61565b61190b565b9050919050565b6000611a59611a5483611b54565b61190b565b9050919050565b6000611a6b82611960565b91507fffffffffffffffffffffffffffffffffffffffffffffffffffffffffffffffff821415611a9e57611a9d611aa9565b5b600182019050919050565b7f4e487b7100000000000000000000000000000000000000000000000000000000600052601160045260246000fd5b7f4e487b7100000000000000000000000000000000000000000000000000000000600052602260045260246000fd5b7f4e487b7100000000000000000000000000000000000000000000000000000000600052604160045260246000fd5b6000601f19601f8301169050919050565b60008160001c9050919050565b60008160101c9050919050565b60008160081c9050919050565b611b7781611922565b8114611b8257600080fd5b50565b611b8e81611960565b8114611b9957600080fd5b5056fea2646970667358221220c9da43cb4a57e766c8cd4f121f3c2c26b9fda7a8fbe1dd0be58d49cec02d030f64736f6c63430008000033",
  "immutableReferences": {},
  "source": "// SPDX-License-Identifier: MIT\n// pragma solidity >=0.4.22 <0.8.0;\npragma solidity >=0.7.0 <0.9.0;\n\ncontract EHRSC {\n    string public functionCalled;\n\n    struct Person {\n        address personAddress;\n        string name;\n        bool registered;\n        bool verifiedDoctor;\n        bool verifiedPatient;\n        uint256 requestCount;\n        Request[] requests;\n        Appointment[] appointments;\n        // mapping(uint256 => HealthRecord) healthRecords;\n    }\n\n    struct Request {\n        uint256 requestNo;\n        address requester;\n        uint256 bundleNumber;\n    }\n\n    struct Appointment {\n        string reason;\n        string venue;\n        uint256 date; // date object?\n        uint256 time; // time object?\n    }\n\n    // struct HealthRecord {}\n\n    // struct Hospital {}\n\n    mapping(address => Person) public persons;\n\n    event DoctorRegistered(Person doctor);\n    // event PatientRegistered(Person patient);\n    // event DoctorVerified(Person doctor);\n    // event PatientVerified(Person patient);\n    event RequestedDocuments(Request newRequest, address patientAddress);\n    event RequestedAppointment(\n        Appointment newAppointment,\n        address patientAddress\n    );\n\n    modifier onlyDoctor() {\n        require(persons[msg.sender].verifiedDoctor);\n        _;\n    }\n\n    modifier onlyPatient() {\n        require(persons[msg.sender].verifiedPatient, \"Must be a patient\");\n        _;\n    }\n\n    modifier onlyRegistered() {\n        require(!persons[msg.sender].registered, \"Person already registered\");\n        _;\n    }\n\n    function registerDoctor(string memory _name) public onlyRegistered {\n        Person storage doctor = persons[msg.sender];\n        doctor.personAddress = msg.sender;\n        doctor.name = _name;\n        doctor.registered = true;\n        doctor.verifiedDoctor = true;\n        doctor.verifiedPatient = false;\n        // gender, email, nationality, etc.\n        emit DoctorRegistered(doctor);\n    }\n\n    function registerPatient(string memory _name) public {\n        // onlyRegistered\n        Person storage patient = persons[msg.sender];\n        patient.personAddress = msg.sender;\n        patient.name = _name;\n        patient.registered = true;\n        patient.verifiedDoctor = false;\n        patient.verifiedPatient = true;\n        patient.requestCount = 0;\n        // patient info\n        // IC for locals / passport for foreigners\n        // contact and home address\n        // related contacts\n        // employment details\n        // emit PatientRegistered(patient);\n    }\n\n    function getName(address _personAddress)\n        public\n        view\n        returns (string memory)\n    {\n        return persons[_personAddress].name; // msg.sender\n    }\n\n    function isVerifiedDoctor() public view returns (bool) {\n        return persons[msg.sender].verifiedDoctor;\n    }\n\n    function isVerifiedPatient() public view returns (bool) {\n        return persons[msg.sender].verifiedPatient;\n    }\n\n    function requestDocuments(address _patientAddress, uint256 _bundleNumber)\n        public\n        onlyDoctor\n    {\n        // require(persons[patientAddress].verifiedPatient); // TODO: document must exist\n        uint256 count = persons[_patientAddress].requestCount; // used for tracking request count\n        Request memory newRequest = Request(count, msg.sender, _bundleNumber);\n        persons[_patientAddress].requests.push(newRequest);\n        persons[_patientAddress].requestCount = ++count;\n        emit RequestedDocuments(newRequest, _patientAddress);\n    }\n\n    function checkPatientRequestCount()\n        public\n        view\n        onlyPatient\n        returns (uint256)\n    {\n        return persons[msg.sender].requestCount;\n    }\n\n    function checkPatientRequestAtIndex(uint256 index)\n        public\n        view\n        onlyPatient\n        returns (Request memory)\n    {\n        return persons[msg.sender].requests[index];\n    }\n\n    function requestAppointment(string memory _reason) public onlyPatient {\n        Appointment memory newAppointment = Appointment(_reason, \"\", 0, 0);\n        persons[msg.sender].appointments.push(newAppointment);\n        emit RequestedAppointment(newAppointment, msg.sender);\n    }\n\n    fallback() external {\n        functionCalled = \"fallback\";\n    }\n\n    // TODO: function: RA verifies patient and doctor\n    // TODO: function: Patient allow access to doctor or send re-encryption keys to NuCypher network\n}\n",
  "sourcePath": "/mnt/c/Users/assid/Documents/Workspace/TrufflePatient-NW/contracts/EHRSC.sol",
  "compiler": {
    "name": "solc",
    "version": "0.8.0+commit.c7dfd78e.Emscripten.clang"
  },
  "schemaVersion": "3.4.3",
  "updatedAt": "2021-10-04T17:21:47.393Z",
  "networkType": "ethereum",
  "devdoc": {
    "kind": "dev",
    "methods": {},
    "version": 1
  },
  "userdoc": {
    "kind": "user",
    "methods": {},
    "version": 1
  }
}