{
  "contractName": "EHRSC",
  "abi": [
    {
      "inputs": [
        {
          "internalType": "address",
          "name": "",
          "type": "address"
        }
      ],
      "name": "persons",
      "outputs": [
        {
          "internalType": "address",
          "name": "personAddress",
          "type": "address"
        },
        {
          "internalType": "string",
          "name": "name",
          "type": "string"
        },
        {
          "internalType": "bool",
          "name": "registered",
          "type": "bool"
        },
        {
          "internalType": "bool",
          "name": "verifiedDoctor",
          "type": "bool"
        },
        {
          "internalType": "bool",
          "name": "verifiedPatient",
          "type": "bool"
        },
        {
          "internalType": "uint256",
          "name": "requestCount",
          "type": "uint256"
        }
      ],
      "stateMutability": "view",
      "type": "function",
      "constant": true
    },
    {
      "inputs": [
        {
          "internalType": "string",
          "name": "_name",
          "type": "string"
        }
      ],
      "name": "registerDoctor",
      "outputs": [],
      "stateMutability": "nonpayable",
      "type": "function"
    },
    {
      "inputs": [
        {
          "internalType": "string",
          "name": "_name",
          "type": "string"
        }
      ],
      "name": "registerPatient",
      "outputs": [],
      "stateMutability": "nonpayable",
      "type": "function"
    },
    {
      "inputs": [],
      "name": "getName",
      "outputs": [
        {
          "internalType": "string",
          "name": "",
          "type": "string"
        }
      ],
      "stateMutability": "view",
      "type": "function",
      "constant": true
    },
    {
      "inputs": [],
      "name": "isVerifiedDoctor",
      "outputs": [
        {
          "internalType": "bool",
          "name": "",
          "type": "bool"
        }
      ],
      "stateMutability": "view",
      "type": "function",
      "constant": true
    },
    {
      "inputs": [],
      "name": "isVerifiedPatient",
      "outputs": [
        {
          "internalType": "bool",
          "name": "",
          "type": "bool"
        }
      ],
      "stateMutability": "view",
      "type": "function",
      "constant": true
    },
    {
      "inputs": [
        {
          "internalType": "address",
          "name": "patientAddress",
          "type": "address"
        },
        {
          "internalType": "uint256",
          "name": "bundleNumber",
          "type": "uint256"
        }
      ],
      "name": "requestDocuments",
      "outputs": [],
      "stateMutability": "nonpayable",
      "type": "function"
    },
    {
      "inputs": [],
      "name": "checkPatientRequestCount",
      "outputs": [
        {
          "internalType": "uint256",
          "name": "",
          "type": "uint256"
        }
      ],
      "stateMutability": "view",
      "type": "function",
      "constant": true
    },
    {
      "inputs": [
        {
          "internalType": "uint256",
          "name": "index",
          "type": "uint256"
        }
      ],
      "name": "checkPatientRequestAtIndex",
      "outputs": [
        {
          "components": [
            {
              "internalType": "uint256",
              "name": "requestNo",
              "type": "uint256"
            },
            {
              "internalType": "address",
              "name": "requester",
              "type": "address"
            },
            {
              "internalType": "uint256",
              "name": "bundleNumber",
              "type": "uint256"
            }
          ],
          "internalType": "struct EHRSC.Request",
          "name": "",
          "type": "tuple"
        }
      ],
      "stateMutability": "view",
      "type": "function",
      "constant": true
    }
  ],
  "bytecode": "0x608060405234801561001057600080fd5b506112ee806100206000396000f3fe608060405234801561001057600080fd5b50600436106100935760003560e01c8063869c9eaf11610066578063869c9eaf146101105780638ada2cf61461012c5780638f09ab5b14610161578063b5eed62e1461017d578063c94752f4146101ad57610093565b806317d7de7c14610098578063201af7c4146100b657806337f51969146100d45780633df97ca5146100f2575b600080fd5b6100a06101c9565b6040516100ad9190610fd2565b60405180910390f35b6100be61029a565b6040516100cb919061104f565b60405180910390f35b6100dc610371565b6040516100e99190610fb7565b60405180910390f35b6100fa6103c7565b6040516101079190610fb7565b60405180910390f35b61012a60048036038101906101259190610d9f565b61041d565b005b61014660048036038101906101419190610d3a565b6105af565b60405161015896959493929190610f4f565b60405180910390f35b61017b60048036038101906101769190610d9f565b6106ba565b005b61019760048036038101906101929190610de0565b610842565b6040516101a49190611034565b60405180910390f35b6101c760048036038101906101c29190610d63565b6109db565b005b60606000803373ffffffffffffffffffffffffffffffffffffffff1673ffffffffffffffffffffffffffffffffffffffff168152602001908152602001600020600101805461021790611171565b80601f016020809104026020016040519081016040528092919081815260200182805461024390611171565b80156102905780601f1061026557610100808354040283529160200191610290565b820191906000526020600020905b81548152906001019060200180831161027357829003601f168201915b5050505050905090565b60008060003373ffffffffffffffffffffffffffffffffffffffff1673ffffffffffffffffffffffffffffffffffffffff16815260200190815260200160002060020160029054906101000a900460ff1661032a576040517f08c379a000000000000000000000000000000000000000000000000000000000815260040161032190610ff4565b60405180910390fd5b6000803373ffffffffffffffffffffffffffffffffffffffff1673ffffffffffffffffffffffffffffffffffffffff16815260200190815260200160002060030154905090565b60008060003373ffffffffffffffffffffffffffffffffffffffff1673ffffffffffffffffffffffffffffffffffffffff16815260200190815260200160002060020160019054906101000a900460ff16905090565b60008060003373ffffffffffffffffffffffffffffffffffffffff1673ffffffffffffffffffffffffffffffffffffffff16815260200190815260200160002060020160029054906101000a900460ff16905090565b6000803373ffffffffffffffffffffffffffffffffffffffff1673ffffffffffffffffffffffffffffffffffffffff16815260200190815260200160002060020160009054906101000a900460ff16156104ac576040517f08c379a00000000000000000000000000000000000000000000000000000000081526004016104a390611014565b60405180910390fd5b60008060003373ffffffffffffffffffffffffffffffffffffffff1673ffffffffffffffffffffffffffffffffffffffff1681526020019081526020016000209050338160000160006101000a81548173ffffffffffffffffffffffffffffffffffffffff021916908373ffffffffffffffffffffffffffffffffffffffff16021790555081816001019080519060200190610549929190610bce565b5060018160020160006101000a81548160ff02191690831515021790555060008160020160016101000a81548160ff02191690831515021790555060018160020160026101000a81548160ff021916908315150217905550600081600301819055505050565b60006020528060005260406000206000915090508060000160009054906101000a900473ffffffffffffffffffffffffffffffffffffffff16908060010180546105f890611171565b80601f016020809104026020016040519081016040528092919081815260200182805461062490611171565b80156106715780601f1061064657610100808354040283529160200191610671565b820191906000526020600020905b81548152906001019060200180831161065457829003601f168201915b5050505050908060020160009054906101000a900460ff16908060020160019054906101000a900460ff16908060020160029054906101000a900460ff16908060030154905086565b6000803373ffffffffffffffffffffffffffffffffffffffff1673ffffffffffffffffffffffffffffffffffffffff16815260200190815260200160002060020160009054906101000a900460ff1615610749576040517f08c379a000000000000000000000000000000000000000000000000000000000815260040161074090611014565b60405180910390fd5b60008060003373ffffffffffffffffffffffffffffffffffffffff1673ffffffffffffffffffffffffffffffffffffffff1681526020019081526020016000209050338160000160006101000a81548173ffffffffffffffffffffffffffffffffffffffff021916908373ffffffffffffffffffffffffffffffffffffffff160217905550818160010190805190602001906107e6929190610bce565b5060018160020160006101000a81548160ff02191690831515021790555060018160020160016101000a81548160ff02191690831515021790555060008160020160026101000a81548160ff0219169083151502179055505050565b61084a610c54565b6000803373ffffffffffffffffffffffffffffffffffffffff1673ffffffffffffffffffffffffffffffffffffffff16815260200190815260200160002060020160029054906101000a900460ff166108d8576040517f08c379a00000000000000000000000000000000000000000000000000000000081526004016108cf90610ff4565b60405180910390fd5b6000803373ffffffffffffffffffffffffffffffffffffffff1673ffffffffffffffffffffffffffffffffffffffff1681526020019081526020016000206004018281548110610951577f4e487b7100000000000000000000000000000000000000000000000000000000600052603260045260246000fd5b9060005260206000209060030201604051806060016040529081600082015481526020016001820160009054906101000a900473ffffffffffffffffffffffffffffffffffffffff1673ffffffffffffffffffffffffffffffffffffffff1673ffffffffffffffffffffffffffffffffffffffff1681526020016002820154815250509050919050565b6000803373ffffffffffffffffffffffffffffffffffffffff1673ffffffffffffffffffffffffffffffffffffffff16815260200190815260200160002060020160019054906101000a900460ff16610a3357600080fd5b60008060008473ffffffffffffffffffffffffffffffffffffffff1673ffffffffffffffffffffffffffffffffffffffff168152602001908152602001600020600301549050600060405180606001604052808381526020013373ffffffffffffffffffffffffffffffffffffffff1681526020018481525090506000808573ffffffffffffffffffffffffffffffffffffffff1673ffffffffffffffffffffffffffffffffffffffff1681526020019081526020016000206004018190806001815401808255809150506001900390600052602060002090600302016000909190919091506000820151816000015560208201518160010160006101000a81548173ffffffffffffffffffffffffffffffffffffffff021916908373ffffffffffffffffffffffffffffffffffffffff16021790555060408201518160020155505081610b80906111a3565b9150816000808673ffffffffffffffffffffffffffffffffffffffff1673ffffffffffffffffffffffffffffffffffffffff1681526020019081526020016000206003018190555050505050565b828054610bda90611171565b90600052602060002090601f016020900481019282610bfc5760008555610c43565b82601f10610c1557805160ff1916838001178555610c43565b82800160010185558215610c43579182015b82811115610c42578251825591602001919060010190610c27565b5b509050610c509190610c8b565b5090565b604051806060016040528060008152602001600073ffffffffffffffffffffffffffffffffffffffff168152602001600081525090565b5b80821115610ca4576000816000905550600101610c8c565b5090565b6000610cbb610cb68461109b565b61106a565b905082815260208101848484011115610cd357600080fd5b610cde84828561112f565b509392505050565b600081359050610cf58161128a565b92915050565b600082601f830112610d0c57600080fd5b8135610d1c848260208601610ca8565b91505092915050565b600081359050610d34816112a1565b92915050565b600060208284031215610d4c57600080fd5b6000610d5a84828501610ce6565b91505092915050565b60008060408385031215610d7657600080fd5b6000610d8485828601610ce6565b9250506020610d9585828601610d25565b9150509250929050565b600060208284031215610db157600080fd5b600082013567ffffffffffffffff811115610dcb57600080fd5b610dd784828501610cfb565b91505092915050565b600060208284031215610df257600080fd5b6000610e0084828501610d25565b91505092915050565b610e12816110e7565b82525050565b610e21816110e7565b82525050565b610e30816110f9565b82525050565b6000610e41826110cb565b610e4b81856110d6565b9350610e5b81856020860161113e565b610e6481611279565b840191505092915050565b6000610e7c6011836110d6565b91507f4d75737420626520612070617469656e740000000000000000000000000000006000830152602082019050919050565b6000610ebc6019836110d6565b91507f506572736f6e20616c72656164792072656769737465726564000000000000006000830152602082019050919050565b606082016000820151610f056000850182610f31565b506020820151610f186020850182610e09565b506040820151610f2b6040850182610f31565b50505050565b610f3a81611125565b82525050565b610f4981611125565b82525050565b600060c082019050610f646000830189610e18565b8181036020830152610f768188610e36565b9050610f856040830187610e27565b610f926060830186610e27565b610f9f6080830185610e27565b610fac60a0830184610f40565b979650505050505050565b6000602082019050610fcc6000830184610e27565b92915050565b60006020820190508181036000830152610fec8184610e36565b905092915050565b6000602082019050818103600083015261100d81610e6f565b9050919050565b6000602082019050818103600083015261102d81610eaf565b9050919050565b60006060820190506110496000830184610eef565b92915050565b60006020820190506110646000830184610f40565b92915050565b6000604051905081810181811067ffffffffffffffff821117156110915761109061124a565b5b8060405250919050565b600067ffffffffffffffff8211156110b6576110b561124a565b5b601f19601f8301169050602081019050919050565b600081519050919050565b600082825260208201905092915050565b60006110f282611105565b9050919050565b60008115159050919050565b600073ffffffffffffffffffffffffffffffffffffffff82169050919050565b6000819050919050565b82818337600083830152505050565b60005b8381101561115c578082015181840152602081019050611141565b8381111561116b576000848401525b50505050565b6000600282049050600182168061118957607f821691505b6020821081141561119d5761119c61121b565b5b50919050565b60006111ae82611125565b91507fffffffffffffffffffffffffffffffffffffffffffffffffffffffffffffffff8214156111e1576111e06111ec565b5b600182019050919050565b7f4e487b7100000000000000000000000000000000000000000000000000000000600052601160045260246000fd5b7f4e487b7100000000000000000000000000000000000000000000000000000000600052602260045260246000fd5b7f4e487b7100000000000000000000000000000000000000000000000000000000600052604160045260246000fd5b6000601f19601f8301169050919050565b611293816110e7565b811461129e57600080fd5b50565b6112aa81611125565b81146112b557600080fd5b5056fea264697066735822122078119a142f757754d46c26498c2f0b0f77bea8d4ffcbf0b7395a05b27419285764736f6c63430008000033",
  "immutableReferences": {},
  "source": "// SPDX-License-Identifier: MIT\n// pragma solidity >=0.4.22 <0.8.0;\npragma solidity >=0.7.0 <0.9.0;\n\ncontract EHRSC {\n    struct Person {\n        address personAddress;\n        string name;\n        bool registered;\n        bool verifiedDoctor;\n        bool verifiedPatient;\n        // mapping(uint256 => HealthRecord) healthRecords;\n\n        uint256 requestCount;\n        Request[] requests;\n    }\n\n    // struct HealthRecord {\n    // }\n\n    struct Request {\n        uint256 requestNo;\n        address requester;\n        uint256 bundleNumber;\n    }\n\n    mapping(address => Person) public persons;\n\n    modifier onlyDoctor() {\n        require(persons[msg.sender].verifiedDoctor);\n        _;\n    }\n\n    function registerDoctor(string memory _name) public {\n        require(!persons[msg.sender].registered, \"Person already registered\");\n        Person storage doctor = persons[msg.sender];\n        doctor.personAddress = msg.sender;\n        doctor.name = _name;\n        doctor.registered = true;\n        doctor.verifiedDoctor = true;\n        doctor.verifiedPatient = false;\n    }\n\n    function registerPatient(string memory _name) public {\n        require(!persons[msg.sender].registered, \"Person already registered\");\n        Person storage patient = persons[msg.sender];\n        patient.personAddress = msg.sender;\n        patient.name = _name;\n        patient.registered = true;\n        patient.verifiedDoctor = false;\n        patient.verifiedPatient = true;\n        patient.requestCount = 0;\n    }\n\n    function getName() public view returns (string memory) {\n        return persons[msg.sender].name;\n    }\n\n    function isVerifiedDoctor() public view returns (bool) {\n        return persons[msg.sender].verifiedDoctor;\n    }\n\n    function isVerifiedPatient() public view returns (bool) {\n        return persons[msg.sender].verifiedPatient;\n    }\n\n    function requestDocuments(address patientAddress, uint256 bundleNumber)\n        public\n        onlyDoctor\n    {\n        // require(persons[patientAddress].verifiedPatient); // TODO: document must exist\n\n        uint256 count = persons[patientAddress].requestCount;\n        Request memory newRequest = Request(count, msg.sender, bundleNumber);\n        persons[patientAddress].requests.push(newRequest);\n        persons[patientAddress].requestCount = ++count;\n    }\n\n    function checkPatientRequestCount() public view returns (uint256) {\n        require(persons[msg.sender].verifiedPatient, \"Must be a patient\");\n        return persons[msg.sender].requestCount;\n    }\n\n    function checkPatientRequestAtIndex(uint256 index)\n        public\n        view\n        returns (Request memory)\n    {\n        require(persons[msg.sender].verifiedPatient, \"Must be a patient\");\n        return persons[msg.sender].requests[index];\n    }\n\n    // TODO: function: Patient register for appointment to hospital\n    // TODO: function: RA verifies patient and doctor\n    // TODO: function: Patient allow access to doctor or send re-encryption keys to NuCypher network\n}\n",
  "sourcePath": "/mnt/c/Users/assid/Documents/Workspace/TrufflePatient-NW/contracts/EHRSC.sol",
  "compiler": {
    "name": "solc",
    "version": "0.8.0+commit.c7dfd78e.Emscripten.clang"
  },
  "schemaVersion": "3.4.3",
  "updatedAt": "2021-10-04T13:34:26.675Z",
  "networkType": "ethereum",
  "devdoc": {
    "kind": "dev",
    "methods": {},
    "version": 1
  },
  "userdoc": {
    "kind": "user",
    "methods": {},
    "version": 1
  }
}