{
  "contractName": "EHRSC",
  "abi": [
    {
      "inputs": [
        {
          "internalType": "address",
          "name": "",
          "type": "address"
        }
      ],
      "name": "persons",
      "outputs": [
        {
          "internalType": "address",
          "name": "personAddress",
          "type": "address"
        },
        {
          "internalType": "string",
          "name": "name",
          "type": "string"
        },
        {
          "internalType": "bool",
          "name": "registered",
          "type": "bool"
        },
        {
          "internalType": "bool",
          "name": "verifiedDoctor",
          "type": "bool"
        },
        {
          "internalType": "bool",
          "name": "verifiedPatient",
          "type": "bool"
        },
        {
          "internalType": "uint256",
          "name": "requestCount",
          "type": "uint256"
        }
      ],
      "stateMutability": "view",
      "type": "function",
      "constant": true
    },
    {
      "inputs": [
        {
          "internalType": "string",
          "name": "_name",
          "type": "string"
        }
      ],
      "name": "registerDoctor",
      "outputs": [],
      "stateMutability": "payable",
      "type": "function",
      "payable": true
    },
    {
      "inputs": [
        {
          "internalType": "string",
          "name": "_name",
          "type": "string"
        }
      ],
      "name": "registerPatient",
      "outputs": [],
      "stateMutability": "payable",
      "type": "function",
      "payable": true
    },
    {
      "inputs": [],
      "name": "getName",
      "outputs": [
        {
          "internalType": "string",
          "name": "",
          "type": "string"
        }
      ],
      "stateMutability": "view",
      "type": "function",
      "constant": true
    },
    {
      "inputs": [],
      "name": "isVerifiedDoctor",
      "outputs": [
        {
          "internalType": "bool",
          "name": "",
          "type": "bool"
        }
      ],
      "stateMutability": "view",
      "type": "function",
      "constant": true
    },
    {
      "inputs": [],
      "name": "isVerifiedPatient",
      "outputs": [
        {
          "internalType": "bool",
          "name": "",
          "type": "bool"
        }
      ],
      "stateMutability": "view",
      "type": "function",
      "constant": true
    },
    {
      "inputs": [
        {
          "internalType": "address",
          "name": "patientAddress",
          "type": "address"
        },
        {
          "internalType": "uint256",
          "name": "bundleNumber",
          "type": "uint256"
        }
      ],
      "name": "requestDocuments",
      "outputs": [],
      "stateMutability": "payable",
      "type": "function",
      "payable": true
    },
    {
      "inputs": [],
      "name": "checkPatientDocumentRequests",
      "outputs": [
        {
          "internalType": "uint256",
          "name": "",
          "type": "uint256"
        }
      ],
      "stateMutability": "view",
      "type": "function",
      "constant": true
    }
  ],
  "bytecode": "0x608060405234801561001057600080fd5b50611059806100206000396000f3fe60806040526004361061007b5760003560e01c8063869c9eaf1161004e578063869c9eaf1461012c5780638ada2cf6146101485780638f09ab5b1461018a578063c94752f4146101a65761007b565b806317d7de7c146100805780631c505b26146100ab57806337f51969146100d65780633df97ca514610101575b600080fd5b34801561008c57600080fd5b506100956101c2565b6040516100a29190610d58565b60405180910390f35b3480156100b757600080fd5b506100c0610293565b6040516100cd9190610dba565b60405180910390f35b3480156100e257600080fd5b506100eb61036a565b6040516100f89190610d3d565b60405180910390f35b34801561010d57600080fd5b506101166103c0565b6040516101239190610d3d565b60405180910390f35b61014660048036038101906101419190610bae565b610416565b005b34801561015457600080fd5b5061016f600480360381019061016a9190610b49565b610568565b60405161018196959493929190610cd5565b60405180910390f35b6101a4600480360381019061019f9190610bae565b610673565b005b6101c060048036038101906101bb9190610b72565b6107fb565b005b60606000803373ffffffffffffffffffffffffffffffffffffffff1673ffffffffffffffffffffffffffffffffffffffff168152602001908152602001600020600101805461021090610edc565b80601f016020809104026020016040519081016040528092919081815260200182805461023c90610edc565b80156102895780601f1061025e57610100808354040283529160200191610289565b820191906000526020600020905b81548152906001019060200180831161026c57829003601f168201915b5050505050905090565b60008060003373ffffffffffffffffffffffffffffffffffffffff1673ffffffffffffffffffffffffffffffffffffffff16815260200190815260200160002060020160029054906101000a900460ff16610323576040517f08c379a000000000000000000000000000000000000000000000000000000000815260040161031a90610d7a565b60405180910390fd5b6000803373ffffffffffffffffffffffffffffffffffffffff1673ffffffffffffffffffffffffffffffffffffffff16815260200190815260200160002060030154905090565b60008060003373ffffffffffffffffffffffffffffffffffffffff1673ffffffffffffffffffffffffffffffffffffffff16815260200190815260200160002060020160019054906101000a900460ff16905090565b60008060003373ffffffffffffffffffffffffffffffffffffffff1673ffffffffffffffffffffffffffffffffffffffff16815260200190815260200160002060020160029054906101000a900460ff16905090565b6000803373ffffffffffffffffffffffffffffffffffffffff1673ffffffffffffffffffffffffffffffffffffffff16815260200190815260200160002060020160009054906101000a900460ff161561046f57600080fd5b60008060003373ffffffffffffffffffffffffffffffffffffffff1673ffffffffffffffffffffffffffffffffffffffff1681526020019081526020016000209050338160000160006101000a81548173ffffffffffffffffffffffffffffffffffffffff021916908373ffffffffffffffffffffffffffffffffffffffff1602179055508181600101908051906020019061050c9291906109e4565b5060018160020160006101000a81548160ff02191690831515021790555060008160020160016101000a81548160ff02191690831515021790555060018160020160026101000a81548160ff0219169083151502179055505050565b60006020528060005260406000206000915090508060000160009054906101000a900473ffffffffffffffffffffffffffffffffffffffff16908060010180546105b190610edc565b80601f01602080910402602001604051908101604052809291908181526020018280546105dd90610edc565b801561062a5780601f106105ff5761010080835404028352916020019161062a565b820191906000526020600020905b81548152906001019060200180831161060d57829003601f168201915b5050505050908060020160009054906101000a900460ff16908060020160019054906101000a900460ff16908060020160029054906101000a900460ff16908060030154905086565b6000803373ffffffffffffffffffffffffffffffffffffffff1673ffffffffffffffffffffffffffffffffffffffff16815260200190815260200160002060020160009054906101000a900460ff1615610702576040517f08c379a00000000000000000000000000000000000000000000000000000000081526004016106f990610d9a565b60405180910390fd5b60008060003373ffffffffffffffffffffffffffffffffffffffff1673ffffffffffffffffffffffffffffffffffffffff1681526020019081526020016000209050338160000160006101000a81548173ffffffffffffffffffffffffffffffffffffffff021916908373ffffffffffffffffffffffffffffffffffffffff1602179055508181600101908051906020019061079f9291906109e4565b5060018160020160006101000a81548160ff02191690831515021790555060018160020160016101000a81548160ff02191690831515021790555060008160020160026101000a81548160ff0219169083151502179055505050565b6000803373ffffffffffffffffffffffffffffffffffffffff1673ffffffffffffffffffffffffffffffffffffffff16815260200190815260200160002060020160019054906101000a900460ff1661085357600080fd5b61085b610a6a565b33816000019073ffffffffffffffffffffffffffffffffffffffff16908173ffffffffffffffffffffffffffffffffffffffff16815250508181602001818152505060008060008573ffffffffffffffffffffffffffffffffffffffff1673ffffffffffffffffffffffffffffffffffffffff16815260200190815260200160002060030154905080806108ee90610f0e565b915050816000808673ffffffffffffffffffffffffffffffffffffffff1673ffffffffffffffffffffffffffffffffffffffff168152602001908152602001600020600401600083815260200190815260200160002060008201518160000160006101000a81548173ffffffffffffffffffffffffffffffffffffffff021916908373ffffffffffffffffffffffffffffffffffffffff16021790555060208201518160010155905050806000808673ffffffffffffffffffffffffffffffffffffffff1673ffffffffffffffffffffffffffffffffffffffff1681526020019081526020016000206003018190555050505050565b8280546109f090610edc565b90600052602060002090601f016020900481019282610a125760008555610a59565b82601f10610a2b57805160ff1916838001178555610a59565b82800160010185558215610a59579182015b82811115610a58578251825591602001919060010190610a3d565b5b509050610a669190610a9a565b5090565b6040518060400160405280600073ffffffffffffffffffffffffffffffffffffffff168152602001600081525090565b5b80821115610ab3576000816000905550600101610a9b565b5090565b6000610aca610ac584610e06565b610dd5565b905082815260208101848484011115610ae257600080fd5b610aed848285610e9a565b509392505050565b600081359050610b0481610ff5565b92915050565b600082601f830112610b1b57600080fd5b8135610b2b848260208601610ab7565b91505092915050565b600081359050610b438161100c565b92915050565b600060208284031215610b5b57600080fd5b6000610b6984828501610af5565b91505092915050565b60008060408385031215610b8557600080fd5b6000610b9385828601610af5565b9250506020610ba485828601610b34565b9150509250929050565b600060208284031215610bc057600080fd5b600082013567ffffffffffffffff811115610bda57600080fd5b610be684828501610b0a565b91505092915050565b610bf881610e52565b82525050565b610c0781610e64565b82525050565b6000610c1882610e36565b610c228185610e41565b9350610c32818560208601610ea9565b610c3b81610fe4565b840191505092915050565b6000610c53601183610e41565b91507f4d75737420626520612070617469656e740000000000000000000000000000006000830152602082019050919050565b6000610c93601983610e41565b91507f506572736f6e20616c72656164792072656769737465726564000000000000006000830152602082019050919050565b610ccf81610e90565b82525050565b600060c082019050610cea6000830189610bef565b8181036020830152610cfc8188610c0d565b9050610d0b6040830187610bfe565b610d186060830186610bfe565b610d256080830185610bfe565b610d3260a0830184610cc6565b979650505050505050565b6000602082019050610d526000830184610bfe565b92915050565b60006020820190508181036000830152610d728184610c0d565b905092915050565b60006020820190508181036000830152610d9381610c46565b9050919050565b60006020820190508181036000830152610db381610c86565b9050919050565b6000602082019050610dcf6000830184610cc6565b92915050565b6000604051905081810181811067ffffffffffffffff82111715610dfc57610dfb610fb5565b5b8060405250919050565b600067ffffffffffffffff821115610e2157610e20610fb5565b5b601f19601f8301169050602081019050919050565b600081519050919050565b600082825260208201905092915050565b6000610e5d82610e70565b9050919050565b60008115159050919050565b600073ffffffffffffffffffffffffffffffffffffffff82169050919050565b6000819050919050565b82818337600083830152505050565b60005b83811015610ec7578082015181840152602081019050610eac565b83811115610ed6576000848401525b50505050565b60006002820490506001821680610ef457607f821691505b60208210811415610f0857610f07610f86565b5b50919050565b6000610f1982610e90565b91507fffffffffffffffffffffffffffffffffffffffffffffffffffffffffffffffff821415610f4c57610f4b610f57565b5b600182019050919050565b7f4e487b7100000000000000000000000000000000000000000000000000000000600052601160045260246000fd5b7f4e487b7100000000000000000000000000000000000000000000000000000000600052602260045260246000fd5b7f4e487b7100000000000000000000000000000000000000000000000000000000600052604160045260246000fd5b6000601f19601f8301169050919050565b610ffe81610e52565b811461100957600080fd5b50565b61101581610e90565b811461102057600080fd5b5056fea26469706673582212205ff587dd14dc606bb094eefd744aa5748e5203dfda0ded3256bf4101fcaa2db664736f6c63430008000033",
  "immutableReferences": {},
  "source": "// SPDX-License-Identifier: MIT\npragma solidity >=0.7.0 <0.9.0;\n\n// pragma solidity >=0.4.22 <0.8.0;\n\ncontract EHRSC {\n    struct Person {\n        address personAddress;\n        string name;\n        bool registered;\n        bool verifiedDoctor;\n        bool verifiedPatient;\n        uint256 requestCount;\n        mapping(uint256 => Request) requests;\n    }\n\n    struct Request {\n        address requester;\n        uint256 bundleNumber;\n    }\n\n    mapping(address => Person) public persons;\n\n    function registerDoctor(string memory _name) public payable {\n        require(!persons[msg.sender].registered, \"Person already registered\");\n        Person storage doctor = persons[msg.sender];\n        doctor.personAddress = msg.sender;\n        doctor.name = _name;\n        doctor.registered = true;\n        doctor.verifiedDoctor = true;\n        doctor.verifiedPatient = false;\n    }\n\n    function registerPatient(string memory _name) public payable {\n        require(!persons[msg.sender].registered);\n        Person storage patient = persons[msg.sender];\n        patient.personAddress = msg.sender;\n        patient.name = _name;\n        patient.registered = true;\n        patient.verifiedDoctor = false;\n        patient.verifiedPatient = true;\n    }\n\n    function getName() public view returns (string memory) {\n        return persons[msg.sender].name;\n    }\n\n    function isVerifiedDoctor() public view returns (bool) {\n        return persons[msg.sender].verifiedDoctor;\n    }\n\n    function isVerifiedPatient() public view returns (bool) {\n        return persons[msg.sender].verifiedPatient;\n    }\n\n    function requestDocuments(address patientAddress, uint256 bundleNumber)\n        public\n        payable\n    {\n        require(persons[msg.sender].verifiedDoctor);\n        // require(persons[patientAddress].verifiedPatient); // TODO: document must exist\n\n        Request memory request;\n        request.requester = msg.sender;\n        request.bundleNumber = bundleNumber;\n\n        uint256 count = persons[patientAddress].requestCount;\n        count++;\n        persons[patientAddress].requests[count] = request;\n        persons[patientAddress].requestCount = count;\n    }\n\n    function checkPatientDocumentRequests() public view returns (uint256) {\n        require(persons[msg.sender].verifiedPatient, \"Must be a patient\");\n        return persons[msg.sender].requestCount; // test checking how many requests are there\n        // TODO: check the contains of requests object array\n    }\n\n    // TODO: function: RA verifies patient and doctor\n    // TODO: function: Patient allow access to doctor or send re-encryption keys to NuCypher network\n}\n",
  "sourcePath": "/mnt/c/Users/assid/Documents/Workspace/TrufflePatient-NW/contracts/EHRSC.sol",
  "compiler": {
    "name": "solc",
    "version": "0.8.0+commit.c7dfd78e.Emscripten.clang"
  },
  "schemaVersion": "3.4.3",
  "updatedAt": "2021-09-27T10:17:01.778Z",
  "networkType": "ethereum",
  "devdoc": {
    "kind": "dev",
    "methods": {},
    "version": 1
  },
  "userdoc": {
    "kind": "user",
    "methods": {},
    "version": 1
  }
}