{
  "contractName": "EHRSC",
  "abi": [
    {
      "inputs": [],
      "stateMutability": "nonpayable",
      "type": "constructor"
    },
    {
      "anonymous": false,
      "inputs": [
        {
          "components": [
            {
              "internalType": "address",
              "name": "personAddress",
              "type": "address"
            },
            {
              "internalType": "string",
              "name": "name",
              "type": "string"
            },
            {
              "internalType": "enum EHRSC.EntityClaim",
              "name": "entityClaim",
              "type": "uint8"
            },
            {
              "internalType": "bool",
              "name": "registered",
              "type": "bool"
            },
            {
              "internalType": "bool",
              "name": "verifiedDoctor",
              "type": "bool"
            },
            {
              "internalType": "bool",
              "name": "verifiedPatient",
              "type": "bool"
            },
            {
              "internalType": "bool",
              "name": "verifiedRegulatoryAgencyAdmin",
              "type": "bool"
            },
            {
              "internalType": "uint256",
              "name": "requestCount",
              "type": "uint256"
            },
            {
              "components": [
                {
                  "internalType": "uint256",
                  "name": "requestNo",
                  "type": "uint256"
                },
                {
                  "internalType": "address",
                  "name": "requester",
                  "type": "address"
                },
                {
                  "internalType": "uint256",
                  "name": "bundleNumber",
                  "type": "uint256"
                }
              ],
              "internalType": "struct EHRSC.Request[]",
              "name": "requests",
              "type": "tuple[]"
            },
            {
              "components": [
                {
                  "internalType": "string",
                  "name": "reason",
                  "type": "string"
                },
                {
                  "internalType": "string",
                  "name": "venue",
                  "type": "string"
                },
                {
                  "internalType": "uint256",
                  "name": "date",
                  "type": "uint256"
                },
                {
                  "internalType": "uint256",
                  "name": "time",
                  "type": "uint256"
                }
              ],
              "internalType": "struct EHRSC.Appointment[]",
              "name": "appointments",
              "type": "tuple[]"
            }
          ],
          "indexed": false,
          "internalType": "struct EHRSC.Person",
          "name": "doctor",
          "type": "tuple"
        }
      ],
      "name": "DoctorRegistered",
      "type": "event"
    },
    {
      "anonymous": false,
      "inputs": [
        {
          "components": [
            {
              "internalType": "address",
              "name": "personAddress",
              "type": "address"
            },
            {
              "internalType": "string",
              "name": "name",
              "type": "string"
            },
            {
              "internalType": "enum EHRSC.EntityClaim",
              "name": "entityClaim",
              "type": "uint8"
            },
            {
              "internalType": "bool",
              "name": "registered",
              "type": "bool"
            },
            {
              "internalType": "bool",
              "name": "verifiedDoctor",
              "type": "bool"
            },
            {
              "internalType": "bool",
              "name": "verifiedPatient",
              "type": "bool"
            },
            {
              "internalType": "bool",
              "name": "verifiedRegulatoryAgencyAdmin",
              "type": "bool"
            },
            {
              "internalType": "uint256",
              "name": "requestCount",
              "type": "uint256"
            },
            {
              "components": [
                {
                  "internalType": "uint256",
                  "name": "requestNo",
                  "type": "uint256"
                },
                {
                  "internalType": "address",
                  "name": "requester",
                  "type": "address"
                },
                {
                  "internalType": "uint256",
                  "name": "bundleNumber",
                  "type": "uint256"
                }
              ],
              "internalType": "struct EHRSC.Request[]",
              "name": "requests",
              "type": "tuple[]"
            },
            {
              "components": [
                {
                  "internalType": "string",
                  "name": "reason",
                  "type": "string"
                },
                {
                  "internalType": "string",
                  "name": "venue",
                  "type": "string"
                },
                {
                  "internalType": "uint256",
                  "name": "date",
                  "type": "uint256"
                },
                {
                  "internalType": "uint256",
                  "name": "time",
                  "type": "uint256"
                }
              ],
              "internalType": "struct EHRSC.Appointment[]",
              "name": "appointments",
              "type": "tuple[]"
            }
          ],
          "indexed": false,
          "internalType": "struct EHRSC.Person",
          "name": "doctor",
          "type": "tuple"
        }
      ],
      "name": "DoctorVerified",
      "type": "event"
    },
    {
      "anonymous": false,
      "inputs": [
        {
          "components": [
            {
              "internalType": "address",
              "name": "personAddress",
              "type": "address"
            },
            {
              "internalType": "string",
              "name": "name",
              "type": "string"
            },
            {
              "internalType": "enum EHRSC.EntityClaim",
              "name": "entityClaim",
              "type": "uint8"
            },
            {
              "internalType": "bool",
              "name": "registered",
              "type": "bool"
            },
            {
              "internalType": "bool",
              "name": "verifiedDoctor",
              "type": "bool"
            },
            {
              "internalType": "bool",
              "name": "verifiedPatient",
              "type": "bool"
            },
            {
              "internalType": "bool",
              "name": "verifiedRegulatoryAgencyAdmin",
              "type": "bool"
            },
            {
              "internalType": "uint256",
              "name": "requestCount",
              "type": "uint256"
            },
            {
              "components": [
                {
                  "internalType": "uint256",
                  "name": "requestNo",
                  "type": "uint256"
                },
                {
                  "internalType": "address",
                  "name": "requester",
                  "type": "address"
                },
                {
                  "internalType": "uint256",
                  "name": "bundleNumber",
                  "type": "uint256"
                }
              ],
              "internalType": "struct EHRSC.Request[]",
              "name": "requests",
              "type": "tuple[]"
            },
            {
              "components": [
                {
                  "internalType": "string",
                  "name": "reason",
                  "type": "string"
                },
                {
                  "internalType": "string",
                  "name": "venue",
                  "type": "string"
                },
                {
                  "internalType": "uint256",
                  "name": "date",
                  "type": "uint256"
                },
                {
                  "internalType": "uint256",
                  "name": "time",
                  "type": "uint256"
                }
              ],
              "internalType": "struct EHRSC.Appointment[]",
              "name": "appointments",
              "type": "tuple[]"
            }
          ],
          "indexed": false,
          "internalType": "struct EHRSC.Person",
          "name": "patient",
          "type": "tuple"
        }
      ],
      "name": "PatientRegistered",
      "type": "event"
    },
    {
      "anonymous": false,
      "inputs": [
        {
          "components": [
            {
              "internalType": "address",
              "name": "personAddress",
              "type": "address"
            },
            {
              "internalType": "string",
              "name": "name",
              "type": "string"
            },
            {
              "internalType": "enum EHRSC.EntityClaim",
              "name": "entityClaim",
              "type": "uint8"
            },
            {
              "internalType": "bool",
              "name": "registered",
              "type": "bool"
            },
            {
              "internalType": "bool",
              "name": "verifiedDoctor",
              "type": "bool"
            },
            {
              "internalType": "bool",
              "name": "verifiedPatient",
              "type": "bool"
            },
            {
              "internalType": "bool",
              "name": "verifiedRegulatoryAgencyAdmin",
              "type": "bool"
            },
            {
              "internalType": "uint256",
              "name": "requestCount",
              "type": "uint256"
            },
            {
              "components": [
                {
                  "internalType": "uint256",
                  "name": "requestNo",
                  "type": "uint256"
                },
                {
                  "internalType": "address",
                  "name": "requester",
                  "type": "address"
                },
                {
                  "internalType": "uint256",
                  "name": "bundleNumber",
                  "type": "uint256"
                }
              ],
              "internalType": "struct EHRSC.Request[]",
              "name": "requests",
              "type": "tuple[]"
            },
            {
              "components": [
                {
                  "internalType": "string",
                  "name": "reason",
                  "type": "string"
                },
                {
                  "internalType": "string",
                  "name": "venue",
                  "type": "string"
                },
                {
                  "internalType": "uint256",
                  "name": "date",
                  "type": "uint256"
                },
                {
                  "internalType": "uint256",
                  "name": "time",
                  "type": "uint256"
                }
              ],
              "internalType": "struct EHRSC.Appointment[]",
              "name": "appointments",
              "type": "tuple[]"
            }
          ],
          "indexed": false,
          "internalType": "struct EHRSC.Person",
          "name": "patient",
          "type": "tuple"
        }
      ],
      "name": "PatientVerified",
      "type": "event"
    },
    {
      "anonymous": false,
      "inputs": [
        {
          "components": [
            {
              "internalType": "address",
              "name": "personAddress",
              "type": "address"
            },
            {
              "internalType": "string",
              "name": "name",
              "type": "string"
            },
            {
              "internalType": "enum EHRSC.EntityClaim",
              "name": "entityClaim",
              "type": "uint8"
            },
            {
              "internalType": "bool",
              "name": "registered",
              "type": "bool"
            },
            {
              "internalType": "bool",
              "name": "verifiedDoctor",
              "type": "bool"
            },
            {
              "internalType": "bool",
              "name": "verifiedPatient",
              "type": "bool"
            },
            {
              "internalType": "bool",
              "name": "verifiedRegulatoryAgencyAdmin",
              "type": "bool"
            },
            {
              "internalType": "uint256",
              "name": "requestCount",
              "type": "uint256"
            },
            {
              "components": [
                {
                  "internalType": "uint256",
                  "name": "requestNo",
                  "type": "uint256"
                },
                {
                  "internalType": "address",
                  "name": "requester",
                  "type": "address"
                },
                {
                  "internalType": "uint256",
                  "name": "bundleNumber",
                  "type": "uint256"
                }
              ],
              "internalType": "struct EHRSC.Request[]",
              "name": "requests",
              "type": "tuple[]"
            },
            {
              "components": [
                {
                  "internalType": "string",
                  "name": "reason",
                  "type": "string"
                },
                {
                  "internalType": "string",
                  "name": "venue",
                  "type": "string"
                },
                {
                  "internalType": "uint256",
                  "name": "date",
                  "type": "uint256"
                },
                {
                  "internalType": "uint256",
                  "name": "time",
                  "type": "uint256"
                }
              ],
              "internalType": "struct EHRSC.Appointment[]",
              "name": "appointments",
              "type": "tuple[]"
            }
          ],
          "indexed": false,
          "internalType": "struct EHRSC.Person",
          "name": "regulatoryAgencyAdmin",
          "type": "tuple"
        }
      ],
      "name": "RegulatorAgencyAdminVerified",
      "type": "event"
    },
    {
      "anonymous": false,
      "inputs": [
        {
          "components": [
            {
              "internalType": "address",
              "name": "personAddress",
              "type": "address"
            },
            {
              "internalType": "string",
              "name": "name",
              "type": "string"
            },
            {
              "internalType": "enum EHRSC.EntityClaim",
              "name": "entityClaim",
              "type": "uint8"
            },
            {
              "internalType": "bool",
              "name": "registered",
              "type": "bool"
            },
            {
              "internalType": "bool",
              "name": "verifiedDoctor",
              "type": "bool"
            },
            {
              "internalType": "bool",
              "name": "verifiedPatient",
              "type": "bool"
            },
            {
              "internalType": "bool",
              "name": "verifiedRegulatoryAgencyAdmin",
              "type": "bool"
            },
            {
              "internalType": "uint256",
              "name": "requestCount",
              "type": "uint256"
            },
            {
              "components": [
                {
                  "internalType": "uint256",
                  "name": "requestNo",
                  "type": "uint256"
                },
                {
                  "internalType": "address",
                  "name": "requester",
                  "type": "address"
                },
                {
                  "internalType": "uint256",
                  "name": "bundleNumber",
                  "type": "uint256"
                }
              ],
              "internalType": "struct EHRSC.Request[]",
              "name": "requests",
              "type": "tuple[]"
            },
            {
              "components": [
                {
                  "internalType": "string",
                  "name": "reason",
                  "type": "string"
                },
                {
                  "internalType": "string",
                  "name": "venue",
                  "type": "string"
                },
                {
                  "internalType": "uint256",
                  "name": "date",
                  "type": "uint256"
                },
                {
                  "internalType": "uint256",
                  "name": "time",
                  "type": "uint256"
                }
              ],
              "internalType": "struct EHRSC.Appointment[]",
              "name": "appointments",
              "type": "tuple[]"
            }
          ],
          "indexed": false,
          "internalType": "struct EHRSC.Person",
          "name": "regulatoryAgencyAdmin",
          "type": "tuple"
        }
      ],
      "name": "RegulatoryAgencyAdminRegistered",
      "type": "event"
    },
    {
      "anonymous": false,
      "inputs": [
        {
          "components": [
            {
              "internalType": "string",
              "name": "reason",
              "type": "string"
            },
            {
              "internalType": "string",
              "name": "venue",
              "type": "string"
            },
            {
              "internalType": "uint256",
              "name": "date",
              "type": "uint256"
            },
            {
              "internalType": "uint256",
              "name": "time",
              "type": "uint256"
            }
          ],
          "indexed": false,
          "internalType": "struct EHRSC.Appointment",
          "name": "newAppointment",
          "type": "tuple"
        }
      ],
      "name": "RequestedAppointment",
      "type": "event"
    },
    {
      "anonymous": false,
      "inputs": [
        {
          "components": [
            {
              "internalType": "uint256",
              "name": "requestNo",
              "type": "uint256"
            },
            {
              "internalType": "address",
              "name": "requester",
              "type": "address"
            },
            {
              "internalType": "uint256",
              "name": "bundleNumber",
              "type": "uint256"
            }
          ],
          "indexed": false,
          "internalType": "struct EHRSC.Request",
          "name": "newRequest",
          "type": "tuple"
        },
        {
          "indexed": false,
          "internalType": "address",
          "name": "patientAddress",
          "type": "address"
        }
      ],
      "name": "RequestedDocuments",
      "type": "event"
    },
    {
      "stateMutability": "nonpayable",
      "type": "fallback"
    },
    {
      "inputs": [],
      "name": "functionCalled",
      "outputs": [
        {
          "internalType": "string",
          "name": "",
          "type": "string"
        }
      ],
      "stateMutability": "view",
      "type": "function",
      "constant": true
    },
    {
      "inputs": [],
      "name": "owner",
      "outputs": [
        {
          "internalType": "address",
          "name": "",
          "type": "address"
        }
      ],
      "stateMutability": "view",
      "type": "function",
      "constant": true
    },
    {
      "inputs": [
        {
          "internalType": "address",
          "name": "",
          "type": "address"
        }
      ],
      "name": "persons",
      "outputs": [
        {
          "internalType": "address",
          "name": "personAddress",
          "type": "address"
        },
        {
          "internalType": "string",
          "name": "name",
          "type": "string"
        },
        {
          "internalType": "enum EHRSC.EntityClaim",
          "name": "entityClaim",
          "type": "uint8"
        },
        {
          "internalType": "bool",
          "name": "registered",
          "type": "bool"
        },
        {
          "internalType": "bool",
          "name": "verifiedDoctor",
          "type": "bool"
        },
        {
          "internalType": "bool",
          "name": "verifiedPatient",
          "type": "bool"
        },
        {
          "internalType": "bool",
          "name": "verifiedRegulatoryAgencyAdmin",
          "type": "bool"
        },
        {
          "internalType": "uint256",
          "name": "requestCount",
          "type": "uint256"
        }
      ],
      "stateMutability": "view",
      "type": "function",
      "constant": true
    },
    {
      "inputs": [
        {
          "internalType": "string",
          "name": "_name",
          "type": "string"
        }
      ],
      "name": "registerDoctor",
      "outputs": [],
      "stateMutability": "nonpayable",
      "type": "function"
    },
    {
      "inputs": [
        {
          "internalType": "string",
          "name": "_name",
          "type": "string"
        }
      ],
      "name": "registerPatient",
      "outputs": [],
      "stateMutability": "nonpayable",
      "type": "function"
    },
    {
      "inputs": [
        {
          "internalType": "string",
          "name": "_name",
          "type": "string"
        }
      ],
      "name": "registerRegulatoryAgencyAdmin",
      "outputs": [],
      "stateMutability": "nonpayable",
      "type": "function"
    },
    {
      "inputs": [],
      "name": "getName",
      "outputs": [
        {
          "internalType": "string",
          "name": "",
          "type": "string"
        }
      ],
      "stateMutability": "view",
      "type": "function",
      "constant": true
    },
    {
      "inputs": [],
      "name": "isVerifiedDoctor",
      "outputs": [
        {
          "internalType": "bool",
          "name": "",
          "type": "bool"
        }
      ],
      "stateMutability": "view",
      "type": "function",
      "constant": true
    },
    {
      "inputs": [],
      "name": "isVerifiedPatient",
      "outputs": [
        {
          "internalType": "bool",
          "name": "",
          "type": "bool"
        }
      ],
      "stateMutability": "view",
      "type": "function",
      "constant": true
    },
    {
      "inputs": [
        {
          "internalType": "address",
          "name": "_patientAddress",
          "type": "address"
        },
        {
          "internalType": "uint256",
          "name": "_bundleNumber",
          "type": "uint256"
        }
      ],
      "name": "requestDocuments",
      "outputs": [],
      "stateMutability": "nonpayable",
      "type": "function"
    },
    {
      "inputs": [],
      "name": "checkPatientRequestCount",
      "outputs": [
        {
          "internalType": "uint256",
          "name": "",
          "type": "uint256"
        }
      ],
      "stateMutability": "view",
      "type": "function",
      "constant": true
    },
    {
      "inputs": [
        {
          "internalType": "uint256",
          "name": "index",
          "type": "uint256"
        }
      ],
      "name": "checkPatientRequestAtIndex",
      "outputs": [
        {
          "components": [
            {
              "internalType": "uint256",
              "name": "requestNo",
              "type": "uint256"
            },
            {
              "internalType": "address",
              "name": "requester",
              "type": "address"
            },
            {
              "internalType": "uint256",
              "name": "bundleNumber",
              "type": "uint256"
            }
          ],
          "internalType": "struct EHRSC.Request",
          "name": "",
          "type": "tuple"
        }
      ],
      "stateMutability": "view",
      "type": "function",
      "constant": true
    },
    {
      "inputs": [
        {
          "internalType": "string",
          "name": "_reason",
          "type": "string"
        },
        {
          "internalType": "string",
          "name": "_venue",
          "type": "string"
        },
        {
          "internalType": "uint256",
          "name": "_date",
          "type": "uint256"
        },
        {
          "internalType": "uint256",
          "name": "_time",
          "type": "uint256"
        }
      ],
      "name": "requestAppointment",
      "outputs": [],
      "stateMutability": "nonpayable",
      "type": "function"
    },
    {
      "inputs": [
        {
          "internalType": "address",
          "name": "_personAddress",
          "type": "address"
        }
      ],
      "name": "verifyByOwner",
      "outputs": [],
      "stateMutability": "nonpayable",
      "type": "function"
    },
    {
      "inputs": [],
      "name": "getOwner",
      "outputs": [
        {
          "internalType": "address",
          "name": "",
          "type": "address"
        }
      ],
      "stateMutability": "view",
      "type": "function",
      "constant": true
    },
    {
      "inputs": [
        {
          "internalType": "address",
          "name": "_personAddress",
          "type": "address"
        }
      ],
      "name": "regulatoryAgencyAdminVerify",
      "outputs": [],
      "stateMutability": "nonpayable",
      "type": "function"
    }
  ],
  "bytecode": "0x608060405234801561001057600080fd5b50336000806101000a81548173ffffffffffffffffffffffffffffffffffffffff021916908373ffffffffffffffffffffffffffffffffffffffff160217905550612cd8806100606000396000f3fe608060405234801561001057600080fd5b50600436106101045760003560e01c8063893d20e811610097578063b5eed62e11610066578063b5eed62e146102ca578063c0d0dd1b146102fa578063c94752f414610316578063cc81afc81461033257610105565b8063893d20e81461023b5780638ada2cf6146102595780638da5cb5b146102905780638f09ab5b146102ae57610105565b8063407a9c5a116100d3578063407a9c5a146101cb57806340d990f0146101e75780636f5891b914610203578063869c9eaf1461021f57610105565b806317d7de7c14610153578063201af7c41461017157806337f519691461018f5780633df97ca5146101ad57610105565b5b6040518060400160405280600881526020017f66616c6c6261636b00000000000000000000000000000000000000000000000081525060019080519060200190610150929190611b75565b50005b61015b610350565b6040516101689190612688565b60405180910390f35b610179610422565b60405161018691906127f4565b60405180910390f35b6101976104fb565b6040516101a4919061266d565b60405180910390f35b6101b5610552565b6040516101c2919061266d565b60405180910390f35b6101e560048036038101906101e09190611ce1565b6105a9565b005b61020160048036038101906101fc9190611d46565b610b0f565b005b61021d60048036038101906102189190611ce1565b610d40565b005b61023960048036038101906102349190611d46565b610ef5565b005b610243611130565b60405161025091906125cd565b60405180910390f35b610273600480360381019061026e9190611ce1565b611159565b6040516102879897969594939291906125e8565b60405180910390f35b61029861128a565b6040516102a591906125cd565b60405180910390f35b6102c860048036038101906102c39190611d46565b6112ae565b005b6102e460048036038101906102df9190611e1a565b6114df565b6040516102f191906127b0565b60405180910390f35b610314600480360381019061030f9190611d87565b61167a565b005b610330600480360381019061032b9190611d0a565b611828565b005b61033a611ae7565b6040516103479190612688565b60405180910390f35b6060600260003373ffffffffffffffffffffffffffffffffffffffff1673ffffffffffffffffffffffffffffffffffffffff168152602001908152602001600020600101805461039f90612a21565b80601f01602080910402602001604051908101604052809291908181526020018280546103cb90612a21565b80156104185780601f106103ed57610100808354040283529160200191610418565b820191906000526020600020905b8154815290600101906020018083116103fb57829003601f168201915b5050505050905090565b6000600260003373ffffffffffffffffffffffffffffffffffffffff1673ffffffffffffffffffffffffffffffffffffffff16815260200190815260200160002060020160039054906101000a900460ff166104b3576040517f08c379a00000000000000000000000000000000000000000000000000000000081526004016104aa906126ea565b60405180910390fd5b600260003373ffffffffffffffffffffffffffffffffffffffff1673ffffffffffffffffffffffffffffffffffffffff16815260200190815260200160002060030154905090565b6000600260003373ffffffffffffffffffffffffffffffffffffffff1673ffffffffffffffffffffffffffffffffffffffff16815260200190815260200160002060020160029054906101000a900460ff16905090565b6000600260003373ffffffffffffffffffffffffffffffffffffffff1673ffffffffffffffffffffffffffffffffffffffff16815260200190815260200160002060020160039054906101000a900460ff16905090565b600260003373ffffffffffffffffffffffffffffffffffffffff1673ffffffffffffffffffffffffffffffffffffffff16815260200190815260200160002060020160049054906101000a900460ff16610638576040517f08c379a000000000000000000000000000000000000000000000000000000000815260040161062f9061272a565b60405180910390fd5b60006002811115610672577f4e487b7100000000000000000000000000000000000000000000000000000000600052602160045260246000fd5b600260008373ffffffffffffffffffffffffffffffffffffffff1673ffffffffffffffffffffffffffffffffffffffff16815260200190815260200160002060020160009054906101000a900460ff1660028111156106fa577f4e487b7100000000000000000000000000000000000000000000000000000000600052602160045260246000fd5b14156107d5576001600260008373ffffffffffffffffffffffffffffffffffffffff1673ffffffffffffffffffffffffffffffffffffffff16815260200190815260200160002060020160046101000a81548160ff0219169083151502179055507f2110f09626d4d6ae48b8b2a2d3a8d306a89b036573e86bcae3dcf6bc482026e6600260008373ffffffffffffffffffffffffffffffffffffffff1673ffffffffffffffffffffffffffffffffffffffff1681526020019081526020016000206040516107c8919061276c565b60405180910390a1610b0c565b6001600281111561080f577f4e487b7100000000000000000000000000000000000000000000000000000000600052602160045260246000fd5b600260008373ffffffffffffffffffffffffffffffffffffffff1673ffffffffffffffffffffffffffffffffffffffff16815260200190815260200160002060020160009054906101000a900460ff166002811115610897577f4e487b7100000000000000000000000000000000000000000000000000000000600052602160045260246000fd5b1415610972576001600260008373ffffffffffffffffffffffffffffffffffffffff1673ffffffffffffffffffffffffffffffffffffffff16815260200190815260200160002060020160026101000a81548160ff0219169083151502179055507f35e48aa229a688101b862048a0ec9693811f9347aad6dde7efd70ffa54ce966e600260008373ffffffffffffffffffffffffffffffffffffffff1673ffffffffffffffffffffffffffffffffffffffff168152602001908152602001600020604051610965919061276c565b60405180910390a1610b0b565b6002808111156109ab577f4e487b7100000000000000000000000000000000000000000000000000000000600052602160045260246000fd5b600260008373ffffffffffffffffffffffffffffffffffffffff1673ffffffffffffffffffffffffffffffffffffffff16815260200190815260200160002060020160009054906101000a900460ff166002811115610a33577f4e487b7100000000000000000000000000000000000000000000000000000000600052602160045260246000fd5b1415610b0a576001600260008373ffffffffffffffffffffffffffffffffffffffff1673ffffffffffffffffffffffffffffffffffffffff16815260200190815260200160002060020160036101000a81548160ff0219169083151502179055507f7b1cd288c9adf0b98210588388acddb231cd5230a7ba6336e1113697d953e946600260008373ffffffffffffffffffffffffffffffffffffffff1673ffffffffffffffffffffffffffffffffffffffff168152602001908152602001600020604051610b01919061276c565b60405180910390a15b5b5b50565b600260003373ffffffffffffffffffffffffffffffffffffffff1673ffffffffffffffffffffffffffffffffffffffff16815260200190815260200160002060020160019054906101000a900460ff1615610b9f576040517f08c379a0000000000000000000000000000000000000000000000000000000008152600401610b969061270a565b60405180910390fd5b6000600260003373ffffffffffffffffffffffffffffffffffffffff1673ffffffffffffffffffffffffffffffffffffffff1681526020019081526020016000209050338160000160006101000a81548173ffffffffffffffffffffffffffffffffffffffff021916908373ffffffffffffffffffffffffffffffffffffffff16021790555081816001019080519060200190610c3d929190611b75565b5060008160020160006101000a81548160ff02191690836002811115610c8c577f4e487b7100000000000000000000000000000000000000000000000000000000600052602160045260246000fd5b021790555060018160020160016101000a81548160ff02191690831515021790555060008160020160026101000a81548160ff02191690831515021790555060008160020160036101000a81548160ff02191690831515021790555060008160020160046101000a81548160ff0219169083151502179055507f18678ac23c07e28bbb47337f12e0dbe922dd98780f9e64bf12382e82cf35580181604051610d34919061278e565b60405180910390a15050565b3373ffffffffffffffffffffffffffffffffffffffff1660008054906101000a900473ffffffffffffffffffffffffffffffffffffffff1673ffffffffffffffffffffffffffffffffffffffff1614610dce576040517f08c379a0000000000000000000000000000000000000000000000000000000008152600401610dc5906126ca565b60405180910390fd5b60006002811115610e08577f4e487b7100000000000000000000000000000000000000000000000000000000600052602160045260246000fd5b600260008373ffffffffffffffffffffffffffffffffffffffff1673ffffffffffffffffffffffffffffffffffffffff16815260200190815260200160002060020160009054906101000a900460ff166002811115610e90577f4e487b7100000000000000000000000000000000000000000000000000000000600052602160045260246000fd5b1415610ef2576001600260008373ffffffffffffffffffffffffffffffffffffffff1673ffffffffffffffffffffffffffffffffffffffff16815260200190815260200160002060020160046101000a81548160ff0219169083151502179055505b50565b600260003373ffffffffffffffffffffffffffffffffffffffff1673ffffffffffffffffffffffffffffffffffffffff16815260200190815260200160002060020160019054906101000a900460ff1615610f85576040517f08c379a0000000000000000000000000000000000000000000000000000000008152600401610f7c9061270a565b60405180910390fd5b6000600260003373ffffffffffffffffffffffffffffffffffffffff1673ffffffffffffffffffffffffffffffffffffffff1681526020019081526020016000209050338160000160006101000a81548173ffffffffffffffffffffffffffffffffffffffff021916908373ffffffffffffffffffffffffffffffffffffffff16021790555081816001019080519060200190611023929190611b75565b5060028160020160006101000a81548160ff02191690836002811115611072577f4e487b7100000000000000000000000000000000000000000000000000000000600052602160045260246000fd5b021790555060018160020160016101000a81548160ff02191690831515021790555060008160020160026101000a81548160ff02191690831515021790555060008160020160036101000a81548160ff02191690831515021790555060008160020160046101000a81548160ff021916908315150217905550600081600301819055507f80dbbc28518b386553d0559d585d52503b9de0bd718337a8e6cca803c4806fea81604051611124919061278e565b60405180910390a15050565b60008060009054906101000a900473ffffffffffffffffffffffffffffffffffffffff16905090565b60026020528060005260406000206000915090508060000160009054906101000a900473ffffffffffffffffffffffffffffffffffffffff16908060010180546111a290612a21565b80601f01602080910402602001604051908101604052809291908181526020018280546111ce90612a21565b801561121b5780601f106111f05761010080835404028352916020019161121b565b820191906000526020600020905b8154815290600101906020018083116111fe57829003601f168201915b5050505050908060020160009054906101000a900460ff16908060020160019054906101000a900460ff16908060020160029054906101000a900460ff16908060020160039054906101000a900460ff16908060020160049054906101000a900460ff16908060030154905088565b60008054906101000a900473ffffffffffffffffffffffffffffffffffffffff1681565b600260003373ffffffffffffffffffffffffffffffffffffffff1673ffffffffffffffffffffffffffffffffffffffff16815260200190815260200160002060020160019054906101000a900460ff161561133e576040517f08c379a00000000000000000000000000000000000000000000000000000000081526004016113359061270a565b60405180910390fd5b6000600260003373ffffffffffffffffffffffffffffffffffffffff1673ffffffffffffffffffffffffffffffffffffffff1681526020019081526020016000209050338160000160006101000a81548173ffffffffffffffffffffffffffffffffffffffff021916908373ffffffffffffffffffffffffffffffffffffffff160217905550818160010190805190602001906113dc929190611b75565b5060018160020160006101000a81548160ff0219169083600281111561142b577f4e487b7100000000000000000000000000000000000000000000000000000000600052602160045260246000fd5b021790555060018160020160016101000a81548160ff02191690831515021790555060008160020160026101000a81548160ff02191690831515021790555060008160020160036101000a81548160ff02191690831515021790555060008160020160046101000a81548160ff0219169083151502179055507f81836adbb63de69dce57aed2b6fd9714df77f5873b39bf500ec34dc5e5a4bbdb816040516114d3919061278e565b60405180910390a15050565b6114e7611bfb565b600260003373ffffffffffffffffffffffffffffffffffffffff1673ffffffffffffffffffffffffffffffffffffffff16815260200190815260200160002060020160039054906101000a900460ff16611576576040517f08c379a000000000000000000000000000000000000000000000000000000000815260040161156d906126ea565b60405180910390fd5b600260003373ffffffffffffffffffffffffffffffffffffffff1673ffffffffffffffffffffffffffffffffffffffff16815260200190815260200160002060040182815481106115f0577f4e487b7100000000000000000000000000000000000000000000000000000000600052603260045260246000fd5b9060005260206000209060030201604051806060016040529081600082015481526020016001820160009054906101000a900473ffffffffffffffffffffffffffffffffffffffff1673ffffffffffffffffffffffffffffffffffffffff1673ffffffffffffffffffffffffffffffffffffffff1681526020016002820154815250509050919050565b600260003373ffffffffffffffffffffffffffffffffffffffff1673ffffffffffffffffffffffffffffffffffffffff16815260200190815260200160002060020160039054906101000a900460ff16611709576040517f08c379a0000000000000000000000000000000000000000000000000000000008152600401611700906126ea565b60405180910390fd5b60006040518060800160405280868152602001858152602001848152602001838152509050600260003373ffffffffffffffffffffffffffffffffffffffff1673ffffffffffffffffffffffffffffffffffffffff16815260200190815260200160002060050181908060018154018082558091505060019003906000526020600020906004020160009091909190915060008201518160000190805190602001906117b6929190611b75565b5060208201518160010190805190602001906117d3929190611b75565b50604082015181600201556060820151816003015550507f7058516056f92f6e7765a333be422d27865510565de1b5a67e667d4c585138f781604051611819919061274a565b60405180910390a15050505050565b600260003373ffffffffffffffffffffffffffffffffffffffff1673ffffffffffffffffffffffffffffffffffffffff16815260200190815260200160002060020160029054906101000a900460ff166118b7576040517f08c379a00000000000000000000000000000000000000000000000000000000081526004016118ae906126aa565b60405180910390fd5b600260008373ffffffffffffffffffffffffffffffffffffffff1673ffffffffffffffffffffffffffffffffffffffff16815260200190815260200160002060020160039054906101000a900460ff1661191057600080fd5b6000600260008473ffffffffffffffffffffffffffffffffffffffff1673ffffffffffffffffffffffffffffffffffffffff168152602001908152602001600020600301549050600060405180606001604052808381526020013373ffffffffffffffffffffffffffffffffffffffff168152602001848152509050600260008573ffffffffffffffffffffffffffffffffffffffff1673ffffffffffffffffffffffffffffffffffffffff1681526020019081526020016000206004018190806001815401808255809150506001900390600052602060002090600302016000909190919091506000820151816000015560208201518160010160006101000a81548173ffffffffffffffffffffffffffffffffffffffff021916908373ffffffffffffffffffffffffffffffffffffffff16021790555060408201518160020155505081611a5f90612b09565b915081600260008673ffffffffffffffffffffffffffffffffffffffff1673ffffffffffffffffffffffffffffffffffffffff168152602001908152602001600020600301819055507fba910960b67d997430413a8491c25a9bd30e767082524f5a4c398d28d1f1c72e8185604051611ad99291906127cb565b60405180910390a150505050565b60018054611af490612a21565b80601f0160208091040260200160405190810160405280929190818152602001828054611b2090612a21565b8015611b6d5780601f10611b4257610100808354040283529160200191611b6d565b820191906000526020600020905b815481529060010190602001808311611b5057829003601f168201915b505050505081565b828054611b8190612a21565b90600052602060002090601f016020900481019282611ba35760008555611bea565b82601f10611bbc57805160ff1916838001178555611bea565b82800160010185558215611bea579182015b82811115611be9578251825591602001919060010190611bce565b5b509050611bf79190611c32565b5090565b604051806060016040528060008152602001600073ffffffffffffffffffffffffffffffffffffffff168152602001600081525090565b5b80821115611c4b576000816000905550600101611c33565b5090565b6000611c62611c5d84612840565b61280f565b905082815260208101848484011115611c7a57600080fd5b611c858482856129df565b509392505050565b600081359050611c9c81612c74565b92915050565b600082601f830112611cb357600080fd5b8135611cc3848260208601611c4f565b91505092915050565b600081359050611cdb81612c8b565b92915050565b600060208284031215611cf357600080fd5b6000611d0184828501611c8d565b91505092915050565b60008060408385031215611d1d57600080fd5b6000611d2b85828601611c8d565b9250506020611d3c85828601611ccc565b9150509250929050565b600060208284031215611d5857600080fd5b600082013567ffffffffffffffff811115611d7257600080fd5b611d7e84828501611ca2565b91505092915050565b60008060008060808587031215611d9d57600080fd5b600085013567ffffffffffffffff811115611db757600080fd5b611dc387828801611ca2565b945050602085013567ffffffffffffffff811115611de057600080fd5b611dec87828801611ca2565b9350506040611dfd87828801611ccc565b9250506060611e0e87828801611ccc565b91505092959194509250565b600060208284031215611e2c57600080fd5b6000611e3a84828501611ccc565b91505092915050565b6000611e4f838361225c565b905092915050565b6000611e63838361254a565b60608301905092915050565b611e7881612972565b82525050565b611e8781612972565b82525050565b6000611e98826128af565b611ea281856128ea565b935083602082028501611eb485612870565b8060005b85811015611eef57848403895281611ed08582611e43565b9450611edb836128d0565b925060208a01995050600181019050611eb8565b50829750879550505050505092915050565b6000611f0c826128ba565b611f1681856128fb565b9350611f2183612885565b8060005b83811015611f515781611f388882611e57565b9750611f43836128dd565b925050600181019050611f25565b5085935050505092915050565b611f6781612984565b82525050565b611f7681612984565b82525050565b611f85816129cd565b82525050565b611f94816129cd565b82525050565b6000611fa5826128c5565b611faf818561290c565b9350611fbf8185602086016129ee565b611fc881612c0e565b840191505092915050565b6000611fde826128c5565b611fe8818561291d565b9350611ff88185602086016129ee565b61200181612c0e565b840191505092915050565b6000815461201981612a21565b612023818661290c565b9450600182166000811461203e576001811461205057612083565b60ff1983168652602086019350612083565b6120598561289a565b60005b8381101561207b5781548189015260018201915060208101905061205c565b808801955050505b50505092915050565b600061209960108361291d565b91507f4d757374206265206120646f63746f72000000000000000000000000000000006000830152602082019050919050565b60006120d960108361291d565b91507f4d75737420626520616e206f776e6572000000000000000000000000000000006000830152602082019050919050565b600061211960118361291d565b91507f4d75737420626520612070617469656e740000000000000000000000000000006000830152602082019050919050565b600061215960198361291d565b91507f506572736f6e20616c72656164792072656769737465726564000000000000006000830152602082019050919050565b600061219960218361291d565b91507f4d757374206265206120726567756c61746f7279206167656e63792061646d6960008301527f6e000000000000000000000000000000000000000000000000000000000000006020830152604082019050919050565b6000608083016000830151848203600086015261220f8282611f9a565b915050602083015184820360208601526122298282611f9a565b915050604083015161223e60408601826125af565b50606083015161225160608601826125af565b508091505092915050565b60006080830160008084018583036000870152612279838261200c565b925050600184018583036020870152612292838261200c565b925050600284015490506122a581612a87565b6122b260408701826125af565b50600384015490506122c381612a87565b6122d060608701826125af565b50819250505092915050565b6000610140830160008084015490506122f481612a53565b6123016000870182611e6f565b50600184018583036020870152612318838261200c565b9250506002840154905061232b81612a6d565b6123386040870182611f7c565b5061234281612aa1565b61234f6060870182611f5e565b5061235981612abb565b6123666080870182611f5e565b5061237081612ad5565b61237d60a0870182611f5e565b5061238781612aef565b61239460c0870182611f5e565b50600384015490506123a581612a87565b6123b260e08701826125af565b50600484018583036101008701526123ca8382611f01565b925050600584018583036101208701526123e48382611e8d565b925050819250505092915050565b60006101408301600080840154905061240a81612a53565b6124176000870182611e6f565b5060018401858303602087015261242e838261200c565b9250506002840154905061244181612a6d565b61244e6040870182611f7c565b5061245881612aa1565b6124656060870182611f5e565b5061246f81612abb565b61247c6080870182611f5e565b5061248681612ad5565b61249360a0870182611f5e565b5061249d81612aef565b6124aa60c0870182611f5e565b50600384015490506124bb81612a87565b6124c860e08701826125af565b50600484018583036101008701526124e08382611f01565b925050600584018583036101208701526124fa8382611e8d565b925050819250505092915050565b60608201600082015161251e60008501826125af565b5060208201516125316020850182611e6f565b50604082015161254460408501826125af565b50505050565b60608201600080830154905061255f81612a87565b61256c60008601826125af565b506001830154905061257d81612a53565b61258a6020860182611e6f565b506002830154905061259b81612a87565b6125a860408601826125af565b5050505050565b6125b8816129c3565b82525050565b6125c7816129c3565b82525050565b60006020820190506125e26000830184611e7e565b92915050565b6000610100820190506125fe600083018b611e7e565b8181036020830152612610818a611fd3565b905061261f6040830189611f8b565b61262c6060830188611f6d565b6126396080830187611f6d565b61264660a0830186611f6d565b61265360c0830185611f6d565b61266060e08301846125be565b9998505050505050505050565b60006020820190506126826000830184611f6d565b92915050565b600060208201905081810360008301526126a28184611fd3565b905092915050565b600060208201905081810360008301526126c38161208c565b9050919050565b600060208201905081810360008301526126e3816120cc565b9050919050565b600060208201905081810360008301526127038161210c565b9050919050565b600060208201905081810360008301526127238161214c565b9050919050565b600060208201905081810360008301526127438161218c565b9050919050565b6000602082019050818103600083015261276481846121f2565b905092915050565b6000602082019050818103600083015261278681846123f2565b905092915050565b600060208201905081810360008301526127a881846122dc565b905092915050565b60006060820190506127c56000830184612508565b92915050565b60006080820190506127e06000830185612508565b6127ed6060830184611e7e565b9392505050565b600060208201905061280960008301846125be565b92915050565b6000604051905081810181811067ffffffffffffffff8211171561283657612835612bdf565b5b8060405250919050565b600067ffffffffffffffff82111561285b5761285a612bdf565b5b601f19601f8301169050602081019050919050565b60008190508160005260206000209050919050565b60008190508160005260206000209050919050565b60008190508160005260206000209050919050565b600081549050919050565b600081549050919050565b600081519050919050565b6000600482019050919050565b6000600382019050919050565b600082825260208201905092915050565b600082825260208201905092915050565b600082825260208201905092915050565b600082825260208201905092915050565b600073ffffffffffffffffffffffffffffffffffffffff82169050919050565b600060ff82169050919050565b600060ff82169050919050565b6000819050919050565b600061297d826129a3565b9050919050565b60008115159050919050565b600081905061299e82612c60565b919050565b600073ffffffffffffffffffffffffffffffffffffffff82169050919050565b6000819050919050565b60006129d882612990565b9050919050565b82818337600083830152505050565b60005b83811015612a0c5780820151818401526020810190506129f1565b83811115612a1b576000848401525b50505050565b60006002820490506001821680612a3957607f821691505b60208210811415612a4d57612a4c612bb0565b5b50919050565b6000612a66612a6183612c1f565b61292e565b9050919050565b6000612a80612a7b83612c1f565b61295b565b9050919050565b6000612a9a612a9583612c1f565b612968565b9050919050565b6000612ab4612aaf83612c53565b61294e565b9050919050565b6000612ace612ac983612c2c565b61294e565b9050919050565b6000612ae8612ae383612c39565b61294e565b9050919050565b6000612b02612afd83612c46565b61294e565b9050919050565b6000612b14826129c3565b91507fffffffffffffffffffffffffffffffffffffffffffffffffffffffffffffffff821415612b4757612b46612b52565b5b600182019050919050565b7f4e487b7100000000000000000000000000000000000000000000000000000000600052601160045260246000fd5b7f4e487b7100000000000000000000000000000000000000000000000000000000600052602160045260246000fd5b7f4e487b7100000000000000000000000000000000000000000000000000000000600052602260045260246000fd5b7f4e487b7100000000000000000000000000000000000000000000000000000000600052604160045260246000fd5b6000601f19601f8301169050919050565b60008160001c9050919050565b60008160101c9050919050565b60008160181c9050919050565b60008160201c9050919050565b60008160081c9050919050565b60038110612c7157612c70612b81565b5b50565b612c7d81612972565b8114612c8857600080fd5b50565b612c94816129c3565b8114612c9f57600080fd5b5056fea2646970667358221220cd0dffe057ddb6dc6391ea259b827d6ddcccfb077bd10ca0affb9977a452b8a564736f6c63430008000033",
  "immutableReferences": {},
  "source": "// SPDX-License-Identifier: MIT\npragma solidity >=0.7.0 <0.9.0;\n\ncontract EHRSC {\n    address public owner;\n    string public functionCalled;\n\n    mapping(address => Person) public persons;\n\n    enum EntityClaim {\n        REGULATORY_AGENCY_ADMIN,\n        DOCTOR,\n        PATIENT\n    }\n\n    event DoctorRegistered(Person doctor);\n    event PatientRegistered(Person patient);\n    event RegulatoryAgencyAdminRegistered(Person regulatoryAgencyAdmin);\n    event DoctorVerified(Person doctor);\n    event PatientVerified(Person patient);\n    event RegulatorAgencyAdminVerified(Person regulatoryAgencyAdmin);\n    event RequestedDocuments(Request newRequest, address patientAddress);\n    event RequestedAppointment(Appointment newAppointment);\n\n    struct Appointment {\n        string reason;\n        string venue;\n        uint256 date;\n        uint256 time;\n    }\n\n    struct Person {\n        address personAddress;\n        string name;\n        EntityClaim entityClaim;\n        bool registered;\n        bool verifiedDoctor;\n        bool verifiedPatient;\n        bool verifiedRegulatoryAgencyAdmin;\n        uint256 requestCount;\n        Request[] requests;\n        Appointment[] appointments;\n        // mapping(uint256 => HealthRecord) healthRecords;\n    }\n\n    struct Request {\n        uint256 requestNo;\n        address requester;\n        uint256 bundleNumber;\n    }\n\n    // struct RegulatoryAgencyAdmin {}\n    // struct HealthRecord {}\n    // struct Hospital {}\n\n    modifier onlyDoctor() {\n        require(persons[msg.sender].verifiedDoctor, \"Must be a doctor\");\n        _;\n    }\n\n    modifier onlyPatient() {\n        require(persons[msg.sender].verifiedPatient, \"Must be a patient\");\n        _;\n    }\n\n    modifier onlyOwner() {\n        require(owner == msg.sender, \"Must be an owner\");\n        _;\n    }\n\n    modifier onlyRegulatoryAgencyAdmin() {\n        require(\n            persons[msg.sender].verifiedRegulatoryAgencyAdmin,\n            \"Must be a regulatory agency admin\"\n        );\n        _;\n    }\n\n    modifier onlyRegistered() {\n        require(!persons[msg.sender].registered, \"Person already registered\");\n        _;\n    }\n\n    constructor() {\n        owner = msg.sender;\n    }\n\n    function registerDoctor(string memory _name) public onlyRegistered {\n        Person storage doctor = persons[msg.sender];\n        doctor.personAddress = msg.sender;\n        doctor.name = _name;\n        doctor.entityClaim = EntityClaim.DOCTOR;\n        doctor.registered = true;\n        doctor.verifiedDoctor = false;\n        doctor.verifiedPatient = false;\n        doctor.verifiedRegulatoryAgencyAdmin = false;\n        // gender, email, nationality, etc.\n        emit DoctorRegistered(doctor);\n    }\n\n    function registerPatient(string memory _name) public onlyRegistered {\n        Person storage patient = persons[msg.sender];\n        patient.personAddress = msg.sender;\n        patient.name = _name;\n        patient.entityClaim = EntityClaim.PATIENT;\n        patient.registered = true;\n        patient.verifiedDoctor = false;\n        patient.verifiedPatient = false;\n        patient.verifiedRegulatoryAgencyAdmin = false;\n        patient.requestCount = 0;\n        // patient info\n        // IC for locals / passport for foreigners\n        // contact and home address\n        // related contacts\n        // employment details\n        emit PatientRegistered(patient);\n    }\n\n    function registerRegulatoryAgencyAdmin(string memory _name)\n        public\n        onlyRegistered\n    {\n        Person storage regulatoryAgencyAdmin = persons[msg.sender];\n        regulatoryAgencyAdmin.personAddress = msg.sender;\n        regulatoryAgencyAdmin.name = _name;\n        regulatoryAgencyAdmin.entityClaim = EntityClaim.REGULATORY_AGENCY_ADMIN;\n        regulatoryAgencyAdmin.registered = true;\n        regulatoryAgencyAdmin.verifiedDoctor = false;\n        regulatoryAgencyAdmin.verifiedPatient = false;\n        regulatoryAgencyAdmin.verifiedRegulatoryAgencyAdmin = false;\n        emit RegulatoryAgencyAdminRegistered(regulatoryAgencyAdmin);\n    }\n\n    function getName() public view returns (string memory) {\n        return persons[msg.sender].name;\n    }\n\n    function isVerifiedDoctor() public view returns (bool) {\n        return persons[msg.sender].verifiedDoctor;\n    }\n\n    function isVerifiedPatient() public view returns (bool) {\n        return persons[msg.sender].verifiedPatient;\n    }\n\n    function requestDocuments(address _patientAddress, uint256 _bundleNumber)\n        public\n        onlyDoctor\n    {\n        require(persons[_patientAddress].verifiedPatient); // TODO: check document must exist\n        uint256 count = persons[_patientAddress].requestCount; // tracking request count\n        Request memory newRequest = Request(count, msg.sender, _bundleNumber);\n        persons[_patientAddress].requests.push(newRequest);\n        persons[_patientAddress].requestCount = ++count;\n        emit RequestedDocuments(newRequest, _patientAddress);\n    }\n\n    function checkPatientRequestCount()\n        public\n        view\n        onlyPatient\n        returns (uint256)\n    {\n        return persons[msg.sender].requestCount;\n    }\n\n    function checkPatientRequestAtIndex(uint256 index)\n        public\n        view\n        onlyPatient\n        returns (Request memory)\n    {\n        return persons[msg.sender].requests[index];\n    }\n\n    function requestAppointment(\n        string memory _reason,\n        string memory _venue,\n        uint256 _date,\n        uint256 _time\n    ) public onlyPatient {\n        Appointment memory newAppointment = Appointment(\n            _reason,\n            _venue,\n            _date,\n            _time\n        );\n        persons[msg.sender].appointments.push(newAppointment);\n        emit RequestedAppointment(newAppointment);\n    }\n\n    function verifyByOwner(address _personAddress) public onlyOwner {\n        if (\n            persons[_personAddress].entityClaim ==\n            EntityClaim.REGULATORY_AGENCY_ADMIN\n        ) {\n            persons[_personAddress].verifiedRegulatoryAgencyAdmin = true;\n        }\n    }\n\n    function getOwner() public view returns (address) {\n        return owner;\n    }\n\n    function regulatoryAgencyAdminVerify(address _personAddress)\n        public\n        onlyRegulatoryAgencyAdmin\n    {\n        if (\n            persons[_personAddress].entityClaim ==\n            EntityClaim.REGULATORY_AGENCY_ADMIN\n        ) {\n            persons[_personAddress].verifiedRegulatoryAgencyAdmin = true;\n            emit RegulatorAgencyAdminVerified(persons[_personAddress]);\n        } else if (persons[_personAddress].entityClaim == EntityClaim.DOCTOR) {\n            persons[_personAddress].verifiedDoctor = true;\n            emit DoctorVerified(persons[_personAddress]);\n        } else if (persons[_personAddress].entityClaim == EntityClaim.PATIENT) {\n            persons[_personAddress].verifiedPatient = true;\n            emit PatientVerified(persons[_personAddress]);\n        }\n    }\n\n    fallback() external {\n        functionCalled = \"fallback\";\n    }\n\n    // TODO: function: Patient allow access to doctor or send re-encryption keys to NuCypher network\n}\n",
  "sourcePath": "/mnt/c/Users/assid/Workspace/EHR-Besu/contracts/EHRSC.sol",
  "compiler": {
    "name": "solc",
    "version": "0.8.0+commit.c7dfd78e.Emscripten.clang"
  },
  "schemaVersion": "3.4.3",
  "updatedAt": "2021-10-07T10:48:38.697Z",
  "networkType": "ethereum",
  "devdoc": {
    "kind": "dev",
    "methods": {},
    "version": 1
  },
  "userdoc": {
    "kind": "user",
    "methods": {},
    "version": 1
  }
}