{
  "contractName": "EHRSC",
  "abi": [
    {
      "inputs": [],
      "stateMutability": "nonpayable",
      "type": "constructor"
    },
    {
      "anonymous": false,
      "inputs": [
        {
          "components": [
            {
              "internalType": "address",
              "name": "personAddress",
              "type": "address"
            },
            {
              "internalType": "string",
              "name": "name",
              "type": "string"
            },
            {
              "internalType": "enum EHRSC.EntityClaim",
              "name": "entityClaim",
              "type": "uint8"
            },
            {
              "internalType": "bool",
              "name": "registered",
              "type": "bool"
            },
            {
              "internalType": "bool",
              "name": "verifiedDoctor",
              "type": "bool"
            },
            {
              "internalType": "bool",
              "name": "verifiedPatient",
              "type": "bool"
            },
            {
              "internalType": "bool",
              "name": "verifiedRegulatoryAgencyAdmin",
              "type": "bool"
            },
            {
              "internalType": "bool",
              "name": "verifiedInsuranceCompanyAdmin",
              "type": "bool"
            },
            {
              "internalType": "uint256",
              "name": "requestCount",
              "type": "uint256"
            },
            {
              "components": [
                {
                  "internalType": "uint256",
                  "name": "requestNo",
                  "type": "uint256"
                },
                {
                  "internalType": "address",
                  "name": "requester",
                  "type": "address"
                },
                {
                  "internalType": "uint256",
                  "name": "bundleNumber",
                  "type": "uint256"
                }
              ],
              "internalType": "struct EHRSC.Request[]",
              "name": "requests",
              "type": "tuple[]"
            },
            {
              "components": [
                {
                  "internalType": "string",
                  "name": "reason",
                  "type": "string"
                },
                {
                  "internalType": "string",
                  "name": "venue",
                  "type": "string"
                },
                {
                  "internalType": "uint256",
                  "name": "date",
                  "type": "uint256"
                },
                {
                  "internalType": "uint256",
                  "name": "time",
                  "type": "uint256"
                }
              ],
              "internalType": "struct EHRSC.Appointment[]",
              "name": "appointments",
              "type": "tuple[]"
            }
          ],
          "indexed": false,
          "internalType": "struct EHRSC.Person",
          "name": "doctor",
          "type": "tuple"
        }
      ],
      "name": "DoctorRegistered",
      "type": "event"
    },
    {
      "anonymous": false,
      "inputs": [
        {
          "components": [
            {
              "internalType": "address",
              "name": "personAddress",
              "type": "address"
            },
            {
              "internalType": "string",
              "name": "name",
              "type": "string"
            },
            {
              "internalType": "enum EHRSC.EntityClaim",
              "name": "entityClaim",
              "type": "uint8"
            },
            {
              "internalType": "bool",
              "name": "registered",
              "type": "bool"
            },
            {
              "internalType": "bool",
              "name": "verifiedDoctor",
              "type": "bool"
            },
            {
              "internalType": "bool",
              "name": "verifiedPatient",
              "type": "bool"
            },
            {
              "internalType": "bool",
              "name": "verifiedRegulatoryAgencyAdmin",
              "type": "bool"
            },
            {
              "internalType": "bool",
              "name": "verifiedInsuranceCompanyAdmin",
              "type": "bool"
            },
            {
              "internalType": "uint256",
              "name": "requestCount",
              "type": "uint256"
            },
            {
              "components": [
                {
                  "internalType": "uint256",
                  "name": "requestNo",
                  "type": "uint256"
                },
                {
                  "internalType": "address",
                  "name": "requester",
                  "type": "address"
                },
                {
                  "internalType": "uint256",
                  "name": "bundleNumber",
                  "type": "uint256"
                }
              ],
              "internalType": "struct EHRSC.Request[]",
              "name": "requests",
              "type": "tuple[]"
            },
            {
              "components": [
                {
                  "internalType": "string",
                  "name": "reason",
                  "type": "string"
                },
                {
                  "internalType": "string",
                  "name": "venue",
                  "type": "string"
                },
                {
                  "internalType": "uint256",
                  "name": "date",
                  "type": "uint256"
                },
                {
                  "internalType": "uint256",
                  "name": "time",
                  "type": "uint256"
                }
              ],
              "internalType": "struct EHRSC.Appointment[]",
              "name": "appointments",
              "type": "tuple[]"
            }
          ],
          "indexed": false,
          "internalType": "struct EHRSC.Person",
          "name": "doctor",
          "type": "tuple"
        }
      ],
      "name": "DoctorVerified",
      "type": "event"
    },
    {
      "anonymous": false,
      "inputs": [
        {
          "components": [
            {
              "internalType": "address",
              "name": "personAddress",
              "type": "address"
            },
            {
              "internalType": "string",
              "name": "name",
              "type": "string"
            },
            {
              "internalType": "enum EHRSC.EntityClaim",
              "name": "entityClaim",
              "type": "uint8"
            },
            {
              "internalType": "bool",
              "name": "registered",
              "type": "bool"
            },
            {
              "internalType": "bool",
              "name": "verifiedDoctor",
              "type": "bool"
            },
            {
              "internalType": "bool",
              "name": "verifiedPatient",
              "type": "bool"
            },
            {
              "internalType": "bool",
              "name": "verifiedRegulatoryAgencyAdmin",
              "type": "bool"
            },
            {
              "internalType": "bool",
              "name": "verifiedInsuranceCompanyAdmin",
              "type": "bool"
            },
            {
              "internalType": "uint256",
              "name": "requestCount",
              "type": "uint256"
            },
            {
              "components": [
                {
                  "internalType": "uint256",
                  "name": "requestNo",
                  "type": "uint256"
                },
                {
                  "internalType": "address",
                  "name": "requester",
                  "type": "address"
                },
                {
                  "internalType": "uint256",
                  "name": "bundleNumber",
                  "type": "uint256"
                }
              ],
              "internalType": "struct EHRSC.Request[]",
              "name": "requests",
              "type": "tuple[]"
            },
            {
              "components": [
                {
                  "internalType": "string",
                  "name": "reason",
                  "type": "string"
                },
                {
                  "internalType": "string",
                  "name": "venue",
                  "type": "string"
                },
                {
                  "internalType": "uint256",
                  "name": "date",
                  "type": "uint256"
                },
                {
                  "internalType": "uint256",
                  "name": "time",
                  "type": "uint256"
                }
              ],
              "internalType": "struct EHRSC.Appointment[]",
              "name": "appointments",
              "type": "tuple[]"
            }
          ],
          "indexed": false,
          "internalType": "struct EHRSC.Person",
          "name": "insuranceCompanyAdmin",
          "type": "tuple"
        }
      ],
      "name": "InsuranceCompanyAdminRegistered",
      "type": "event"
    },
    {
      "anonymous": false,
      "inputs": [
        {
          "components": [
            {
              "internalType": "address",
              "name": "personAddress",
              "type": "address"
            },
            {
              "internalType": "string",
              "name": "name",
              "type": "string"
            },
            {
              "internalType": "enum EHRSC.EntityClaim",
              "name": "entityClaim",
              "type": "uint8"
            },
            {
              "internalType": "bool",
              "name": "registered",
              "type": "bool"
            },
            {
              "internalType": "bool",
              "name": "verifiedDoctor",
              "type": "bool"
            },
            {
              "internalType": "bool",
              "name": "verifiedPatient",
              "type": "bool"
            },
            {
              "internalType": "bool",
              "name": "verifiedRegulatoryAgencyAdmin",
              "type": "bool"
            },
            {
              "internalType": "bool",
              "name": "verifiedInsuranceCompanyAdmin",
              "type": "bool"
            },
            {
              "internalType": "uint256",
              "name": "requestCount",
              "type": "uint256"
            },
            {
              "components": [
                {
                  "internalType": "uint256",
                  "name": "requestNo",
                  "type": "uint256"
                },
                {
                  "internalType": "address",
                  "name": "requester",
                  "type": "address"
                },
                {
                  "internalType": "uint256",
                  "name": "bundleNumber",
                  "type": "uint256"
                }
              ],
              "internalType": "struct EHRSC.Request[]",
              "name": "requests",
              "type": "tuple[]"
            },
            {
              "components": [
                {
                  "internalType": "string",
                  "name": "reason",
                  "type": "string"
                },
                {
                  "internalType": "string",
                  "name": "venue",
                  "type": "string"
                },
                {
                  "internalType": "uint256",
                  "name": "date",
                  "type": "uint256"
                },
                {
                  "internalType": "uint256",
                  "name": "time",
                  "type": "uint256"
                }
              ],
              "internalType": "struct EHRSC.Appointment[]",
              "name": "appointments",
              "type": "tuple[]"
            }
          ],
          "indexed": false,
          "internalType": "struct EHRSC.Person",
          "name": "insuranceCompanyAdmin",
          "type": "tuple"
        }
      ],
      "name": "InsuranceCompanyAdminVerified",
      "type": "event"
    },
    {
      "anonymous": false,
      "inputs": [
        {
          "components": [
            {
              "internalType": "address",
              "name": "personAddress",
              "type": "address"
            },
            {
              "internalType": "string",
              "name": "name",
              "type": "string"
            },
            {
              "internalType": "enum EHRSC.EntityClaim",
              "name": "entityClaim",
              "type": "uint8"
            },
            {
              "internalType": "bool",
              "name": "registered",
              "type": "bool"
            },
            {
              "internalType": "bool",
              "name": "verifiedDoctor",
              "type": "bool"
            },
            {
              "internalType": "bool",
              "name": "verifiedPatient",
              "type": "bool"
            },
            {
              "internalType": "bool",
              "name": "verifiedRegulatoryAgencyAdmin",
              "type": "bool"
            },
            {
              "internalType": "bool",
              "name": "verifiedInsuranceCompanyAdmin",
              "type": "bool"
            },
            {
              "internalType": "uint256",
              "name": "requestCount",
              "type": "uint256"
            },
            {
              "components": [
                {
                  "internalType": "uint256",
                  "name": "requestNo",
                  "type": "uint256"
                },
                {
                  "internalType": "address",
                  "name": "requester",
                  "type": "address"
                },
                {
                  "internalType": "uint256",
                  "name": "bundleNumber",
                  "type": "uint256"
                }
              ],
              "internalType": "struct EHRSC.Request[]",
              "name": "requests",
              "type": "tuple[]"
            },
            {
              "components": [
                {
                  "internalType": "string",
                  "name": "reason",
                  "type": "string"
                },
                {
                  "internalType": "string",
                  "name": "venue",
                  "type": "string"
                },
                {
                  "internalType": "uint256",
                  "name": "date",
                  "type": "uint256"
                },
                {
                  "internalType": "uint256",
                  "name": "time",
                  "type": "uint256"
                }
              ],
              "internalType": "struct EHRSC.Appointment[]",
              "name": "appointments",
              "type": "tuple[]"
            }
          ],
          "indexed": false,
          "internalType": "struct EHRSC.Person",
          "name": "patient",
          "type": "tuple"
        }
      ],
      "name": "PatientRegistered",
      "type": "event"
    },
    {
      "anonymous": false,
      "inputs": [
        {
          "components": [
            {
              "internalType": "address",
              "name": "personAddress",
              "type": "address"
            },
            {
              "internalType": "string",
              "name": "name",
              "type": "string"
            },
            {
              "internalType": "enum EHRSC.EntityClaim",
              "name": "entityClaim",
              "type": "uint8"
            },
            {
              "internalType": "bool",
              "name": "registered",
              "type": "bool"
            },
            {
              "internalType": "bool",
              "name": "verifiedDoctor",
              "type": "bool"
            },
            {
              "internalType": "bool",
              "name": "verifiedPatient",
              "type": "bool"
            },
            {
              "internalType": "bool",
              "name": "verifiedRegulatoryAgencyAdmin",
              "type": "bool"
            },
            {
              "internalType": "bool",
              "name": "verifiedInsuranceCompanyAdmin",
              "type": "bool"
            },
            {
              "internalType": "uint256",
              "name": "requestCount",
              "type": "uint256"
            },
            {
              "components": [
                {
                  "internalType": "uint256",
                  "name": "requestNo",
                  "type": "uint256"
                },
                {
                  "internalType": "address",
                  "name": "requester",
                  "type": "address"
                },
                {
                  "internalType": "uint256",
                  "name": "bundleNumber",
                  "type": "uint256"
                }
              ],
              "internalType": "struct EHRSC.Request[]",
              "name": "requests",
              "type": "tuple[]"
            },
            {
              "components": [
                {
                  "internalType": "string",
                  "name": "reason",
                  "type": "string"
                },
                {
                  "internalType": "string",
                  "name": "venue",
                  "type": "string"
                },
                {
                  "internalType": "uint256",
                  "name": "date",
                  "type": "uint256"
                },
                {
                  "internalType": "uint256",
                  "name": "time",
                  "type": "uint256"
                }
              ],
              "internalType": "struct EHRSC.Appointment[]",
              "name": "appointments",
              "type": "tuple[]"
            }
          ],
          "indexed": false,
          "internalType": "struct EHRSC.Person",
          "name": "patient",
          "type": "tuple"
        }
      ],
      "name": "PatientVerified",
      "type": "event"
    },
    {
      "anonymous": false,
      "inputs": [
        {
          "components": [
            {
              "internalType": "address",
              "name": "personAddress",
              "type": "address"
            },
            {
              "internalType": "string",
              "name": "name",
              "type": "string"
            },
            {
              "internalType": "enum EHRSC.EntityClaim",
              "name": "entityClaim",
              "type": "uint8"
            },
            {
              "internalType": "bool",
              "name": "registered",
              "type": "bool"
            },
            {
              "internalType": "bool",
              "name": "verifiedDoctor",
              "type": "bool"
            },
            {
              "internalType": "bool",
              "name": "verifiedPatient",
              "type": "bool"
            },
            {
              "internalType": "bool",
              "name": "verifiedRegulatoryAgencyAdmin",
              "type": "bool"
            },
            {
              "internalType": "bool",
              "name": "verifiedInsuranceCompanyAdmin",
              "type": "bool"
            },
            {
              "internalType": "uint256",
              "name": "requestCount",
              "type": "uint256"
            },
            {
              "components": [
                {
                  "internalType": "uint256",
                  "name": "requestNo",
                  "type": "uint256"
                },
                {
                  "internalType": "address",
                  "name": "requester",
                  "type": "address"
                },
                {
                  "internalType": "uint256",
                  "name": "bundleNumber",
                  "type": "uint256"
                }
              ],
              "internalType": "struct EHRSC.Request[]",
              "name": "requests",
              "type": "tuple[]"
            },
            {
              "components": [
                {
                  "internalType": "string",
                  "name": "reason",
                  "type": "string"
                },
                {
                  "internalType": "string",
                  "name": "venue",
                  "type": "string"
                },
                {
                  "internalType": "uint256",
                  "name": "date",
                  "type": "uint256"
                },
                {
                  "internalType": "uint256",
                  "name": "time",
                  "type": "uint256"
                }
              ],
              "internalType": "struct EHRSC.Appointment[]",
              "name": "appointments",
              "type": "tuple[]"
            }
          ],
          "indexed": false,
          "internalType": "struct EHRSC.Person",
          "name": "regulatoryAgencyAdmin",
          "type": "tuple"
        }
      ],
      "name": "RegulatorAgencyAdminVerified",
      "type": "event"
    },
    {
      "anonymous": false,
      "inputs": [
        {
          "components": [
            {
              "internalType": "address",
              "name": "personAddress",
              "type": "address"
            },
            {
              "internalType": "string",
              "name": "name",
              "type": "string"
            },
            {
              "internalType": "enum EHRSC.EntityClaim",
              "name": "entityClaim",
              "type": "uint8"
            },
            {
              "internalType": "bool",
              "name": "registered",
              "type": "bool"
            },
            {
              "internalType": "bool",
              "name": "verifiedDoctor",
              "type": "bool"
            },
            {
              "internalType": "bool",
              "name": "verifiedPatient",
              "type": "bool"
            },
            {
              "internalType": "bool",
              "name": "verifiedRegulatoryAgencyAdmin",
              "type": "bool"
            },
            {
              "internalType": "bool",
              "name": "verifiedInsuranceCompanyAdmin",
              "type": "bool"
            },
            {
              "internalType": "uint256",
              "name": "requestCount",
              "type": "uint256"
            },
            {
              "components": [
                {
                  "internalType": "uint256",
                  "name": "requestNo",
                  "type": "uint256"
                },
                {
                  "internalType": "address",
                  "name": "requester",
                  "type": "address"
                },
                {
                  "internalType": "uint256",
                  "name": "bundleNumber",
                  "type": "uint256"
                }
              ],
              "internalType": "struct EHRSC.Request[]",
              "name": "requests",
              "type": "tuple[]"
            },
            {
              "components": [
                {
                  "internalType": "string",
                  "name": "reason",
                  "type": "string"
                },
                {
                  "internalType": "string",
                  "name": "venue",
                  "type": "string"
                },
                {
                  "internalType": "uint256",
                  "name": "date",
                  "type": "uint256"
                },
                {
                  "internalType": "uint256",
                  "name": "time",
                  "type": "uint256"
                }
              ],
              "internalType": "struct EHRSC.Appointment[]",
              "name": "appointments",
              "type": "tuple[]"
            }
          ],
          "indexed": false,
          "internalType": "struct EHRSC.Person",
          "name": "regulatoryAgencyAdmin",
          "type": "tuple"
        }
      ],
      "name": "RegulatoryAgencyAdminRegistered",
      "type": "event"
    },
    {
      "anonymous": false,
      "inputs": [
        {
          "components": [
            {
              "internalType": "string",
              "name": "reason",
              "type": "string"
            },
            {
              "internalType": "string",
              "name": "venue",
              "type": "string"
            },
            {
              "internalType": "uint256",
              "name": "date",
              "type": "uint256"
            },
            {
              "internalType": "uint256",
              "name": "time",
              "type": "uint256"
            }
          ],
          "indexed": false,
          "internalType": "struct EHRSC.Appointment",
          "name": "newAppointment",
          "type": "tuple"
        }
      ],
      "name": "RequestedAppointment",
      "type": "event"
    },
    {
      "anonymous": false,
      "inputs": [
        {
          "components": [
            {
              "internalType": "uint256",
              "name": "requestNo",
              "type": "uint256"
            },
            {
              "internalType": "address",
              "name": "requester",
              "type": "address"
            },
            {
              "internalType": "uint256",
              "name": "bundleNumber",
              "type": "uint256"
            }
          ],
          "indexed": false,
          "internalType": "struct EHRSC.Request",
          "name": "newRequest",
          "type": "tuple"
        },
        {
          "indexed": false,
          "internalType": "address",
          "name": "patientAddress",
          "type": "address"
        }
      ],
      "name": "RequestedDocuments",
      "type": "event"
    },
    {
      "inputs": [],
      "name": "owner",
      "outputs": [
        {
          "internalType": "address",
          "name": "",
          "type": "address"
        }
      ],
      "stateMutability": "view",
      "type": "function",
      "constant": true
    },
    {
      "inputs": [
        {
          "internalType": "address",
          "name": "",
          "type": "address"
        }
      ],
      "name": "persons",
      "outputs": [
        {
          "internalType": "address",
          "name": "personAddress",
          "type": "address"
        },
        {
          "internalType": "string",
          "name": "name",
          "type": "string"
        },
        {
          "internalType": "enum EHRSC.EntityClaim",
          "name": "entityClaim",
          "type": "uint8"
        },
        {
          "internalType": "bool",
          "name": "registered",
          "type": "bool"
        },
        {
          "internalType": "bool",
          "name": "verifiedDoctor",
          "type": "bool"
        },
        {
          "internalType": "bool",
          "name": "verifiedPatient",
          "type": "bool"
        },
        {
          "internalType": "bool",
          "name": "verifiedRegulatoryAgencyAdmin",
          "type": "bool"
        },
        {
          "internalType": "bool",
          "name": "verifiedInsuranceCompanyAdmin",
          "type": "bool"
        },
        {
          "internalType": "uint256",
          "name": "requestCount",
          "type": "uint256"
        }
      ],
      "stateMutability": "view",
      "type": "function",
      "constant": true
    },
    {
      "inputs": [
        {
          "internalType": "string",
          "name": "_name",
          "type": "string"
        }
      ],
      "name": "registerDoctor",
      "outputs": [],
      "stateMutability": "nonpayable",
      "type": "function"
    },
    {
      "inputs": [
        {
          "internalType": "string",
          "name": "_name",
          "type": "string"
        }
      ],
      "name": "registerPatient",
      "outputs": [],
      "stateMutability": "nonpayable",
      "type": "function"
    },
    {
      "inputs": [
        {
          "internalType": "string",
          "name": "_name",
          "type": "string"
        }
      ],
      "name": "registerRegulatoryAgencyAdmin",
      "outputs": [],
      "stateMutability": "nonpayable",
      "type": "function"
    },
    {
      "inputs": [],
      "name": "getName",
      "outputs": [
        {
          "internalType": "string",
          "name": "",
          "type": "string"
        }
      ],
      "stateMutability": "view",
      "type": "function",
      "constant": true
    },
    {
      "inputs": [],
      "name": "isVerifiedRAAdmin",
      "outputs": [
        {
          "internalType": "bool",
          "name": "",
          "type": "bool"
        }
      ],
      "stateMutability": "view",
      "type": "function",
      "constant": true
    },
    {
      "inputs": [],
      "name": "isVerifiedInsuranceCompanyAdmin",
      "outputs": [
        {
          "internalType": "bool",
          "name": "",
          "type": "bool"
        }
      ],
      "stateMutability": "view",
      "type": "function",
      "constant": true
    },
    {
      "inputs": [],
      "name": "isVerifiedDoctor",
      "outputs": [
        {
          "internalType": "bool",
          "name": "",
          "type": "bool"
        }
      ],
      "stateMutability": "view",
      "type": "function",
      "constant": true
    },
    {
      "inputs": [],
      "name": "isVerifiedPatient",
      "outputs": [
        {
          "internalType": "bool",
          "name": "",
          "type": "bool"
        }
      ],
      "stateMutability": "view",
      "type": "function",
      "constant": true
    },
    {
      "inputs": [
        {
          "internalType": "address",
          "name": "_patientAddress",
          "type": "address"
        },
        {
          "internalType": "uint256",
          "name": "_bundleNumber",
          "type": "uint256"
        }
      ],
      "name": "requestDocuments",
      "outputs": [],
      "stateMutability": "nonpayable",
      "type": "function"
    },
    {
      "inputs": [],
      "name": "checkPatientRequestCount",
      "outputs": [
        {
          "internalType": "uint256",
          "name": "",
          "type": "uint256"
        }
      ],
      "stateMutability": "view",
      "type": "function",
      "constant": true
    },
    {
      "inputs": [
        {
          "internalType": "uint256",
          "name": "index",
          "type": "uint256"
        }
      ],
      "name": "checkPatientRequestAtIndex",
      "outputs": [
        {
          "components": [
            {
              "internalType": "uint256",
              "name": "requestNo",
              "type": "uint256"
            },
            {
              "internalType": "address",
              "name": "requester",
              "type": "address"
            },
            {
              "internalType": "uint256",
              "name": "bundleNumber",
              "type": "uint256"
            }
          ],
          "internalType": "struct EHRSC.Request",
          "name": "",
          "type": "tuple"
        }
      ],
      "stateMutability": "view",
      "type": "function",
      "constant": true
    },
    {
      "inputs": [
        {
          "internalType": "string",
          "name": "_reason",
          "type": "string"
        },
        {
          "internalType": "string",
          "name": "_venue",
          "type": "string"
        },
        {
          "internalType": "uint256",
          "name": "_date",
          "type": "uint256"
        },
        {
          "internalType": "uint256",
          "name": "_time",
          "type": "uint256"
        }
      ],
      "name": "requestAppointment",
      "outputs": [],
      "stateMutability": "nonpayable",
      "type": "function"
    },
    {
      "inputs": [
        {
          "internalType": "address",
          "name": "_personAddress",
          "type": "address"
        }
      ],
      "name": "verifyByOwner",
      "outputs": [],
      "stateMutability": "nonpayable",
      "type": "function"
    },
    {
      "inputs": [],
      "name": "getOwner",
      "outputs": [
        {
          "internalType": "address",
          "name": "",
          "type": "address"
        }
      ],
      "stateMutability": "view",
      "type": "function",
      "constant": true
    },
    {
      "inputs": [
        {
          "internalType": "address",
          "name": "_personAddress",
          "type": "address"
        }
      ],
      "name": "regulatoryAgencyAdminVerify",
      "outputs": [],
      "stateMutability": "nonpayable",
      "type": "function"
    }
  ],
  "bytecode": "0x608060405234801561001057600080fd5b50336000806101000a81548173ffffffffffffffffffffffffffffffffffffffff021916908373ffffffffffffffffffffffffffffffffffffffff160217905550612fd3806100606000396000f3fe608060405234801561001057600080fd5b506004361061010b5760003560e01c8063869c9eaf116100a25780638f09ab5b116100715780638f09ab5b1461028a578063b5eed62e146102a6578063c0d0dd1b146102d6578063c94752f4146102f2578063e96365571461030e5761010b565b8063869c9eaf146101fa578063893d20e8146102165780638ada2cf6146102345780638da5cb5b1461026c5761010b565b80633df97ca5116100de5780633df97ca514610188578063407a9c5a146101a657806340d990f0146101c25780636f5891b9146101de5761010b565b806317d7de7c14610110578063201af7c41461012e57806324d8a9591461014c57806337f519691461016a575b600080fd5b61011861032c565b604051610125919061293c565b60405180910390f35b6101366103fe565b6040516101439190612ac8565b60405180910390f35b6101546104d7565b6040516101619190612921565b60405180910390f35b61017261052e565b60405161017f9190612921565b60405180910390f35b610190610585565b60405161019d9190612921565b60405180910390f35b6101c060048036038101906101bb9190611f16565b6105dc565b005b6101dc60048036038101906101d79190611f7b565b610cdc565b005b6101f860048036038101906101f39190611f16565b610f2a565b005b610214600480360381019061020f9190611f7b565b6110de565b005b61021e611336565b60405161022b9190612872565b60405180910390f35b61024e60048036038101906102499190611f16565b61135f565b6040516102639998979695949392919061288d565b60405180910390f35b6102746114a3565b6040516102819190612872565b60405180910390f35b6102a4600480360381019061029f9190611f7b565b6114c7565b005b6102c060048036038101906102bb919061204f565b611715565b6040516102cd9190612a84565b60405180910390f35b6102f060048036038101906102eb9190611fbc565b6118b0565b005b61030c60048036038101906103079190611f3f565b611a5e565b005b610316611d53565b6040516103239190612921565b60405180910390f35b6060600160003373ffffffffffffffffffffffffffffffffffffffff1673ffffffffffffffffffffffffffffffffffffffff168152602001908152602001600020600101805461037b90612cf5565b80601f01602080910402602001604051908101604052809291908181526020018280546103a790612cf5565b80156103f45780601f106103c9576101008083540402835291602001916103f4565b820191906000526020600020905b8154815290600101906020018083116103d757829003601f168201915b5050505050905090565b6000600160003373ffffffffffffffffffffffffffffffffffffffff1673ffffffffffffffffffffffffffffffffffffffff16815260200190815260200160002060020160039054906101000a900460ff1661048f576040517f08c379a0000000000000000000000000000000000000000000000000000000008152600401610486906129be565b60405180910390fd5b600160003373ffffffffffffffffffffffffffffffffffffffff1673ffffffffffffffffffffffffffffffffffffffff16815260200190815260200160002060030154905090565b6000600160003373ffffffffffffffffffffffffffffffffffffffff1673ffffffffffffffffffffffffffffffffffffffff16815260200190815260200160002060020160049054906101000a900460ff16905090565b6000600160003373ffffffffffffffffffffffffffffffffffffffff1673ffffffffffffffffffffffffffffffffffffffff16815260200190815260200160002060020160029054906101000a900460ff16905090565b6000600160003373ffffffffffffffffffffffffffffffffffffffff1673ffffffffffffffffffffffffffffffffffffffff16815260200190815260200160002060020160039054906101000a900460ff16905090565b600160003373ffffffffffffffffffffffffffffffffffffffff1673ffffffffffffffffffffffffffffffffffffffff16815260200190815260200160002060020160049054906101000a900460ff1661066b576040517f08c379a0000000000000000000000000000000000000000000000000000000008152600401610662906129fe565b60405180910390fd5b600060038111156106a5577f4e487b7100000000000000000000000000000000000000000000000000000000600052602160045260246000fd5b600160008373ffffffffffffffffffffffffffffffffffffffff1673ffffffffffffffffffffffffffffffffffffffff16815260200190815260200160002060020160009054906101000a900460ff16600381111561072d577f4e487b7100000000000000000000000000000000000000000000000000000000600052602160045260246000fd5b14156108075760018060008373ffffffffffffffffffffffffffffffffffffffff1673ffffffffffffffffffffffffffffffffffffffff16815260200190815260200160002060020160046101000a81548160ff0219169083151502179055507fe595d2d13dd2ebd9a3ccdcc941ae4e7b15e8e480c5b49418ddf13befd128af21600160008373ffffffffffffffffffffffffffffffffffffffff1673ffffffffffffffffffffffffffffffffffffffff1681526020019081526020016000206040516107fa9190612a40565b60405180910390a1610cd9565b60016003811115610841577f4e487b7100000000000000000000000000000000000000000000000000000000600052602160045260246000fd5b600160008373ffffffffffffffffffffffffffffffffffffffff1673ffffffffffffffffffffffffffffffffffffffff16815260200190815260200160002060020160009054906101000a900460ff1660038111156108c9577f4e487b7100000000000000000000000000000000000000000000000000000000600052602160045260246000fd5b14156109a35760018060008373ffffffffffffffffffffffffffffffffffffffff1673ffffffffffffffffffffffffffffffffffffffff16815260200190815260200160002060020160026101000a81548160ff0219169083151502179055507fd56a57f148053131256a3b97d08c52dcee64bbf5b8e60177bc4ab574208a0d34600160008373ffffffffffffffffffffffffffffffffffffffff1673ffffffffffffffffffffffffffffffffffffffff1681526020019081526020016000206040516109969190612a40565b60405180910390a1610cd8565b600260038111156109dd577f4e487b7100000000000000000000000000000000000000000000000000000000600052602160045260246000fd5b600160008373ffffffffffffffffffffffffffffffffffffffff1673ffffffffffffffffffffffffffffffffffffffff16815260200190815260200160002060020160009054906101000a900460ff166003811115610a65577f4e487b7100000000000000000000000000000000000000000000000000000000600052602160045260246000fd5b1415610b3f5760018060008373ffffffffffffffffffffffffffffffffffffffff1673ffffffffffffffffffffffffffffffffffffffff16815260200190815260200160002060020160036101000a81548160ff0219169083151502179055507fd92b6a9e06f0bda49da7c8f1c13842e65ae011641ca35b86831638bbf4ee465c600160008373ffffffffffffffffffffffffffffffffffffffff1673ffffffffffffffffffffffffffffffffffffffff168152602001908152602001600020604051610b329190612a40565b60405180910390a1610cd7565b600380811115610b78577f4e487b7100000000000000000000000000000000000000000000000000000000600052602160045260246000fd5b600160008373ffffffffffffffffffffffffffffffffffffffff1673ffffffffffffffffffffffffffffffffffffffff16815260200190815260200160002060020160009054906101000a900460ff166003811115610c00577f4e487b7100000000000000000000000000000000000000000000000000000000600052602160045260246000fd5b1415610cd65760018060008373ffffffffffffffffffffffffffffffffffffffff1673ffffffffffffffffffffffffffffffffffffffff16815260200190815260200160002060020160056101000a81548160ff0219169083151502179055507f62a650b47a8b3c146aea5500853c56aceab56e8a5b053421e8430eb08465e2b3600160008373ffffffffffffffffffffffffffffffffffffffff1673ffffffffffffffffffffffffffffffffffffffff168152602001908152602001600020604051610ccd9190612a40565b60405180910390a15b5b5b5b50565b600160003373ffffffffffffffffffffffffffffffffffffffff1673ffffffffffffffffffffffffffffffffffffffff16815260200190815260200160002060020160019054906101000a900460ff1615610d6c576040517f08c379a0000000000000000000000000000000000000000000000000000000008152600401610d63906129de565b60405180910390fd5b6000600160003373ffffffffffffffffffffffffffffffffffffffff1673ffffffffffffffffffffffffffffffffffffffff1681526020019081526020016000209050338160000160006101000a81548173ffffffffffffffffffffffffffffffffffffffff021916908373ffffffffffffffffffffffffffffffffffffffff16021790555081816001019080519060200190610e0a929190611daa565b5060008160020160006101000a81548160ff02191690836003811115610e59577f4e487b7100000000000000000000000000000000000000000000000000000000600052602160045260246000fd5b021790555060018160020160016101000a81548160ff02191690831515021790555060008160020160026101000a81548160ff02191690831515021790555060008160020160036101000a81548160ff02191690831515021790555060008160020160046101000a81548160ff02191690831515021790555060008160020160056101000a81548160ff0219169083151502179055507f8e41351cdcc3b9143a5e8390e6fc678706eb4351d4901d5b94a2f0d4709aaf1581604051610f1e9190612a62565b60405180910390a15050565b3373ffffffffffffffffffffffffffffffffffffffff1660008054906101000a900473ffffffffffffffffffffffffffffffffffffffff1673ffffffffffffffffffffffffffffffffffffffff1614610fb8576040517f08c379a0000000000000000000000000000000000000000000000000000000008152600401610faf9061299e565b60405180910390fd5b60006003811115610ff2577f4e487b7100000000000000000000000000000000000000000000000000000000600052602160045260246000fd5b600160008373ffffffffffffffffffffffffffffffffffffffff1673ffffffffffffffffffffffffffffffffffffffff16815260200190815260200160002060020160009054906101000a900460ff16600381111561107a577f4e487b7100000000000000000000000000000000000000000000000000000000600052602160045260246000fd5b14156110db5760018060008373ffffffffffffffffffffffffffffffffffffffff1673ffffffffffffffffffffffffffffffffffffffff16815260200190815260200160002060020160046101000a81548160ff0219169083151502179055505b50565b600160003373ffffffffffffffffffffffffffffffffffffffff1673ffffffffffffffffffffffffffffffffffffffff16815260200190815260200160002060020160019054906101000a900460ff161561116e576040517f08c379a0000000000000000000000000000000000000000000000000000000008152600401611165906129de565b60405180910390fd5b6000600160003373ffffffffffffffffffffffffffffffffffffffff1673ffffffffffffffffffffffffffffffffffffffff1681526020019081526020016000209050338160000160006101000a81548173ffffffffffffffffffffffffffffffffffffffff021916908373ffffffffffffffffffffffffffffffffffffffff1602179055508181600101908051906020019061120c929190611daa565b5060028160020160006101000a81548160ff0219169083600381111561125b577f4e487b7100000000000000000000000000000000000000000000000000000000600052602160045260246000fd5b021790555060018160020160016101000a81548160ff02191690831515021790555060008160020160026101000a81548160ff02191690831515021790555060008160020160036101000a81548160ff02191690831515021790555060008160020160046101000a81548160ff02191690831515021790555060008160020160056101000a81548160ff021916908315150217905550600081600301819055507fd0bfeea020e724d76240aa70cd78627e2aee2515cfc01018a1edeaa831b930db8160405161132a9190612a62565b60405180910390a15050565b60008060009054906101000a900473ffffffffffffffffffffffffffffffffffffffff16905090565b60016020528060005260406000206000915090508060000160009054906101000a900473ffffffffffffffffffffffffffffffffffffffff16908060010180546113a890612cf5565b80601f01602080910402602001604051908101604052809291908181526020018280546113d490612cf5565b80156114215780601f106113f657610100808354040283529160200191611421565b820191906000526020600020905b81548152906001019060200180831161140457829003601f168201915b5050505050908060020160009054906101000a900460ff16908060020160019054906101000a900460ff16908060020160029054906101000a900460ff16908060020160039054906101000a900460ff16908060020160049054906101000a900460ff16908060020160059054906101000a900460ff16908060030154905089565b60008054906101000a900473ffffffffffffffffffffffffffffffffffffffff1681565b600160003373ffffffffffffffffffffffffffffffffffffffff1673ffffffffffffffffffffffffffffffffffffffff16815260200190815260200160002060020160019054906101000a900460ff1615611557576040517f08c379a000000000000000000000000000000000000000000000000000000000815260040161154e906129de565b60405180910390fd5b6000600160003373ffffffffffffffffffffffffffffffffffffffff1673ffffffffffffffffffffffffffffffffffffffff1681526020019081526020016000209050338160000160006101000a81548173ffffffffffffffffffffffffffffffffffffffff021916908373ffffffffffffffffffffffffffffffffffffffff160217905550818160010190805190602001906115f5929190611daa565b5060018160020160006101000a81548160ff02191690836003811115611644577f4e487b7100000000000000000000000000000000000000000000000000000000600052602160045260246000fd5b021790555060018160020160016101000a81548160ff02191690831515021790555060008160020160026101000a81548160ff02191690831515021790555060008160020160036101000a81548160ff02191690831515021790555060008160020160046101000a81548160ff02191690831515021790555060008160020160056101000a81548160ff0219169083151502179055507fc1d22c0f640b896e847599f4e9eb677380a5cfce97d95eb9b9da6e17b72ccffd816040516117099190612a62565b60405180910390a15050565b61171d611e30565b600160003373ffffffffffffffffffffffffffffffffffffffff1673ffffffffffffffffffffffffffffffffffffffff16815260200190815260200160002060020160039054906101000a900460ff166117ac576040517f08c379a00000000000000000000000000000000000000000000000000000000081526004016117a3906129be565b60405180910390fd5b600160003373ffffffffffffffffffffffffffffffffffffffff1673ffffffffffffffffffffffffffffffffffffffff1681526020019081526020016000206004018281548110611826577f4e487b7100000000000000000000000000000000000000000000000000000000600052603260045260246000fd5b9060005260206000209060030201604051806060016040529081600082015481526020016001820160009054906101000a900473ffffffffffffffffffffffffffffffffffffffff1673ffffffffffffffffffffffffffffffffffffffff1673ffffffffffffffffffffffffffffffffffffffff1681526020016002820154815250509050919050565b600160003373ffffffffffffffffffffffffffffffffffffffff1673ffffffffffffffffffffffffffffffffffffffff16815260200190815260200160002060020160039054906101000a900460ff1661193f576040517f08c379a0000000000000000000000000000000000000000000000000000000008152600401611936906129be565b60405180910390fd5b60006040518060800160405280868152602001858152602001848152602001838152509050600160003373ffffffffffffffffffffffffffffffffffffffff1673ffffffffffffffffffffffffffffffffffffffff16815260200190815260200160002060050181908060018154018082558091505060019003906000526020600020906004020160009091909190915060008201518160000190805190602001906119ec929190611daa565b506020820151816001019080519060200190611a09929190611daa565b50604082015181600201556060820151816003015550507f7058516056f92f6e7765a333be422d27865510565de1b5a67e667d4c585138f781604051611a4f9190612a1e565b60405180910390a15050505050565b600160003373ffffffffffffffffffffffffffffffffffffffff1673ffffffffffffffffffffffffffffffffffffffff16815260200190815260200160002060020160029054906101000a900460ff16611aed576040517f08c379a0000000000000000000000000000000000000000000000000000000008152600401611ae49061297e565b60405180910390fd5b600160008373ffffffffffffffffffffffffffffffffffffffff1673ffffffffffffffffffffffffffffffffffffffff16815260200190815260200160002060020160039054906101000a900460ff16611b7c576040517f08c379a0000000000000000000000000000000000000000000000000000000008152600401611b739061295e565b60405180910390fd5b6000600160008473ffffffffffffffffffffffffffffffffffffffff1673ffffffffffffffffffffffffffffffffffffffff168152602001908152602001600020600301549050600060405180606001604052808381526020013373ffffffffffffffffffffffffffffffffffffffff168152602001848152509050600160008573ffffffffffffffffffffffffffffffffffffffff1673ffffffffffffffffffffffffffffffffffffffff1681526020019081526020016000206004018190806001815401808255809150506001900390600052602060002090600302016000909190919091506000820151816000015560208201518160010160006101000a81548173ffffffffffffffffffffffffffffffffffffffff021916908373ffffffffffffffffffffffffffffffffffffffff16021790555060408201518160020155505081611ccb90612df7565b915081600160008673ffffffffffffffffffffffffffffffffffffffff1673ffffffffffffffffffffffffffffffffffffffff168152602001908152602001600020600301819055507fba910960b67d997430413a8491c25a9bd30e767082524f5a4c398d28d1f1c72e8185604051611d45929190612a9f565b60405180910390a150505050565b6000600160003373ffffffffffffffffffffffffffffffffffffffff1673ffffffffffffffffffffffffffffffffffffffff16815260200190815260200160002060020160059054906101000a900460ff16905090565b828054611db690612cf5565b90600052602060002090601f016020900481019282611dd85760008555611e1f565b82601f10611df157805160ff1916838001178555611e1f565b82800160010185558215611e1f579182015b82811115611e1e578251825591602001919060010190611e03565b5b509050611e2c9190611e67565b5090565b604051806060016040528060008152602001600073ffffffffffffffffffffffffffffffffffffffff168152602001600081525090565b5b80821115611e80576000816000905550600101611e68565b5090565b6000611e97611e9284612b14565b612ae3565b905082815260208101848484011115611eaf57600080fd5b611eba848285612cb3565b509392505050565b600081359050611ed181612f6f565b92915050565b600082601f830112611ee857600080fd5b8135611ef8848260208601611e84565b91505092915050565b600081359050611f1081612f86565b92915050565b600060208284031215611f2857600080fd5b6000611f3684828501611ec2565b91505092915050565b60008060408385031215611f5257600080fd5b6000611f6085828601611ec2565b9250506020611f7185828601611f01565b9150509250929050565b600060208284031215611f8d57600080fd5b600082013567ffffffffffffffff811115611fa757600080fd5b611fb384828501611ed7565b91505092915050565b60008060008060808587031215611fd257600080fd5b600085013567ffffffffffffffff811115611fec57600080fd5b611ff887828801611ed7565b945050602085013567ffffffffffffffff81111561201557600080fd5b61202187828801611ed7565b935050604061203287828801611f01565b925050606061204387828801611f01565b91505092959194509250565b60006020828403121561206157600080fd5b600061206f84828501611f01565b91505092915050565b600061208483836124d1565b905092915050565b600061209883836127ef565b60608301905092915050565b6120ad81612c46565b82525050565b6120bc81612c46565b82525050565b60006120cd82612b83565b6120d78185612bbe565b9350836020820285016120e985612b44565b8060005b85811015612124578484038952816121058582612078565b945061211083612ba4565b925060208a019950506001810190506120ed565b50829750879550505050505092915050565b600061214182612b8e565b61214b8185612bcf565b935061215683612b59565b8060005b83811015612186578161216d888261208c565b975061217883612bb1565b92505060018101905061215a565b5085935050505092915050565b61219c81612c58565b82525050565b6121ab81612c58565b82525050565b6121ba81612ca1565b82525050565b6121c981612ca1565b82525050565b60006121da82612b99565b6121e48185612be0565b93506121f4818560208601612cc2565b6121fd81612efc565b840191505092915050565b600061221382612b99565b61221d8185612bf1565b935061222d818560208601612cc2565b61223681612efc565b840191505092915050565b6000815461224e81612cf5565b6122588186612be0565b945060018216600081146122735760018114612285576122b8565b60ff19831686526020860193506122b8565b61228e85612b6e565b60005b838110156122b057815481890152600182019150602081019050612291565b808801955050505b50505092915050565b60006122ce601883612bf1565b91507f50617469656e74206d75737420626520766572696669656400000000000000006000830152602082019050919050565b600061230e601083612bf1565b91507f4d757374206265206120646f63746f72000000000000000000000000000000006000830152602082019050919050565b600061234e601083612bf1565b91507f4d75737420626520616e206f776e6572000000000000000000000000000000006000830152602082019050919050565b600061238e601183612bf1565b91507f4d75737420626520612070617469656e740000000000000000000000000000006000830152602082019050919050565b60006123ce601983612bf1565b91507f506572736f6e20616c72656164792072656769737465726564000000000000006000830152602082019050919050565b600061240e602183612bf1565b91507f4d757374206265206120726567756c61746f7279206167656e63792061646d6960008301527f6e000000000000000000000000000000000000000000000000000000000000006020830152604082019050919050565b6000608083016000830151848203600086015261248482826121cf565b9150506020830151848203602086015261249e82826121cf565b91505060408301516124b36040860182612854565b5060608301516124c66060860182612854565b508091505092915050565b600060808301600080840185830360008701526124ee8382612241565b9250506001840185830360208701526125078382612241565b9250506002840154905061251a81612d5b565b6125276040870182612854565b506003840154905061253881612d5b565b6125456060870182612854565b50819250505092915050565b60006101608301600080840154905061256981612d27565b61257660008701826120a4565b5060018401858303602087015261258d8382612241565b925050600284015490506125a081612d41565b6125ad60408701826121b1565b506125b781612d75565b6125c46060870182612193565b506125ce81612d8f565b6125db6080870182612193565b506125e581612da9565b6125f260a0870182612193565b506125fc81612dc3565b61260960c0870182612193565b5061261381612ddd565b61262060e0870182612193565b506003840154905061263181612d5b565b61263f610100870182612854565b50600484018583036101208701526126578382612136565b9250506005840185830361014087015261267183826120c2565b925050819250505092915050565b60006101608301600080840154905061269781612d27565b6126a460008701826120a4565b506001840185830360208701526126bb8382612241565b925050600284015490506126ce81612d41565b6126db60408701826121b1565b506126e581612d75565b6126f26060870182612193565b506126fc81612d8f565b6127096080870182612193565b5061271381612da9565b61272060a0870182612193565b5061272a81612dc3565b61273760c0870182612193565b5061274181612ddd565b61274e60e0870182612193565b506003840154905061275f81612d5b565b61276d610100870182612854565b50600484018583036101208701526127858382612136565b9250506005840185830361014087015261279f83826120c2565b925050819250505092915050565b6060820160008201516127c36000850182612854565b5060208201516127d660208501826120a4565b5060408201516127e96040850182612854565b50505050565b60608201600080830154905061280481612d5b565b6128116000860182612854565b506001830154905061282281612d27565b61282f60208601826120a4565b506002830154905061284081612d5b565b61284d6040860182612854565b5050505050565b61285d81612c97565b82525050565b61286c81612c97565b82525050565b600060208201905061288760008301846120b3565b92915050565b6000610120820190506128a3600083018c6120b3565b81810360208301526128b5818b612208565b90506128c4604083018a6121c0565b6128d160608301896121a2565b6128de60808301886121a2565b6128eb60a08301876121a2565b6128f860c08301866121a2565b61290560e08301856121a2565b612913610100830184612863565b9a9950505050505050505050565b600060208201905061293660008301846121a2565b92915050565b600060208201905081810360008301526129568184612208565b905092915050565b60006020820190508181036000830152612977816122c1565b9050919050565b6000602082019050818103600083015261299781612301565b9050919050565b600060208201905081810360008301526129b781612341565b9050919050565b600060208201905081810360008301526129d781612381565b9050919050565b600060208201905081810360008301526129f7816123c1565b9050919050565b60006020820190508181036000830152612a1781612401565b9050919050565b60006020820190508181036000830152612a388184612467565b905092915050565b60006020820190508181036000830152612a5a818461267f565b905092915050565b60006020820190508181036000830152612a7c8184612551565b905092915050565b6000606082019050612a9960008301846127ad565b92915050565b6000608082019050612ab460008301856127ad565b612ac160608301846120b3565b9392505050565b6000602082019050612add6000830184612863565b92915050565b6000604051905081810181811067ffffffffffffffff82111715612b0a57612b09612ecd565b5b8060405250919050565b600067ffffffffffffffff821115612b2f57612b2e612ecd565b5b601f19601f8301169050602081019050919050565b60008190508160005260206000209050919050565b60008190508160005260206000209050919050565b60008190508160005260206000209050919050565b600081549050919050565b600081549050919050565b600081519050919050565b6000600482019050919050565b6000600382019050919050565b600082825260208201905092915050565b600082825260208201905092915050565b600082825260208201905092915050565b600082825260208201905092915050565b600073ffffffffffffffffffffffffffffffffffffffff82169050919050565b600060ff82169050919050565b600060ff82169050919050565b6000819050919050565b6000612c5182612c77565b9050919050565b60008115159050919050565b6000819050612c7282612f5b565b919050565b600073ffffffffffffffffffffffffffffffffffffffff82169050919050565b6000819050919050565b6000612cac82612c64565b9050919050565b82818337600083830152505050565b60005b83811015612ce0578082015181840152602081019050612cc5565b83811115612cef576000848401525b50505050565b60006002820490506001821680612d0d57607f821691505b60208210811415612d2157612d20612e9e565b5b50919050565b6000612d3a612d3583612f0d565b612c02565b9050919050565b6000612d54612d4f83612f0d565b612c2f565b9050919050565b6000612d6e612d6983612f0d565b612c3c565b9050919050565b6000612d88612d8383612f4e565b612c22565b9050919050565b6000612da2612d9d83612f1a565b612c22565b9050919050565b6000612dbc612db783612f27565b612c22565b9050919050565b6000612dd6612dd183612f34565b612c22565b9050919050565b6000612df0612deb83612f41565b612c22565b9050919050565b6000612e0282612c97565b91507fffffffffffffffffffffffffffffffffffffffffffffffffffffffffffffffff821415612e3557612e34612e40565b5b600182019050919050565b7f4e487b7100000000000000000000000000000000000000000000000000000000600052601160045260246000fd5b7f4e487b7100000000000000000000000000000000000000000000000000000000600052602160045260246000fd5b7f4e487b7100000000000000000000000000000000000000000000000000000000600052602260045260246000fd5b7f4e487b7100000000000000000000000000000000000000000000000000000000600052604160045260246000fd5b6000601f19601f8301169050919050565b60008160001c9050919050565b60008160101c9050919050565b60008160181c9050919050565b60008160201c9050919050565b60008160281c9050919050565b60008160081c9050919050565b60048110612f6c57612f6b612e6f565b5b50565b612f7881612c46565b8114612f8357600080fd5b50565b612f8f81612c97565b8114612f9a57600080fd5b5056fea26469706673582212207b4af11259ba23901e4f9a768dd68781a3914f6a1ba3c891918bca5f2a02981f64736f6c63430008000033",
  "immutableReferences": {},
  "source": "// SPDX-License-Identifier: MIT\r\npragma solidity >=0.7.0 <0.9.0;\r\n\r\ncontract EHRSC {\r\n    address public owner;\r\n\r\n    mapping(address => Person) public persons;\r\n\r\n    enum EntityClaim {\r\n        REGULATORY_AGENCY_ADMIN,\r\n        DOCTOR,\r\n        PATIENT,\r\n        INSURANCE_COMPANY_ADMIN\r\n    }\r\n\r\n    event DoctorRegistered(Person doctor);\r\n    event PatientRegistered(Person patient);\r\n    event RegulatoryAgencyAdminRegistered(Person regulatoryAgencyAdmin);\r\n    event InsuranceCompanyAdminRegistered(Person insuranceCompanyAdmin);\r\n    event DoctorVerified(Person doctor);\r\n    event PatientVerified(Person patient);\r\n    event RegulatorAgencyAdminVerified(Person regulatoryAgencyAdmin);\r\n    event InsuranceCompanyAdminVerified(Person insuranceCompanyAdmin);\r\n    event RequestedDocuments(Request newRequest, address patientAddress);\r\n    event RequestedAppointment(Appointment newAppointment);\r\n\r\n    struct Appointment {\r\n        string reason;\r\n        string venue;\r\n        uint256 date;\r\n        uint256 time;\r\n    }\r\n\r\n    struct Person {\r\n        address personAddress;\r\n        string name;\r\n        EntityClaim entityClaim;\r\n        bool registered;\r\n        bool verifiedDoctor;\r\n        bool verifiedPatient;\r\n        bool verifiedRegulatoryAgencyAdmin;\r\n        bool verifiedInsuranceCompanyAdmin;\r\n        uint256 requestCount;\r\n        Request[] requests;\r\n        Appointment[] appointments;\r\n    }\r\n\r\n    struct Request {\r\n        uint256 requestNo;\r\n        address requester;\r\n        uint256 bundleNumber;\r\n    }\r\n\r\n    // struct InsuranceCompany {}\r\n    // struct Laboratory {}\r\n    // struct Pharmacy {}\r\n    // struct RegulatoryAgency {}\r\n    // struct HealthRecord {}\r\n    // struct Hospital {}\r\n\r\n    modifier onlyDoctor() {\r\n        require(persons[msg.sender].verifiedDoctor, \"Must be a doctor\");\r\n        _;\r\n    }\r\n\r\n    modifier onlyPatient() {\r\n        require(persons[msg.sender].verifiedPatient, \"Must be a patient\");\r\n        _;\r\n    }\r\n\r\n    modifier onlyOwner() {\r\n        require(owner == msg.sender, \"Must be an owner\");\r\n        _;\r\n    }\r\n\r\n    modifier onlyRegulatoryAgencyAdmin() {\r\n        require(\r\n            persons[msg.sender].verifiedRegulatoryAgencyAdmin,\r\n            \"Must be a regulatory agency admin\"\r\n        );\r\n        _;\r\n    }\r\n\r\n    modifier onlyInsuranceCompanyAdmin() {\r\n        require(\r\n            persons[msg.sender].verifiedInsuranceCompanyAdmin,\r\n            \"Must be a insurance company admin\"\r\n        );\r\n        _;\r\n    }\r\n\r\n    modifier onlyRegistered() {\r\n        require(!persons[msg.sender].registered, \"Person already registered\");\r\n        _;\r\n    }\r\n\r\n    constructor() {\r\n        owner = msg.sender;\r\n    }\r\n\r\n    function registerDoctor(string memory _name) public onlyRegistered {\r\n        Person storage doctor = persons[msg.sender];\r\n        doctor.personAddress = msg.sender;\r\n        doctor.name = _name;\r\n        doctor.entityClaim = EntityClaim.DOCTOR;\r\n        doctor.registered = true;\r\n        doctor.verifiedDoctor = false;\r\n        doctor.verifiedPatient = false;\r\n        doctor.verifiedRegulatoryAgencyAdmin = false;\r\n        doctor.verifiedInsuranceCompanyAdmin = false;\r\n        emit DoctorRegistered(doctor);\r\n    }\r\n\r\n    function registerPatient(string memory _name) public onlyRegistered {\r\n        Person storage patient = persons[msg.sender];\r\n        patient.personAddress = msg.sender;\r\n        patient.name = _name;\r\n        patient.entityClaim = EntityClaim.PATIENT;\r\n        patient.registered = true;\r\n        patient.verifiedDoctor = false;\r\n        patient.verifiedPatient = false;\r\n        patient.verifiedRegulatoryAgencyAdmin = false;\r\n        patient.verifiedInsuranceCompanyAdmin = false;\r\n        patient.requestCount = 0;\r\n        emit PatientRegistered(patient);\r\n    }\r\n\r\n    function registerRegulatoryAgencyAdmin(string memory _name)\r\n        public\r\n        onlyRegistered\r\n    {\r\n        Person storage regulatoryAgencyAdmin = persons[msg.sender];\r\n        regulatoryAgencyAdmin.personAddress = msg.sender;\r\n        regulatoryAgencyAdmin.name = _name;\r\n        regulatoryAgencyAdmin.entityClaim = EntityClaim.REGULATORY_AGENCY_ADMIN;\r\n        regulatoryAgencyAdmin.registered = true;\r\n        regulatoryAgencyAdmin.verifiedDoctor = false;\r\n        regulatoryAgencyAdmin.verifiedPatient = false;\r\n        regulatoryAgencyAdmin.verifiedRegulatoryAgencyAdmin = false;\r\n        regulatoryAgencyAdmin.verifiedInsuranceCompanyAdmin = false;\r\n        emit RegulatoryAgencyAdminRegistered(regulatoryAgencyAdmin);\r\n    }\r\n\r\n    function getName() public view returns (string memory) {\r\n        return persons[msg.sender].name;\r\n    }\r\n\r\n    function isVerifiedRAAdmin() public view returns (bool) {\r\n        return persons[msg.sender].verifiedRegulatoryAgencyAdmin;\r\n    }\r\n\r\n    function isVerifiedInsuranceCompanyAdmin() public view returns (bool) {\r\n        return persons[msg.sender].verifiedInsuranceCompanyAdmin;\r\n    }\r\n\r\n    function isVerifiedDoctor() public view returns (bool) {\r\n        return persons[msg.sender].verifiedDoctor;\r\n    }\r\n\r\n    function isVerifiedPatient() public view returns (bool) {\r\n        return persons[msg.sender].verifiedPatient;\r\n    }\r\n\r\n    function requestDocuments(address _patientAddress, uint256 _bundleNumber)\r\n        public\r\n        onlyDoctor\r\n    {\r\n        require(\r\n            persons[_patientAddress].verifiedPatient,\r\n            \"Patient must be verified\"\r\n        ); // TODO: check document must exist\r\n        uint256 count = persons[_patientAddress].requestCount;\r\n        Request memory newRequest = Request(count, msg.sender, _bundleNumber);\r\n        persons[_patientAddress].requests.push(newRequest);\r\n        persons[_patientAddress].requestCount = ++count;\r\n        emit RequestedDocuments(newRequest, _patientAddress);\r\n    }\r\n\r\n    function checkPatientRequestCount()\r\n        public\r\n        view\r\n        onlyPatient\r\n        returns (uint256)\r\n    {\r\n        return persons[msg.sender].requestCount;\r\n    }\r\n\r\n    function checkPatientRequestAtIndex(uint256 index)\r\n        public\r\n        view\r\n        onlyPatient\r\n        returns (Request memory)\r\n    {\r\n        return persons[msg.sender].requests[index];\r\n    }\r\n\r\n    function requestAppointment(\r\n        string memory _reason,\r\n        string memory _venue,\r\n        uint256 _date,\r\n        uint256 _time\r\n    ) public onlyPatient {\r\n        Appointment memory newAppointment = Appointment(\r\n            _reason,\r\n            _venue,\r\n            _date,\r\n            _time\r\n        );\r\n        persons[msg.sender].appointments.push(newAppointment);\r\n        emit RequestedAppointment(newAppointment);\r\n    }\r\n\r\n    // deployer of the smart contract can verify RA admins\r\n    function verifyByOwner(address _personAddress) public onlyOwner {\r\n        if (\r\n            persons[_personAddress].entityClaim ==\r\n            EntityClaim.REGULATORY_AGENCY_ADMIN\r\n        ) {\r\n            persons[_personAddress].verifiedRegulatoryAgencyAdmin = true;\r\n        }\r\n    }\r\n\r\n    function getOwner() public view returns (address) {\r\n        return owner;\r\n    }\r\n\r\n    function regulatoryAgencyAdminVerify(address _personAddress)\r\n        public\r\n        onlyRegulatoryAgencyAdmin\r\n    {\r\n        if (\r\n            persons[_personAddress].entityClaim ==\r\n            EntityClaim.REGULATORY_AGENCY_ADMIN\r\n        ) {\r\n            persons[_personAddress].verifiedRegulatoryAgencyAdmin = true;\r\n            emit RegulatorAgencyAdminVerified(persons[_personAddress]);\r\n        } else if (persons[_personAddress].entityClaim == EntityClaim.DOCTOR) {\r\n            persons[_personAddress].verifiedDoctor = true;\r\n            emit DoctorVerified(persons[_personAddress]);\r\n        } else if (persons[_personAddress].entityClaim == EntityClaim.PATIENT) {\r\n            persons[_personAddress].verifiedPatient = true;\r\n            emit PatientVerified(persons[_personAddress]);\r\n        } else if (\r\n            persons[_personAddress].entityClaim ==\r\n            EntityClaim.INSURANCE_COMPANY_ADMIN\r\n        ) {\r\n            persons[_personAddress].verifiedInsuranceCompanyAdmin = true;\r\n            emit InsuranceCompanyAdminVerified(persons[_personAddress]);\r\n        }\r\n    }\r\n\r\n    // TODO: function: Insurance company\r\n    // TODO: function: Hospital accepts appointment request\r\n    // TODO: function: Patient allow access to doctor or send re-encryption keys to NuCypher network\r\n}\r\n",
  "sourcePath": "/mnt/c/Users/assid/Workspace/EHR-Besu/contracts/EHRSC.sol",
  "compiler": {
    "name": "solc",
    "version": "0.8.0+commit.c7dfd78e.Emscripten.clang"
  },
  "schemaVersion": "3.4.3",
  "updatedAt": "2022-09-28T10:49:06.155Z",
  "networkType": "ethereum",
  "devdoc": {
    "kind": "dev",
    "methods": {},
    "version": 1
  },
  "userdoc": {
    "kind": "user",
    "methods": {},
    "version": 1
  }
}