{
  "contractName": "EHRSC",
  "abi": [
    {
      "inputs": [],
      "stateMutability": "nonpayable",
      "type": "constructor"
    },
    {
      "anonymous": false,
      "inputs": [
        {
          "components": [
            {
              "internalType": "address",
              "name": "personAddress",
              "type": "address"
            },
            {
              "internalType": "string",
              "name": "name",
              "type": "string"
            },
            {
              "internalType": "enum EHRSC.EntityClaim",
              "name": "entityClaim",
              "type": "uint8"
            },
            {
              "internalType": "bool",
              "name": "registered",
              "type": "bool"
            },
            {
              "internalType": "bool",
              "name": "verifiedDoctor",
              "type": "bool"
            },
            {
              "internalType": "bool",
              "name": "verifiedPatient",
              "type": "bool"
            },
            {
              "internalType": "bool",
              "name": "verifiedRegulatoryAgencyAdmin",
              "type": "bool"
            },
            {
              "internalType": "bool",
              "name": "verifiedInsuranceCompanyAdmin",
              "type": "bool"
            },
            {
              "internalType": "uint256",
              "name": "requestCount",
              "type": "uint256"
            },
            {
              "components": [
                {
                  "internalType": "uint256",
                  "name": "requestNo",
                  "type": "uint256"
                },
                {
                  "internalType": "address",
                  "name": "requester",
                  "type": "address"
                },
                {
                  "internalType": "string",
                  "name": "bundleCid",
                  "type": "string"
                }
              ],
              "internalType": "struct EHRSC.Request[]",
              "name": "requests",
              "type": "tuple[]"
            },
            {
              "components": [
                {
                  "internalType": "string",
                  "name": "reason",
                  "type": "string"
                },
                {
                  "internalType": "string",
                  "name": "venue",
                  "type": "string"
                },
                {
                  "internalType": "uint256",
                  "name": "date",
                  "type": "uint256"
                },
                {
                  "internalType": "uint256",
                  "name": "time",
                  "type": "uint256"
                }
              ],
              "internalType": "struct EHRSC.Appointment[]",
              "name": "appointments",
              "type": "tuple[]"
            },
            {
              "components": [
                {
                  "internalType": "string",
                  "name": "bundleCid",
                  "type": "string"
                },
                {
                  "internalType": "address",
                  "name": "doctorAddress",
                  "type": "address"
                }
              ],
              "internalType": "struct EHRSC.Bundle",
              "name": "bundle",
              "type": "tuple"
            }
          ],
          "indexed": false,
          "internalType": "struct EHRSC.Person",
          "name": "doctor",
          "type": "tuple"
        }
      ],
      "name": "DoctorRegistered",
      "type": "event"
    },
    {
      "anonymous": false,
      "inputs": [
        {
          "components": [
            {
              "internalType": "address",
              "name": "personAddress",
              "type": "address"
            },
            {
              "internalType": "string",
              "name": "name",
              "type": "string"
            },
            {
              "internalType": "enum EHRSC.EntityClaim",
              "name": "entityClaim",
              "type": "uint8"
            },
            {
              "internalType": "bool",
              "name": "registered",
              "type": "bool"
            },
            {
              "internalType": "bool",
              "name": "verifiedDoctor",
              "type": "bool"
            },
            {
              "internalType": "bool",
              "name": "verifiedPatient",
              "type": "bool"
            },
            {
              "internalType": "bool",
              "name": "verifiedRegulatoryAgencyAdmin",
              "type": "bool"
            },
            {
              "internalType": "bool",
              "name": "verifiedInsuranceCompanyAdmin",
              "type": "bool"
            },
            {
              "internalType": "uint256",
              "name": "requestCount",
              "type": "uint256"
            },
            {
              "components": [
                {
                  "internalType": "uint256",
                  "name": "requestNo",
                  "type": "uint256"
                },
                {
                  "internalType": "address",
                  "name": "requester",
                  "type": "address"
                },
                {
                  "internalType": "string",
                  "name": "bundleCid",
                  "type": "string"
                }
              ],
              "internalType": "struct EHRSC.Request[]",
              "name": "requests",
              "type": "tuple[]"
            },
            {
              "components": [
                {
                  "internalType": "string",
                  "name": "reason",
                  "type": "string"
                },
                {
                  "internalType": "string",
                  "name": "venue",
                  "type": "string"
                },
                {
                  "internalType": "uint256",
                  "name": "date",
                  "type": "uint256"
                },
                {
                  "internalType": "uint256",
                  "name": "time",
                  "type": "uint256"
                }
              ],
              "internalType": "struct EHRSC.Appointment[]",
              "name": "appointments",
              "type": "tuple[]"
            },
            {
              "components": [
                {
                  "internalType": "string",
                  "name": "bundleCid",
                  "type": "string"
                },
                {
                  "internalType": "address",
                  "name": "doctorAddress",
                  "type": "address"
                }
              ],
              "internalType": "struct EHRSC.Bundle",
              "name": "bundle",
              "type": "tuple"
            }
          ],
          "indexed": false,
          "internalType": "struct EHRSC.Person",
          "name": "doctor",
          "type": "tuple"
        }
      ],
      "name": "DoctorVerified",
      "type": "event"
    },
    {
      "anonymous": false,
      "inputs": [
        {
          "components": [
            {
              "internalType": "address",
              "name": "personAddress",
              "type": "address"
            },
            {
              "internalType": "string",
              "name": "name",
              "type": "string"
            },
            {
              "internalType": "enum EHRSC.EntityClaim",
              "name": "entityClaim",
              "type": "uint8"
            },
            {
              "internalType": "bool",
              "name": "registered",
              "type": "bool"
            },
            {
              "internalType": "bool",
              "name": "verifiedDoctor",
              "type": "bool"
            },
            {
              "internalType": "bool",
              "name": "verifiedPatient",
              "type": "bool"
            },
            {
              "internalType": "bool",
              "name": "verifiedRegulatoryAgencyAdmin",
              "type": "bool"
            },
            {
              "internalType": "bool",
              "name": "verifiedInsuranceCompanyAdmin",
              "type": "bool"
            },
            {
              "internalType": "uint256",
              "name": "requestCount",
              "type": "uint256"
            },
            {
              "components": [
                {
                  "internalType": "uint256",
                  "name": "requestNo",
                  "type": "uint256"
                },
                {
                  "internalType": "address",
                  "name": "requester",
                  "type": "address"
                },
                {
                  "internalType": "string",
                  "name": "bundleCid",
                  "type": "string"
                }
              ],
              "internalType": "struct EHRSC.Request[]",
              "name": "requests",
              "type": "tuple[]"
            },
            {
              "components": [
                {
                  "internalType": "string",
                  "name": "reason",
                  "type": "string"
                },
                {
                  "internalType": "string",
                  "name": "venue",
                  "type": "string"
                },
                {
                  "internalType": "uint256",
                  "name": "date",
                  "type": "uint256"
                },
                {
                  "internalType": "uint256",
                  "name": "time",
                  "type": "uint256"
                }
              ],
              "internalType": "struct EHRSC.Appointment[]",
              "name": "appointments",
              "type": "tuple[]"
            },
            {
              "components": [
                {
                  "internalType": "string",
                  "name": "bundleCid",
                  "type": "string"
                },
                {
                  "internalType": "address",
                  "name": "doctorAddress",
                  "type": "address"
                }
              ],
              "internalType": "struct EHRSC.Bundle",
              "name": "bundle",
              "type": "tuple"
            }
          ],
          "indexed": false,
          "internalType": "struct EHRSC.Person",
          "name": "insuranceCompanyAdmin",
          "type": "tuple"
        }
      ],
      "name": "InsuranceCompanyAdminRegistered",
      "type": "event"
    },
    {
      "anonymous": false,
      "inputs": [
        {
          "components": [
            {
              "internalType": "address",
              "name": "personAddress",
              "type": "address"
            },
            {
              "internalType": "string",
              "name": "name",
              "type": "string"
            },
            {
              "internalType": "enum EHRSC.EntityClaim",
              "name": "entityClaim",
              "type": "uint8"
            },
            {
              "internalType": "bool",
              "name": "registered",
              "type": "bool"
            },
            {
              "internalType": "bool",
              "name": "verifiedDoctor",
              "type": "bool"
            },
            {
              "internalType": "bool",
              "name": "verifiedPatient",
              "type": "bool"
            },
            {
              "internalType": "bool",
              "name": "verifiedRegulatoryAgencyAdmin",
              "type": "bool"
            },
            {
              "internalType": "bool",
              "name": "verifiedInsuranceCompanyAdmin",
              "type": "bool"
            },
            {
              "internalType": "uint256",
              "name": "requestCount",
              "type": "uint256"
            },
            {
              "components": [
                {
                  "internalType": "uint256",
                  "name": "requestNo",
                  "type": "uint256"
                },
                {
                  "internalType": "address",
                  "name": "requester",
                  "type": "address"
                },
                {
                  "internalType": "string",
                  "name": "bundleCid",
                  "type": "string"
                }
              ],
              "internalType": "struct EHRSC.Request[]",
              "name": "requests",
              "type": "tuple[]"
            },
            {
              "components": [
                {
                  "internalType": "string",
                  "name": "reason",
                  "type": "string"
                },
                {
                  "internalType": "string",
                  "name": "venue",
                  "type": "string"
                },
                {
                  "internalType": "uint256",
                  "name": "date",
                  "type": "uint256"
                },
                {
                  "internalType": "uint256",
                  "name": "time",
                  "type": "uint256"
                }
              ],
              "internalType": "struct EHRSC.Appointment[]",
              "name": "appointments",
              "type": "tuple[]"
            },
            {
              "components": [
                {
                  "internalType": "string",
                  "name": "bundleCid",
                  "type": "string"
                },
                {
                  "internalType": "address",
                  "name": "doctorAddress",
                  "type": "address"
                }
              ],
              "internalType": "struct EHRSC.Bundle",
              "name": "bundle",
              "type": "tuple"
            }
          ],
          "indexed": false,
          "internalType": "struct EHRSC.Person",
          "name": "insuranceCompanyAdmin",
          "type": "tuple"
        }
      ],
      "name": "InsuranceCompanyAdminVerified",
      "type": "event"
    },
    {
      "anonymous": false,
      "inputs": [
        {
          "components": [
            {
              "internalType": "address",
              "name": "personAddress",
              "type": "address"
            },
            {
              "internalType": "string",
              "name": "name",
              "type": "string"
            },
            {
              "internalType": "enum EHRSC.EntityClaim",
              "name": "entityClaim",
              "type": "uint8"
            },
            {
              "internalType": "bool",
              "name": "registered",
              "type": "bool"
            },
            {
              "internalType": "bool",
              "name": "verifiedDoctor",
              "type": "bool"
            },
            {
              "internalType": "bool",
              "name": "verifiedPatient",
              "type": "bool"
            },
            {
              "internalType": "bool",
              "name": "verifiedRegulatoryAgencyAdmin",
              "type": "bool"
            },
            {
              "internalType": "bool",
              "name": "verifiedInsuranceCompanyAdmin",
              "type": "bool"
            },
            {
              "internalType": "uint256",
              "name": "requestCount",
              "type": "uint256"
            },
            {
              "components": [
                {
                  "internalType": "uint256",
                  "name": "requestNo",
                  "type": "uint256"
                },
                {
                  "internalType": "address",
                  "name": "requester",
                  "type": "address"
                },
                {
                  "internalType": "string",
                  "name": "bundleCid",
                  "type": "string"
                }
              ],
              "internalType": "struct EHRSC.Request[]",
              "name": "requests",
              "type": "tuple[]"
            },
            {
              "components": [
                {
                  "internalType": "string",
                  "name": "reason",
                  "type": "string"
                },
                {
                  "internalType": "string",
                  "name": "venue",
                  "type": "string"
                },
                {
                  "internalType": "uint256",
                  "name": "date",
                  "type": "uint256"
                },
                {
                  "internalType": "uint256",
                  "name": "time",
                  "type": "uint256"
                }
              ],
              "internalType": "struct EHRSC.Appointment[]",
              "name": "appointments",
              "type": "tuple[]"
            },
            {
              "components": [
                {
                  "internalType": "string",
                  "name": "bundleCid",
                  "type": "string"
                },
                {
                  "internalType": "address",
                  "name": "doctorAddress",
                  "type": "address"
                }
              ],
              "internalType": "struct EHRSC.Bundle",
              "name": "bundle",
              "type": "tuple"
            }
          ],
          "indexed": false,
          "internalType": "struct EHRSC.Person",
          "name": "patient",
          "type": "tuple"
        }
      ],
      "name": "PatientRegistered",
      "type": "event"
    },
    {
      "anonymous": false,
      "inputs": [
        {
          "components": [
            {
              "internalType": "address",
              "name": "personAddress",
              "type": "address"
            },
            {
              "internalType": "string",
              "name": "name",
              "type": "string"
            },
            {
              "internalType": "enum EHRSC.EntityClaim",
              "name": "entityClaim",
              "type": "uint8"
            },
            {
              "internalType": "bool",
              "name": "registered",
              "type": "bool"
            },
            {
              "internalType": "bool",
              "name": "verifiedDoctor",
              "type": "bool"
            },
            {
              "internalType": "bool",
              "name": "verifiedPatient",
              "type": "bool"
            },
            {
              "internalType": "bool",
              "name": "verifiedRegulatoryAgencyAdmin",
              "type": "bool"
            },
            {
              "internalType": "bool",
              "name": "verifiedInsuranceCompanyAdmin",
              "type": "bool"
            },
            {
              "internalType": "uint256",
              "name": "requestCount",
              "type": "uint256"
            },
            {
              "components": [
                {
                  "internalType": "uint256",
                  "name": "requestNo",
                  "type": "uint256"
                },
                {
                  "internalType": "address",
                  "name": "requester",
                  "type": "address"
                },
                {
                  "internalType": "string",
                  "name": "bundleCid",
                  "type": "string"
                }
              ],
              "internalType": "struct EHRSC.Request[]",
              "name": "requests",
              "type": "tuple[]"
            },
            {
              "components": [
                {
                  "internalType": "string",
                  "name": "reason",
                  "type": "string"
                },
                {
                  "internalType": "string",
                  "name": "venue",
                  "type": "string"
                },
                {
                  "internalType": "uint256",
                  "name": "date",
                  "type": "uint256"
                },
                {
                  "internalType": "uint256",
                  "name": "time",
                  "type": "uint256"
                }
              ],
              "internalType": "struct EHRSC.Appointment[]",
              "name": "appointments",
              "type": "tuple[]"
            },
            {
              "components": [
                {
                  "internalType": "string",
                  "name": "bundleCid",
                  "type": "string"
                },
                {
                  "internalType": "address",
                  "name": "doctorAddress",
                  "type": "address"
                }
              ],
              "internalType": "struct EHRSC.Bundle",
              "name": "bundle",
              "type": "tuple"
            }
          ],
          "indexed": false,
          "internalType": "struct EHRSC.Person",
          "name": "patient",
          "type": "tuple"
        }
      ],
      "name": "PatientVerified",
      "type": "event"
    },
    {
      "anonymous": false,
      "inputs": [
        {
          "components": [
            {
              "internalType": "address",
              "name": "personAddress",
              "type": "address"
            },
            {
              "internalType": "string",
              "name": "name",
              "type": "string"
            },
            {
              "internalType": "enum EHRSC.EntityClaim",
              "name": "entityClaim",
              "type": "uint8"
            },
            {
              "internalType": "bool",
              "name": "registered",
              "type": "bool"
            },
            {
              "internalType": "bool",
              "name": "verifiedDoctor",
              "type": "bool"
            },
            {
              "internalType": "bool",
              "name": "verifiedPatient",
              "type": "bool"
            },
            {
              "internalType": "bool",
              "name": "verifiedRegulatoryAgencyAdmin",
              "type": "bool"
            },
            {
              "internalType": "bool",
              "name": "verifiedInsuranceCompanyAdmin",
              "type": "bool"
            },
            {
              "internalType": "uint256",
              "name": "requestCount",
              "type": "uint256"
            },
            {
              "components": [
                {
                  "internalType": "uint256",
                  "name": "requestNo",
                  "type": "uint256"
                },
                {
                  "internalType": "address",
                  "name": "requester",
                  "type": "address"
                },
                {
                  "internalType": "string",
                  "name": "bundleCid",
                  "type": "string"
                }
              ],
              "internalType": "struct EHRSC.Request[]",
              "name": "requests",
              "type": "tuple[]"
            },
            {
              "components": [
                {
                  "internalType": "string",
                  "name": "reason",
                  "type": "string"
                },
                {
                  "internalType": "string",
                  "name": "venue",
                  "type": "string"
                },
                {
                  "internalType": "uint256",
                  "name": "date",
                  "type": "uint256"
                },
                {
                  "internalType": "uint256",
                  "name": "time",
                  "type": "uint256"
                }
              ],
              "internalType": "struct EHRSC.Appointment[]",
              "name": "appointments",
              "type": "tuple[]"
            },
            {
              "components": [
                {
                  "internalType": "string",
                  "name": "bundleCid",
                  "type": "string"
                },
                {
                  "internalType": "address",
                  "name": "doctorAddress",
                  "type": "address"
                }
              ],
              "internalType": "struct EHRSC.Bundle",
              "name": "bundle",
              "type": "tuple"
            }
          ],
          "indexed": false,
          "internalType": "struct EHRSC.Person",
          "name": "regulatoryAgencyAdmin",
          "type": "tuple"
        }
      ],
      "name": "RegulatorAgencyAdminVerified",
      "type": "event"
    },
    {
      "anonymous": false,
      "inputs": [
        {
          "components": [
            {
              "internalType": "address",
              "name": "personAddress",
              "type": "address"
            },
            {
              "internalType": "string",
              "name": "name",
              "type": "string"
            },
            {
              "internalType": "enum EHRSC.EntityClaim",
              "name": "entityClaim",
              "type": "uint8"
            },
            {
              "internalType": "bool",
              "name": "registered",
              "type": "bool"
            },
            {
              "internalType": "bool",
              "name": "verifiedDoctor",
              "type": "bool"
            },
            {
              "internalType": "bool",
              "name": "verifiedPatient",
              "type": "bool"
            },
            {
              "internalType": "bool",
              "name": "verifiedRegulatoryAgencyAdmin",
              "type": "bool"
            },
            {
              "internalType": "bool",
              "name": "verifiedInsuranceCompanyAdmin",
              "type": "bool"
            },
            {
              "internalType": "uint256",
              "name": "requestCount",
              "type": "uint256"
            },
            {
              "components": [
                {
                  "internalType": "uint256",
                  "name": "requestNo",
                  "type": "uint256"
                },
                {
                  "internalType": "address",
                  "name": "requester",
                  "type": "address"
                },
                {
                  "internalType": "string",
                  "name": "bundleCid",
                  "type": "string"
                }
              ],
              "internalType": "struct EHRSC.Request[]",
              "name": "requests",
              "type": "tuple[]"
            },
            {
              "components": [
                {
                  "internalType": "string",
                  "name": "reason",
                  "type": "string"
                },
                {
                  "internalType": "string",
                  "name": "venue",
                  "type": "string"
                },
                {
                  "internalType": "uint256",
                  "name": "date",
                  "type": "uint256"
                },
                {
                  "internalType": "uint256",
                  "name": "time",
                  "type": "uint256"
                }
              ],
              "internalType": "struct EHRSC.Appointment[]",
              "name": "appointments",
              "type": "tuple[]"
            },
            {
              "components": [
                {
                  "internalType": "string",
                  "name": "bundleCid",
                  "type": "string"
                },
                {
                  "internalType": "address",
                  "name": "doctorAddress",
                  "type": "address"
                }
              ],
              "internalType": "struct EHRSC.Bundle",
              "name": "bundle",
              "type": "tuple"
            }
          ],
          "indexed": false,
          "internalType": "struct EHRSC.Person",
          "name": "regulatoryAgencyAdmin",
          "type": "tuple"
        }
      ],
      "name": "RegulatoryAgencyAdminRegistered",
      "type": "event"
    },
    {
      "anonymous": false,
      "inputs": [
        {
          "components": [
            {
              "internalType": "string",
              "name": "reason",
              "type": "string"
            },
            {
              "internalType": "string",
              "name": "venue",
              "type": "string"
            },
            {
              "internalType": "uint256",
              "name": "date",
              "type": "uint256"
            },
            {
              "internalType": "uint256",
              "name": "time",
              "type": "uint256"
            }
          ],
          "indexed": false,
          "internalType": "struct EHRSC.Appointment",
          "name": "newAppointment",
          "type": "tuple"
        }
      ],
      "name": "RequestedAppointment",
      "type": "event"
    },
    {
      "anonymous": false,
      "inputs": [
        {
          "components": [
            {
              "internalType": "uint256",
              "name": "requestNo",
              "type": "uint256"
            },
            {
              "internalType": "address",
              "name": "requester",
              "type": "address"
            },
            {
              "internalType": "string",
              "name": "bundleCid",
              "type": "string"
            }
          ],
          "indexed": false,
          "internalType": "struct EHRSC.Request",
          "name": "newRequest",
          "type": "tuple"
        },
        {
          "indexed": false,
          "internalType": "address",
          "name": "patientAddress",
          "type": "address"
        }
      ],
      "name": "RequestedBundle",
      "type": "event"
    },
    {
      "inputs": [],
      "name": "owner",
      "outputs": [
        {
          "internalType": "address",
          "name": "",
          "type": "address"
        }
      ],
      "stateMutability": "view",
      "type": "function",
      "constant": true
    },
    {
      "inputs": [
        {
          "internalType": "address",
          "name": "",
          "type": "address"
        }
      ],
      "name": "persons",
      "outputs": [
        {
          "internalType": "address",
          "name": "personAddress",
          "type": "address"
        },
        {
          "internalType": "string",
          "name": "name",
          "type": "string"
        },
        {
          "internalType": "enum EHRSC.EntityClaim",
          "name": "entityClaim",
          "type": "uint8"
        },
        {
          "internalType": "bool",
          "name": "registered",
          "type": "bool"
        },
        {
          "internalType": "bool",
          "name": "verifiedDoctor",
          "type": "bool"
        },
        {
          "internalType": "bool",
          "name": "verifiedPatient",
          "type": "bool"
        },
        {
          "internalType": "bool",
          "name": "verifiedRegulatoryAgencyAdmin",
          "type": "bool"
        },
        {
          "internalType": "bool",
          "name": "verifiedInsuranceCompanyAdmin",
          "type": "bool"
        },
        {
          "internalType": "uint256",
          "name": "requestCount",
          "type": "uint256"
        },
        {
          "components": [
            {
              "internalType": "string",
              "name": "bundleCid",
              "type": "string"
            },
            {
              "internalType": "address",
              "name": "doctorAddress",
              "type": "address"
            }
          ],
          "internalType": "struct EHRSC.Bundle",
          "name": "bundle",
          "type": "tuple"
        }
      ],
      "stateMutability": "view",
      "type": "function",
      "constant": true
    },
    {
      "inputs": [
        {
          "internalType": "string",
          "name": "_name",
          "type": "string"
        }
      ],
      "name": "registerDoctor",
      "outputs": [],
      "stateMutability": "nonpayable",
      "type": "function"
    },
    {
      "inputs": [
        {
          "internalType": "string",
          "name": "_name",
          "type": "string"
        }
      ],
      "name": "registerPatient",
      "outputs": [],
      "stateMutability": "nonpayable",
      "type": "function"
    },
    {
      "inputs": [
        {
          "internalType": "string",
          "name": "_name",
          "type": "string"
        }
      ],
      "name": "registerRegulatoryAgencyAdmin",
      "outputs": [],
      "stateMutability": "nonpayable",
      "type": "function"
    },
    {
      "inputs": [],
      "name": "getName",
      "outputs": [
        {
          "internalType": "string",
          "name": "",
          "type": "string"
        }
      ],
      "stateMutability": "view",
      "type": "function",
      "constant": true
    },
    {
      "inputs": [],
      "name": "isVerifiedRAAdmin",
      "outputs": [
        {
          "internalType": "bool",
          "name": "",
          "type": "bool"
        }
      ],
      "stateMutability": "view",
      "type": "function",
      "constant": true
    },
    {
      "inputs": [],
      "name": "isVerifiedInsuranceCompanyAdmin",
      "outputs": [
        {
          "internalType": "bool",
          "name": "",
          "type": "bool"
        }
      ],
      "stateMutability": "view",
      "type": "function",
      "constant": true
    },
    {
      "inputs": [],
      "name": "isVerifiedDoctor",
      "outputs": [
        {
          "internalType": "bool",
          "name": "",
          "type": "bool"
        }
      ],
      "stateMutability": "view",
      "type": "function",
      "constant": true
    },
    {
      "inputs": [],
      "name": "isVerifiedPatient",
      "outputs": [
        {
          "internalType": "bool",
          "name": "",
          "type": "bool"
        }
      ],
      "stateMutability": "view",
      "type": "function",
      "constant": true
    },
    {
      "inputs": [
        {
          "internalType": "address",
          "name": "_patientAddress",
          "type": "address"
        },
        {
          "internalType": "string",
          "name": "_bundleCid",
          "type": "string"
        }
      ],
      "name": "updateUploadedBundleInfo",
      "outputs": [],
      "stateMutability": "nonpayable",
      "type": "function"
    },
    {
      "inputs": [
        {
          "internalType": "address",
          "name": "_patientAddress",
          "type": "address"
        }
      ],
      "name": "getPatientBundleCid",
      "outputs": [
        {
          "internalType": "string",
          "name": "",
          "type": "string"
        }
      ],
      "stateMutability": "view",
      "type": "function",
      "constant": true
    },
    {
      "inputs": [
        {
          "internalType": "address",
          "name": "_patientAddress",
          "type": "address"
        },
        {
          "internalType": "string",
          "name": "_bundleCid",
          "type": "string"
        }
      ],
      "name": "requestBundle",
      "outputs": [],
      "stateMutability": "nonpayable",
      "type": "function"
    },
    {
      "inputs": [],
      "name": "validatePatientRequestCount",
      "outputs": [
        {
          "internalType": "uint256",
          "name": "",
          "type": "uint256"
        }
      ],
      "stateMutability": "view",
      "type": "function",
      "constant": true
    },
    {
      "inputs": [
        {
          "internalType": "uint256",
          "name": "index",
          "type": "uint256"
        }
      ],
      "name": "checkPatientRequestAtIndex",
      "outputs": [
        {
          "components": [
            {
              "internalType": "uint256",
              "name": "requestNo",
              "type": "uint256"
            },
            {
              "internalType": "address",
              "name": "requester",
              "type": "address"
            },
            {
              "internalType": "string",
              "name": "bundleCid",
              "type": "string"
            }
          ],
          "internalType": "struct EHRSC.Request",
          "name": "",
          "type": "tuple"
        }
      ],
      "stateMutability": "view",
      "type": "function",
      "constant": true
    },
    {
      "inputs": [
        {
          "internalType": "string",
          "name": "_reason",
          "type": "string"
        },
        {
          "internalType": "string",
          "name": "_venue",
          "type": "string"
        },
        {
          "internalType": "uint256",
          "name": "_date",
          "type": "uint256"
        },
        {
          "internalType": "uint256",
          "name": "_time",
          "type": "uint256"
        }
      ],
      "name": "requestAppointment",
      "outputs": [],
      "stateMutability": "nonpayable",
      "type": "function"
    },
    {
      "inputs": [
        {
          "internalType": "address",
          "name": "_personAddress",
          "type": "address"
        }
      ],
      "name": "verifyByOwner",
      "outputs": [],
      "stateMutability": "nonpayable",
      "type": "function"
    },
    {
      "inputs": [],
      "name": "getOwner",
      "outputs": [
        {
          "internalType": "address",
          "name": "",
          "type": "address"
        }
      ],
      "stateMutability": "view",
      "type": "function",
      "constant": true
    },
    {
      "inputs": [
        {
          "internalType": "address",
          "name": "_personAddress",
          "type": "address"
        }
      ],
      "name": "regulatoryAgencyAdminVerify",
      "outputs": [],
      "stateMutability": "nonpayable",
      "type": "function"
    }
  ],
  "bytecode": "0x608060405234801561001057600080fd5b50336000806101000a81548173ffffffffffffffffffffffffffffffffffffffff021916908373ffffffffffffffffffffffffffffffffffffffff160217905550613552806100606000396000f3fe608060405234801561001057600080fd5b506004361061013e576000357c0100000000000000000000000000000000000000000000000000000000900480636f5891b9116100ca5780638da5cb5b1161008e5780638da5cb5b146103085780638f09ab5b14610326578063b5eed62e14610342578063c0d0dd1b14610372578063e96365571461038e5761013e565b80636f5891b91461025d578063869c9eaf1461027957806387e788e014610295578063893d20e8146102b15780638ada2cf6146102cf5761013e565b806337f519691161011157806337f51969146101cd5780633df97ca5146101eb578063407a9c5a14610209578063408425f81461022557806340d990f0146102415761013e565b806317d7de7c1461014357806324d8a959146101615780632a4a5c6a1461017f57806332e257dd146101af575b600080fd5b61014b6103ac565b6040516101589190612e9e565b60405180910390f35b61016961047e565b6040516101769190612e83565b60405180910390f35b6101996004803603810190610194919061236d565b6104d5565b6040516101a69190612e9e565b60405180910390f35b6101b76105ac565b6040516101c49190613038565b60405180910390f35b6101d5610685565b6040516101e29190612e83565b60405180910390f35b6101f36106dc565b6040516102009190612e83565b60405180910390f35b610223600480360381019061021e919061236d565b610733565b005b61023f600480360381019061023a9190612396565b610e33565b005b61025b600480360381019061025691906123ea565b610fa0565b005b6102776004803603810190610272919061236d565b6111ee565b005b610293600480360381019061028e91906123ea565b6113a2565b005b6102af60048036038101906102aa9190612396565b6115fa565b005b6102b9611902565b6040516102c69190612dbe565b60405180910390f35b6102e960048036038101906102e4919061236d565b61192b565b6040516102ff9a99989796959493929190612dd9565b60405180910390f35b610310611b67565b60405161031d9190612dbe565b60405180910390f35b610340600480360381019061033b91906123ea565b611b8b565b005b61035c600480360381019061035791906124be565b611dd9565b6040516103699190612fe6565b60405180910390f35b61038c6004803603810190610387919061242b565b611ffc565b005b6103966121aa565b6040516103a39190612e83565b60405180910390f35b6060600160003373ffffffffffffffffffffffffffffffffffffffff1673ffffffffffffffffffffffffffffffffffffffff16815260200190815260200160002060010180546103fb90613265565b80601f016020809104026020016040519081016040528092919081815260200182805461042790613265565b80156104745780601f1061044957610100808354040283529160200191610474565b820191906000526020600020905b81548152906001019060200180831161045757829003601f168201915b5050505050905090565b6000600160003373ffffffffffffffffffffffffffffffffffffffff1673ffffffffffffffffffffffffffffffffffffffff16815260200190815260200160002060020160049054906101000a900460ff16905090565b6060600160008373ffffffffffffffffffffffffffffffffffffffff1673ffffffffffffffffffffffffffffffffffffffff168152602001908152602001600020600601600001805461052790613265565b80601f016020809104026020016040519081016040528092919081815260200182805461055390613265565b80156105a05780601f10610575576101008083540402835291602001916105a0565b820191906000526020600020905b81548152906001019060200180831161058357829003601f168201915b50505050509050919050565b6000600160003373ffffffffffffffffffffffffffffffffffffffff1673ffffffffffffffffffffffffffffffffffffffff16815260200190815260200160002060020160039054906101000a900460ff1661063d576040517f08c379a000000000000000000000000000000000000000000000000000000000815260040161063490612f20565b60405180910390fd5b600160003373ffffffffffffffffffffffffffffffffffffffff1673ffffffffffffffffffffffffffffffffffffffff16815260200190815260200160002060030154905090565b6000600160003373ffffffffffffffffffffffffffffffffffffffff1673ffffffffffffffffffffffffffffffffffffffff16815260200190815260200160002060020160029054906101000a900460ff16905090565b6000600160003373ffffffffffffffffffffffffffffffffffffffff1673ffffffffffffffffffffffffffffffffffffffff16815260200190815260200160002060020160039054906101000a900460ff16905090565b600160003373ffffffffffffffffffffffffffffffffffffffff1673ffffffffffffffffffffffffffffffffffffffff16815260200190815260200160002060020160049054906101000a900460ff166107c2576040517f08c379a00000000000000000000000000000000000000000000000000000000081526004016107b990612f60565b60405180910390fd5b600060038111156107fc577f4e487b7100000000000000000000000000000000000000000000000000000000600052602160045260246000fd5b600160008373ffffffffffffffffffffffffffffffffffffffff1673ffffffffffffffffffffffffffffffffffffffff16815260200190815260200160002060020160009054906101000a900460ff166003811115610884577f4e487b7100000000000000000000000000000000000000000000000000000000600052602160045260246000fd5b141561095e5760018060008373ffffffffffffffffffffffffffffffffffffffff1673ffffffffffffffffffffffffffffffffffffffff16815260200190815260200160002060020160046101000a81548160ff0219169083151502179055507fa8f5a57f83cdcc6eb83fbc6c886307dd787843c75eeb2025fc5c395711ffd990600160008373ffffffffffffffffffffffffffffffffffffffff1673ffffffffffffffffffffffffffffffffffffffff1681526020019081526020016000206040516109519190612fa2565b60405180910390a1610e30565b60016003811115610998577f4e487b7100000000000000000000000000000000000000000000000000000000600052602160045260246000fd5b600160008373ffffffffffffffffffffffffffffffffffffffff1673ffffffffffffffffffffffffffffffffffffffff16815260200190815260200160002060020160009054906101000a900460ff166003811115610a20577f4e487b7100000000000000000000000000000000000000000000000000000000600052602160045260246000fd5b1415610afa5760018060008373ffffffffffffffffffffffffffffffffffffffff1673ffffffffffffffffffffffffffffffffffffffff16815260200190815260200160002060020160026101000a81548160ff0219169083151502179055507fbf5eaae39fca8a17d4e0ed5dcbd5672ccacb5eab356c30d44bbf4cdcd7705415600160008373ffffffffffffffffffffffffffffffffffffffff1673ffffffffffffffffffffffffffffffffffffffff168152602001908152602001600020604051610aed9190612fa2565b60405180910390a1610e2f565b60026003811115610b34577f4e487b7100000000000000000000000000000000000000000000000000000000600052602160045260246000fd5b600160008373ffffffffffffffffffffffffffffffffffffffff1673ffffffffffffffffffffffffffffffffffffffff16815260200190815260200160002060020160009054906101000a900460ff166003811115610bbc577f4e487b7100000000000000000000000000000000000000000000000000000000600052602160045260246000fd5b1415610c965760018060008373ffffffffffffffffffffffffffffffffffffffff1673ffffffffffffffffffffffffffffffffffffffff16815260200190815260200160002060020160036101000a81548160ff0219169083151502179055507fb568190b8ce05e15045169284244c46fb764156641c13ab5b8cd93963f21049b600160008373ffffffffffffffffffffffffffffffffffffffff1673ffffffffffffffffffffffffffffffffffffffff168152602001908152602001600020604051610c899190612fa2565b60405180910390a1610e2e565b600380811115610ccf577f4e487b7100000000000000000000000000000000000000000000000000000000600052602160045260246000fd5b600160008373ffffffffffffffffffffffffffffffffffffffff1673ffffffffffffffffffffffffffffffffffffffff16815260200190815260200160002060020160009054906101000a900460ff166003811115610d57577f4e487b7100000000000000000000000000000000000000000000000000000000600052602160045260246000fd5b1415610e2d5760018060008373ffffffffffffffffffffffffffffffffffffffff1673ffffffffffffffffffffffffffffffffffffffff16815260200190815260200160002060020160056101000a81548160ff0219169083151502179055507f898a15d013c34751338636dcdf75df74d38a7d21723a0b0da0ef2855bea6b5f6600160008373ffffffffffffffffffffffffffffffffffffffff1673ffffffffffffffffffffffffffffffffffffffff168152602001908152602001600020604051610e249190612fa2565b60405180910390a15b5b5b5b50565b600160003373ffffffffffffffffffffffffffffffffffffffff1673ffffffffffffffffffffffffffffffffffffffff16815260200190815260200160002060020160029054906101000a900460ff16610ec2576040517f08c379a0000000000000000000000000000000000000000000000000000000008152600401610eb990612ee0565b60405180910390fd5b600060405180604001604052808381526020013373ffffffffffffffffffffffffffffffffffffffff16815250905080600160008573ffffffffffffffffffffffffffffffffffffffff1673ffffffffffffffffffffffffffffffffffffffff1681526020019081526020016000206006016000820151816000019080519060200190610f50929190612201565b5060208201518160010160006101000a81548173ffffffffffffffffffffffffffffffffffffffff021916908373ffffffffffffffffffffffffffffffffffffffff160217905550905050505050565b600160003373ffffffffffffffffffffffffffffffffffffffff1673ffffffffffffffffffffffffffffffffffffffff16815260200190815260200160002060020160019054906101000a900460ff1615611030576040517f08c379a000000000000000000000000000000000000000000000000000000000815260040161102790612f40565b60405180910390fd5b6000600160003373ffffffffffffffffffffffffffffffffffffffff1673ffffffffffffffffffffffffffffffffffffffff1681526020019081526020016000209050338160000160006101000a81548173ffffffffffffffffffffffffffffffffffffffff021916908373ffffffffffffffffffffffffffffffffffffffff160217905550818160010190805190602001906110ce929190612201565b5060008160020160006101000a81548160ff0219169083600381111561111d577f4e487b7100000000000000000000000000000000000000000000000000000000600052602160045260246000fd5b021790555060018160020160016101000a81548160ff02191690831515021790555060008160020160026101000a81548160ff02191690831515021790555060008160020160036101000a81548160ff02191690831515021790555060008160020160046101000a81548160ff02191690831515021790555060008160020160056101000a81548160ff0219169083151502179055507f12dbc2e819f5eaf2877602d78ec94d7fb4fabd1b1dc1db7457784cdfb95588a9816040516111e29190612fc4565b60405180910390a15050565b3373ffffffffffffffffffffffffffffffffffffffff1660008054906101000a900473ffffffffffffffffffffffffffffffffffffffff1673ffffffffffffffffffffffffffffffffffffffff161461127c576040517f08c379a000000000000000000000000000000000000000000000000000000000815260040161127390612f00565b60405180910390fd5b600060038111156112b6577f4e487b7100000000000000000000000000000000000000000000000000000000600052602160045260246000fd5b600160008373ffffffffffffffffffffffffffffffffffffffff1673ffffffffffffffffffffffffffffffffffffffff16815260200190815260200160002060020160009054906101000a900460ff16600381111561133e577f4e487b7100000000000000000000000000000000000000000000000000000000600052602160045260246000fd5b141561139f5760018060008373ffffffffffffffffffffffffffffffffffffffff1673ffffffffffffffffffffffffffffffffffffffff16815260200190815260200160002060020160046101000a81548160ff0219169083151502179055505b50565b600160003373ffffffffffffffffffffffffffffffffffffffff1673ffffffffffffffffffffffffffffffffffffffff16815260200190815260200160002060020160019054906101000a900460ff1615611432576040517f08c379a000000000000000000000000000000000000000000000000000000000815260040161142990612f40565b60405180910390fd5b6000600160003373ffffffffffffffffffffffffffffffffffffffff1673ffffffffffffffffffffffffffffffffffffffff1681526020019081526020016000209050338160000160006101000a81548173ffffffffffffffffffffffffffffffffffffffff021916908373ffffffffffffffffffffffffffffffffffffffff160217905550818160010190805190602001906114d0929190612201565b5060028160020160006101000a81548160ff0219169083600381111561151f577f4e487b7100000000000000000000000000000000000000000000000000000000600052602160045260246000fd5b021790555060018160020160016101000a81548160ff02191690831515021790555060008160020160026101000a81548160ff02191690831515021790555060008160020160036101000a81548160ff02191690831515021790555060008160020160046101000a81548160ff02191690831515021790555060008160020160056101000a81548160ff021916908315150217905550600081600301819055507f05bf996b4a317b36e8d6d7019c9497db15cb0a5d7ccb455c847127e3f3e9e56a816040516115ee9190612fc4565b60405180910390a15050565b600160003373ffffffffffffffffffffffffffffffffffffffff1673ffffffffffffffffffffffffffffffffffffffff16815260200190815260200160002060020160029054906101000a900460ff16611689576040517f08c379a000000000000000000000000000000000000000000000000000000000815260040161168090612ee0565b60405180910390fd5b600160008373ffffffffffffffffffffffffffffffffffffffff1673ffffffffffffffffffffffffffffffffffffffff16815260200190815260200160002060020160039054906101000a900460ff16611718576040517f08c379a000000000000000000000000000000000000000000000000000000000815260040161170f90612ec0565b60405180910390fd5b6000600160008473ffffffffffffffffffffffffffffffffffffffff1673ffffffffffffffffffffffffffffffffffffffff168152602001908152602001600020600301549050600060405180606001604052808381526020013373ffffffffffffffffffffffffffffffffffffffff168152602001848152509050600160008573ffffffffffffffffffffffffffffffffffffffff1673ffffffffffffffffffffffffffffffffffffffff1681526020019081526020016000206004018190806001815401808255809150506001900390600052602060002090600302016000909190919091506000820151816000015560208201518160010160006101000a81548173ffffffffffffffffffffffffffffffffffffffff021916908373ffffffffffffffffffffffffffffffffffffffff160217905550604082015181600201908051906020019061186d929190612201565b5050508161187a90613367565b915081600160008673ffffffffffffffffffffffffffffffffffffffff1673ffffffffffffffffffffffffffffffffffffffff168152602001908152602001600020600301819055507f52a7c3971b0b45d2f138466088980eaca106d12ed0ebd3d2daa4a7e57f09c42481856040516118f4929190613008565b60405180910390a150505050565b60008060009054906101000a900473ffffffffffffffffffffffffffffffffffffffff16905090565b60016020528060005260406000206000915090508060000160009054906101000a900473ffffffffffffffffffffffffffffffffffffffff169080600101805461197490613265565b80601f01602080910402602001604051908101604052809291908181526020018280546119a090613265565b80156119ed5780601f106119c2576101008083540402835291602001916119ed565b820191906000526020600020905b8154815290600101906020018083116119d057829003601f168201915b5050505050908060020160009054906101000a900460ff16908060020160019054906101000a900460ff16908060020160029054906101000a900460ff16908060020160039054906101000a900460ff16908060020160049054906101000a900460ff16908060020160059054906101000a900460ff169080600301549080600601604051806040016040529081600082018054611a8a90613265565b80601f0160208091040260200160405190810160405280929190818152602001828054611ab690613265565b8015611b035780601f10611ad857610100808354040283529160200191611b03565b820191906000526020600020905b815481529060010190602001808311611ae657829003601f168201915b505050505081526020016001820160009054906101000a900473ffffffffffffffffffffffffffffffffffffffff1673ffffffffffffffffffffffffffffffffffffffff1673ffffffffffffffffffffffffffffffffffffffff168152505090508a565b60008054906101000a900473ffffffffffffffffffffffffffffffffffffffff1681565b600160003373ffffffffffffffffffffffffffffffffffffffff1673ffffffffffffffffffffffffffffffffffffffff16815260200190815260200160002060020160019054906101000a900460ff1615611c1b576040517f08c379a0000000000000000000000000000000000000000000000000000000008152600401611c1290612f40565b60405180910390fd5b6000600160003373ffffffffffffffffffffffffffffffffffffffff1673ffffffffffffffffffffffffffffffffffffffff1681526020019081526020016000209050338160000160006101000a81548173ffffffffffffffffffffffffffffffffffffffff021916908373ffffffffffffffffffffffffffffffffffffffff16021790555081816001019080519060200190611cb9929190612201565b5060018160020160006101000a81548160ff02191690836003811115611d08577f4e487b7100000000000000000000000000000000000000000000000000000000600052602160045260246000fd5b021790555060018160020160016101000a81548160ff02191690831515021790555060008160020160026101000a81548160ff02191690831515021790555060008160020160036101000a81548160ff02191690831515021790555060008160020160046101000a81548160ff02191690831515021790555060008160020160056101000a81548160ff0219169083151502179055507f8b40d48777931f5284fe3ac22bd63c5d0f3bb33e65ca739dbb19927427ddab9181604051611dcd9190612fc4565b60405180910390a15050565b611de1612287565b600160003373ffffffffffffffffffffffffffffffffffffffff1673ffffffffffffffffffffffffffffffffffffffff16815260200190815260200160002060020160039054906101000a900460ff16611e70576040517f08c379a0000000000000000000000000000000000000000000000000000000008152600401611e6790612f20565b60405180910390fd5b600160003373ffffffffffffffffffffffffffffffffffffffff1673ffffffffffffffffffffffffffffffffffffffff1681526020019081526020016000206004018281548110611eea577f4e487b7100000000000000000000000000000000000000000000000000000000600052603260045260246000fd5b9060005260206000209060030201604051806060016040529081600082015481526020016001820160009054906101000a900473ffffffffffffffffffffffffffffffffffffffff1673ffffffffffffffffffffffffffffffffffffffff1673ffffffffffffffffffffffffffffffffffffffff168152602001600282018054611f7390613265565b80601f0160208091040260200160405190810160405280929190818152602001828054611f9f90613265565b8015611fec5780601f10611fc157610100808354040283529160200191611fec565b820191906000526020600020905b815481529060010190602001808311611fcf57829003601f168201915b5050505050815250509050919050565b600160003373ffffffffffffffffffffffffffffffffffffffff1673ffffffffffffffffffffffffffffffffffffffff16815260200190815260200160002060020160039054906101000a900460ff1661208b576040517f08c379a000000000000000000000000000000000000000000000000000000000815260040161208290612f20565b60405180910390fd5b60006040518060800160405280868152602001858152602001848152602001838152509050600160003373ffffffffffffffffffffffffffffffffffffffff1673ffffffffffffffffffffffffffffffffffffffff1681526020019081526020016000206005018190806001815401808255809150506001900390600052602060002090600402016000909190919091506000820151816000019080519060200190612138929190612201565b506020820151816001019080519060200190612155929190612201565b50604082015181600201556060820151816003015550507f7058516056f92f6e7765a333be422d27865510565de1b5a67e667d4c585138f78160405161219b9190612f80565b60405180910390a15050505050565b6000600160003373ffffffffffffffffffffffffffffffffffffffff1673ffffffffffffffffffffffffffffffffffffffff16815260200190815260200160002060020160059054906101000a900460ff16905090565b82805461220d90613265565b90600052602060002090601f01602090048101928261222f5760008555612276565b82601f1061224857805160ff1916838001178555612276565b82800160010185558215612276579182015b8281111561227557825182559160200191906001019061225a565b5b50905061228391906122be565b5090565b604051806060016040528060008152602001600073ffffffffffffffffffffffffffffffffffffffff168152602001606081525090565b5b808211156122d75760008160009055506001016122bf565b5090565b60006122ee6122e984613084565b613053565b90508281526020810184848401111561230657600080fd5b612311848285613223565b509392505050565b600081359050612328816134ee565b92915050565b600082601f83011261233f57600080fd5b813561234f8482602086016122db565b91505092915050565b60008135905061236781613505565b92915050565b60006020828403121561237f57600080fd5b600061238d84828501612319565b91505092915050565b600080604083850312156123a957600080fd5b60006123b785828601612319565b925050602083013567ffffffffffffffff8111156123d457600080fd5b6123e08582860161232e565b9150509250929050565b6000602082840312156123fc57600080fd5b600082013567ffffffffffffffff81111561241657600080fd5b6124228482850161232e565b91505092915050565b6000806000806080858703121561244157600080fd5b600085013567ffffffffffffffff81111561245b57600080fd5b6124678782880161232e565b945050602085013567ffffffffffffffff81111561248457600080fd5b6124908782880161232e565b93505060406124a187828801612358565b92505060606124b287828801612358565b91505092959194509250565b6000602082840312156124d057600080fd5b60006124de84828501612358565b91505092915050565b60006124f38383612953565b905092915050565b60006125078383612d39565b905092915050565b612518816131b6565b82525050565b612527816131b6565b82525050565b6000612538826130f3565b612542818561312e565b935083602082028501612554856130b4565b8060005b8581101561258f5784840389528161257085826124e7565b945061257b83613114565b925060208a01995050600181019050612558565b50829750879550505050505092915050565b60006125ac826130fe565b6125b6818561313f565b9350836020820285016125c8856130c9565b8060005b85811015612603578484038952816125e485826124fb565b94506125ef83613121565b925060208a019950506001810190506125cc565b50829750879550505050505092915050565b61261e816131c8565b82525050565b61262d816131c8565b82525050565b61263c81613211565b82525050565b61264b81613211565b82525050565b600061265c82613109565b6126668185613150565b9350612676818560208601613232565b61267f8161346c565b840191505092915050565b600061269582613109565b61269f8185613161565b93506126af818560208601613232565b6126b88161346c565b840191505092915050565b600081546126d081613265565b6126da8186613150565b945060018216600081146126f557600181146127075761273a565b60ff198316865260208601935061273a565b612710856130de565b60005b8381101561273257815481890152600182019150602081019050612713565b808801955050505b50505092915050565b6000612750601883613161565b91507f50617469656e74206d75737420626520766572696669656400000000000000006000830152602082019050919050565b6000612790601083613161565b91507f4d757374206265206120646f63746f72000000000000000000000000000000006000830152602082019050919050565b60006127d0601083613161565b91507f4d75737420626520616e206f776e6572000000000000000000000000000000006000830152602082019050919050565b6000612810601183613161565b91507f4d75737420626520612070617469656e740000000000000000000000000000006000830152602082019050919050565b6000612850601983613161565b91507f506572736f6e20616c72656164792072656769737465726564000000000000006000830152602082019050919050565b6000612890602183613161565b91507f4d757374206265206120726567756c61746f7279206167656e63792061646d6960008301527f6e000000000000000000000000000000000000000000000000000000000000006020830152604082019050919050565b600060808301600083015184820360008601526129068282612651565b915050602083015184820360208601526129208282612651565b91505060408301516129356040860182612da0565b5060608301516129486060860182612da0565b508091505092915050565b6000608083016000808401858303600087015261297083826126c3565b92505060018401858303602087015261298983826126c3565b9250506002840154905061299c816132cb565b6129a96040870182612da0565b50600384015490506129ba816132cb565b6129c76060870182612da0565b50819250505092915050565b600060408301600083015184820360008601526129f08282612651565b9150506020830151612a05602086018261250f565b508091505092915050565b60006040830160008084018583036000870152612a2d83826126c3565b92505060018401549050612a4081613297565b612a4d602087018261250f565b50819250505092915050565b600061018083016000808401549050612a7181613297565b612a7e600087018261250f565b50600184018583036020870152612a9583826126c3565b92505060028401549050612aa8816132b1565b612ab56040870182612633565b50612abf816132e5565b612acc6060870182612615565b50612ad6816132ff565b612ae36080870182612615565b50612aed81613319565b612afa60a0870182612615565b50612b0481613333565b612b1160c0870182612615565b50612b1b8161334d565b612b2860e0870182612615565b5060038401549050612b39816132cb565b612b47610100870182612da0565b5060048401858303610120870152612b5f83826125a1565b92505060058401858303610140870152612b79838261252d565b92505060068401858303610160870152612b938382612a10565b925050819250505092915050565b600061018083016000808401549050612bb981613297565b612bc6600087018261250f565b50600184018583036020870152612bdd83826126c3565b92505060028401549050612bf0816132b1565b612bfd6040870182612633565b50612c07816132e5565b612c146060870182612615565b50612c1e816132ff565b612c2b6080870182612615565b50612c3581613319565b612c4260a0870182612615565b50612c4c81613333565b612c5960c0870182612615565b50612c638161334d565b612c7060e0870182612615565b5060038401549050612c81816132cb565b612c8f610100870182612da0565b5060048401858303610120870152612ca783826125a1565b92505060058401858303610140870152612cc1838261252d565b92505060068401858303610160870152612cdb8382612a10565b925050819250505092915050565b6000606083016000830151612d016000860182612da0565b506020830151612d14602086018261250f565b5060408301518482036040860152612d2c8282612651565b9150508091505092915050565b6000606083016000808401549050612d50816132cb565b612d5d6000870182612da0565b5060018401549050612d6e81613297565b612d7b602087018261250f565b50600284018583036040870152612d9283826126c3565b925050819250505092915050565b612da981613207565b82525050565b612db881613207565b82525050565b6000602082019050612dd3600083018461251e565b92915050565b600061014082019050612def600083018d61251e565b8181036020830152612e01818c61268a565b9050612e10604083018b612642565b612e1d606083018a612624565b612e2a6080830189612624565b612e3760a0830188612624565b612e4460c0830187612624565b612e5160e0830186612624565b612e5f610100830185612daf565b818103610120830152612e7281846129d3565b90509b9a5050505050505050505050565b6000602082019050612e986000830184612624565b92915050565b60006020820190508181036000830152612eb8818461268a565b905092915050565b60006020820190508181036000830152612ed981612743565b9050919050565b60006020820190508181036000830152612ef981612783565b9050919050565b60006020820190508181036000830152612f19816127c3565b9050919050565b60006020820190508181036000830152612f3981612803565b9050919050565b60006020820190508181036000830152612f5981612843565b9050919050565b60006020820190508181036000830152612f7981612883565b9050919050565b60006020820190508181036000830152612f9a81846128e9565b905092915050565b60006020820190508181036000830152612fbc8184612ba1565b905092915050565b60006020820190508181036000830152612fde8184612a59565b905092915050565b600060208201905081810360008301526130008184612ce9565b905092915050565b600060408201905081810360008301526130228185612ce9565b9050613031602083018461251e565b9392505050565b600060208201905061304d6000830184612daf565b92915050565b6000604051905081810181811067ffffffffffffffff8211171561307a5761307961343d565b5b8060405250919050565b600067ffffffffffffffff82111561309f5761309e61343d565b5b601f19601f8301169050602081019050919050565b60008190508160005260206000209050919050565b60008190508160005260206000209050919050565b60008190508160005260206000209050919050565b600081549050919050565b600081549050919050565b600081519050919050565b6000600482019050919050565b6000600382019050919050565b600082825260208201905092915050565b600082825260208201905092915050565b600082825260208201905092915050565b600082825260208201905092915050565b600073ffffffffffffffffffffffffffffffffffffffff82169050919050565b600060ff82169050919050565b600060ff82169050919050565b6000819050919050565b60006131c1826131e7565b9050919050565b60008115159050919050565b60008190506131e2826134da565b919050565b600073ffffffffffffffffffffffffffffffffffffffff82169050919050565b6000819050919050565b600061321c826131d4565b9050919050565b82818337600083830152505050565b60005b83811015613250578082015181840152602081019050613235565b8381111561325f576000848401525b50505050565b6000600282049050600182168061327d57607f821691505b602082108114156132915761329061340e565b5b50919050565b60006132aa6132a58361347d565b613172565b9050919050565b60006132c46132bf8361347d565b61319f565b9050919050565b60006132de6132d98361347d565b6131ac565b9050919050565b60006132f86132f3836134cc565b613192565b9050919050565b600061331261330d8361348a565b613192565b9050919050565b600061332c61332783613499565b613192565b9050919050565b6000613346613341836134a9565b613192565b9050919050565b600061336061335b836134ba565b613192565b9050919050565b600061337282613207565b91507fffffffffffffffffffffffffffffffffffffffffffffffffffffffffffffffff8214156133a5576133a46133b0565b5b600182019050919050565b7f4e487b7100000000000000000000000000000000000000000000000000000000600052601160045260246000fd5b7f4e487b7100000000000000000000000000000000000000000000000000000000600052602160045260246000fd5b7f4e487b7100000000000000000000000000000000000000000000000000000000600052602260045260246000fd5b7f4e487b7100000000000000000000000000000000000000000000000000000000600052604160045260246000fd5b6000601f19601f8301169050919050565b6000600182049050919050565b60006201000082049050919050565b6000630100000082049050919050565b600064010000000082049050919050565b60006501000000000082049050919050565b600061010082049050919050565b600481106134eb576134ea6133df565b5b50565b6134f7816131b6565b811461350257600080fd5b50565b61350e81613207565b811461351957600080fd5b5056fea2646970667358221220dc02fdf3477246b270916c28eb6ac019780604984e3d3c15eb6599e010085b8564736f6c63430008000033",
  "immutableReferences": {},
  "source": "// SPDX-License-Identifier: MIT\r\npragma solidity >=0.7.0 <0.9.0;\r\n\r\ncontract EHRSC {\r\n    address public owner;\r\n\r\n    mapping(address => Person) public persons;\r\n\r\n    enum EntityClaim {\r\n        REGULATORY_AGENCY_ADMIN,\r\n        DOCTOR,\r\n        PATIENT,\r\n        INSURANCE_COMPANY_ADMIN\r\n    }\r\n\r\n    event DoctorRegistered(Person doctor);\r\n    event PatientRegistered(Person patient);\r\n    event RegulatoryAgencyAdminRegistered(Person regulatoryAgencyAdmin);\r\n    event InsuranceCompanyAdminRegistered(Person insuranceCompanyAdmin);\r\n    event DoctorVerified(Person doctor);\r\n    event PatientVerified(Person patient);\r\n    event RegulatorAgencyAdminVerified(Person regulatoryAgencyAdmin);\r\n    event InsuranceCompanyAdminVerified(Person insuranceCompanyAdmin);\r\n    event RequestedBundle(Request newRequest, address patientAddress);\r\n    event RequestedAppointment(Appointment newAppointment);\r\n\r\n    struct Appointment {\r\n        string reason;\r\n        string venue;\r\n        uint256 date;\r\n        uint256 time;\r\n    }\r\n\r\n    struct Person {\r\n        address personAddress;\r\n        // add Umbral public key\r\n        string name;\r\n        EntityClaim entityClaim;\r\n        bool registered;\r\n        bool verifiedDoctor;\r\n        bool verifiedPatient;\r\n        bool verifiedRegulatoryAgencyAdmin;\r\n        bool verifiedInsuranceCompanyAdmin;\r\n        uint256 requestCount;\r\n        Request[] requests;\r\n        Appointment[] appointments;\r\n        Bundle bundle;\r\n    }\r\n\r\n    struct Bundle {\r\n        string bundleCid;\r\n        address doctorAddress;\r\n    }\r\n\r\n    struct Request {\r\n        uint256 requestNo;\r\n        address requester;\r\n        string bundleCid;\r\n    }\r\n\r\n    // struct InsuranceCompany {}\r\n    // struct Laboratory {}\r\n    // struct Pharmacy {}\r\n    // struct RegulatoryAgency {}\r\n    // struct HealthRecord {}\r\n    // struct Hospital {}\r\n\r\n    modifier onlyDoctor() {\r\n        require(persons[msg.sender].verifiedDoctor, \"Must be a doctor\");\r\n        _;\r\n    }\r\n\r\n    modifier onlyPatient() {\r\n        require(persons[msg.sender].verifiedPatient, \"Must be a patient\");\r\n        _;\r\n    }\r\n\r\n    modifier onlyOwner() {\r\n        require(owner == msg.sender, \"Must be an owner\");\r\n        _;\r\n    }\r\n\r\n    modifier onlyRegulatoryAgencyAdmin() {\r\n        require(\r\n            persons[msg.sender].verifiedRegulatoryAgencyAdmin,\r\n            \"Must be a regulatory agency admin\"\r\n        );\r\n        _;\r\n    }\r\n\r\n    modifier onlyInsuranceCompanyAdmin() {\r\n        require(\r\n            persons[msg.sender].verifiedInsuranceCompanyAdmin,\r\n            \"Must be a insurance company admin\"\r\n        );\r\n        _;\r\n    }\r\n\r\n    modifier onlyRegistered() {\r\n        require(!persons[msg.sender].registered, \"Person already registered\");\r\n        _;\r\n    }\r\n\r\n    constructor() {\r\n        owner = msg.sender;\r\n    }\r\n\r\n    function registerDoctor(string memory _name) public onlyRegistered {\r\n        Person storage doctor = persons[msg.sender];\r\n        doctor.personAddress = msg.sender;\r\n        doctor.name = _name;\r\n        doctor.entityClaim = EntityClaim.DOCTOR;\r\n        doctor.registered = true;\r\n        doctor.verifiedDoctor = false;\r\n        doctor.verifiedPatient = false;\r\n        doctor.verifiedRegulatoryAgencyAdmin = false;\r\n        doctor.verifiedInsuranceCompanyAdmin = false;\r\n        emit DoctorRegistered(doctor);\r\n    }\r\n\r\n    function registerPatient(string memory _name) public onlyRegistered {\r\n        Person storage patient = persons[msg.sender];\r\n        patient.personAddress = msg.sender;\r\n        patient.name = _name;\r\n        patient.entityClaim = EntityClaim.PATIENT;\r\n        patient.registered = true;\r\n        patient.verifiedDoctor = false;\r\n        patient.verifiedPatient = false;\r\n        patient.verifiedRegulatoryAgencyAdmin = false;\r\n        patient.verifiedInsuranceCompanyAdmin = false;\r\n        patient.requestCount = 0;\r\n        emit PatientRegistered(patient);\r\n    }\r\n\r\n    function registerRegulatoryAgencyAdmin(string memory _name)\r\n        public\r\n        onlyRegistered\r\n    {\r\n        Person storage regulatoryAgencyAdmin = persons[msg.sender];\r\n        regulatoryAgencyAdmin.personAddress = msg.sender;\r\n        regulatoryAgencyAdmin.name = _name;\r\n        regulatoryAgencyAdmin.entityClaim = EntityClaim.REGULATORY_AGENCY_ADMIN;\r\n        regulatoryAgencyAdmin.registered = true;\r\n        regulatoryAgencyAdmin.verifiedDoctor = false;\r\n        regulatoryAgencyAdmin.verifiedPatient = false;\r\n        regulatoryAgencyAdmin.verifiedRegulatoryAgencyAdmin = false;\r\n        regulatoryAgencyAdmin.verifiedInsuranceCompanyAdmin = false;\r\n        emit RegulatoryAgencyAdminRegistered(regulatoryAgencyAdmin);\r\n    }\r\n\r\n    function getName() public view returns (string memory) {\r\n        return persons[msg.sender].name;\r\n    }\r\n\r\n    function isVerifiedRAAdmin() public view returns (bool) {\r\n        return persons[msg.sender].verifiedRegulatoryAgencyAdmin;\r\n    }\r\n\r\n    function isVerifiedInsuranceCompanyAdmin() public view returns (bool) {\r\n        return persons[msg.sender].verifiedInsuranceCompanyAdmin;\r\n    }\r\n\r\n    function isVerifiedDoctor() public view returns (bool) {\r\n        return persons[msg.sender].verifiedDoctor;\r\n    }\r\n\r\n    function isVerifiedPatient() public view returns (bool) {\r\n        return persons[msg.sender].verifiedPatient;\r\n    }\r\n\r\n    function updateUploadedBundleInfo(\r\n        address _patientAddress,\r\n        string memory _bundleCid\r\n    ) public onlyDoctor {\r\n        // // require verified patient\r\n        // require(\r\n        //     persons[_patientAddress].verifiedPatient,\r\n        //     \"Patient must be verified\"\r\n        // );\r\n\r\n        Bundle memory newBundle = Bundle(_bundleCid, msg.sender);\r\n        persons[_patientAddress].bundle = newBundle; // assign the bundleNo to patient for reference\r\n    }\r\n\r\n    function getPatientBundleCid(address _patientAddress)\r\n        public\r\n        view\r\n        returns (string memory)\r\n    {\r\n        return persons[_patientAddress].bundle.bundleCid;\r\n    }\r\n\r\n    function requestBundle(address _patientAddress, string memory _bundleCid)\r\n        public\r\n        onlyDoctor\r\n    {\r\n        require(\r\n            persons[_patientAddress].verifiedPatient,\r\n            \"Patient must be verified\"\r\n        ); // TODO: check bundle must exist\r\n        uint256 count = persons[_patientAddress].requestCount;\r\n        Request memory newRequest = Request(count, msg.sender, _bundleCid);\r\n        persons[_patientAddress].requests.push(newRequest);\r\n        persons[_patientAddress].requestCount = ++count;\r\n        emit RequestedBundle(newRequest, _patientAddress);\r\n    }\r\n\r\n    function validatePatientRequestCount()\r\n        public\r\n        view\r\n        onlyPatient\r\n        returns (uint256)\r\n    {\r\n        return persons[msg.sender].requestCount;\r\n    }\r\n\r\n    function checkPatientRequestAtIndex(uint256 index)\r\n        public\r\n        view\r\n        onlyPatient\r\n        returns (Request memory)\r\n    {\r\n        return persons[msg.sender].requests[index];\r\n    }\r\n\r\n    function requestAppointment(\r\n        string memory _reason,\r\n        string memory _venue,\r\n        uint256 _date,\r\n        uint256 _time\r\n    ) public onlyPatient {\r\n        Appointment memory newAppointment = Appointment(\r\n            _reason,\r\n            _venue,\r\n            _date,\r\n            _time\r\n        );\r\n        persons[msg.sender].appointments.push(newAppointment);\r\n        emit RequestedAppointment(newAppointment);\r\n    }\r\n\r\n    function verifyByOwner(address _personAddress) public onlyOwner {\r\n        if (\r\n            persons[_personAddress].entityClaim ==\r\n            EntityClaim.REGULATORY_AGENCY_ADMIN\r\n        ) {\r\n            persons[_personAddress].verifiedRegulatoryAgencyAdmin = true;\r\n        }\r\n    }\r\n\r\n    function getOwner() public view returns (address) {\r\n        return owner;\r\n    }\r\n\r\n    function regulatoryAgencyAdminVerify(address _personAddress)\r\n        public\r\n        onlyRegulatoryAgencyAdmin\r\n    {\r\n        if (\r\n            persons[_personAddress].entityClaim ==\r\n            EntityClaim.REGULATORY_AGENCY_ADMIN\r\n        ) {\r\n            persons[_personAddress].verifiedRegulatoryAgencyAdmin = true;\r\n            emit RegulatorAgencyAdminVerified(persons[_personAddress]);\r\n        } else if (persons[_personAddress].entityClaim == EntityClaim.DOCTOR) {\r\n            persons[_personAddress].verifiedDoctor = true;\r\n            emit DoctorVerified(persons[_personAddress]);\r\n        } else if (persons[_personAddress].entityClaim == EntityClaim.PATIENT) {\r\n            persons[_personAddress].verifiedPatient = true;\r\n            emit PatientVerified(persons[_personAddress]);\r\n        } else if (\r\n            persons[_personAddress].entityClaim ==\r\n            EntityClaim.INSURANCE_COMPANY_ADMIN\r\n        ) {\r\n            persons[_personAddress].verifiedInsuranceCompanyAdmin = true;\r\n            emit InsuranceCompanyAdminVerified(persons[_personAddress]);\r\n        }\r\n    }\r\n}\r\n",
  "sourcePath": "/mnt/c/Users/assid/Workspace/EHR-Besu/contracts/EHRSC.sol",
  "compiler": {
    "name": "solc",
    "version": "0.8.0+commit.c7dfd78e.Emscripten.clang"
  },
  "schemaVersion": "3.4.10",
  "updatedAt": "2022-11-13T08:25:00.912Z",
  "networkType": "ethereum",
  "devdoc": {
    "kind": "dev",
    "methods": {},
    "version": 1
  },
  "userdoc": {
    "kind": "user",
    "methods": {},
    "version": 1
  }
}