{
  "contractName": "EHRSC",
  "abi": [
    {
      "inputs": [],
      "payable": false,
      "stateMutability": "nonpayable",
      "type": "constructor"
    },
    {
      "constant": true,
      "inputs": [],
      "name": "requestDocuments",
      "outputs": [
        {
          "internalType": "string",
          "name": "",
          "type": "string"
        }
      ],
      "payable": false,
      "stateMutability": "view",
      "type": "function"
    }
  ],
  "bytecode": "0x608060405234801561001057600080fd5b50732a230d5b4557c27a777095f5329c0f172457b1576000806101000a81548173ffffffffffffffffffffffffffffffffffffffff021916908373ffffffffffffffffffffffffffffffffffffffff1602179055506101b8806100746000396000f3fe608060405234801561001057600080fd5b506004361061002b5760003560e01c8063c12c81b714610030575b600080fd5b6100386100b3565b6040518080602001828103825283818151815260200191508051906020019080838360005b8381101561007857808201518184015260208101905061005d565b50505050905090810190601f1680156100a55780820380516001836020036101000a031916815260200191505b509250505060405180910390f35b60603373ffffffffffffffffffffffffffffffffffffffff166000809054906101000a900473ffffffffffffffffffffffffffffffffffffffff1673ffffffffffffffffffffffffffffffffffffffff161415610147576040518060400160405280601381526020017f446f63756d656e747320726574726965766564000000000000000000000000008152509050610180565b6040518060400160405280601581526020017f446f63746f72206e6f742072656769737465726564000000000000000000000081525090505b9056fea265627a7a72315820b66c45aa7bd637b4cd468037c9e4d93f63fde1e738c4cc0bacbe267f72441d4d64736f6c63430005100032",
  "source": "// SPDX-License-Identifier: MIT\npragma solidity >=0.4.22 <0.8.0;\n\ncontract EHRSC {\n    // address[] private persons;\n    address private doctor;\n    // mapping(address => Person) public persons;\n\n    struct Person {\n        bool registered;\n    }\n\n    constructor() public {\n        // doctor = 0x4256472057Bf645F995DD8EF24480C367e154bE7;\n        doctor = 0x2a230D5b4557C27a777095f5329C0F172457b157;\n        // persons.push('0x2a230D5b4557C27a777095f5329C0F172457b157');\n    }\n\n    function requestDocuments() public view returns (string memory) {\n        // require(\n        //     persons[msg.sender].registered,\n        //     \"Unregistered person cannot call this function\"\n        // );\n        if (doctor == msg.sender) return \"Documents retrieved\";\n        else return \"Doctor not registered\";\n    }\n\n    // function getName() public view returns (string memory) {\n    //     return name;\n    // }\n\n    // function setName(string memory _name) public {\n    //     name = _name;\n    // }\n\n    // function getPatientAddress() public view returns (address) {\n    //     return patientAddress;\n    // }\n}\n",
  "sourcePath": "C:/Users/assid/Documents/Workspace/TrufflePatient-NW/contracts/EHRSC.sol",
  "compiler": {
    "name": "solc",
    "version": "0.5.16+commit.9c3226ce.Emscripten.clang"
  },
  "schemaVersion": "3.2.3",
  "updatedAt": "2021-09-26T13:56:16.805Z",
  "networkType": "ethereum",
  "devdoc": {
    "methods": {}
  },
  "userdoc": {
    "methods": {}
  }
}