{
  "contractName": "Patient",
  "abi": [
    {
      "inputs": [],
      "payable": false,
      "stateMutability": "nonpayable",
      "type": "constructor"
    },
    {
      "constant": true,
      "inputs": [],
      "name": "getName",
      "outputs": [
        {
          "internalType": "string",
          "name": "",
          "type": "string"
        }
      ],
      "payable": false,
      "stateMutability": "view",
      "type": "function"
    },
    {
      "constant": false,
      "inputs": [
        {
          "internalType": "string",
          "name": "_name",
          "type": "string"
        }
      ],
      "name": "setName",
      "outputs": [],
      "payable": false,
      "stateMutability": "nonpayable",
      "type": "function"
    },
    {
      "constant": true,
      "inputs": [],
      "name": "getPatientAddress",
      "outputs": [
        {
          "internalType": "address",
          "name": "",
          "type": "address"
        }
      ],
      "payable": false,
      "stateMutability": "view",
      "type": "function"
    }
  ],
  "bytecode": "0x6080604052336000806101000a81548173ffffffffffffffffffffffffffffffffffffffff021916908373ffffffffffffffffffffffffffffffffffffffff16021790555034801561005057600080fd5b50336000806101000a81548173ffffffffffffffffffffffffffffffffffffffff021916908373ffffffffffffffffffffffffffffffffffffffff16021790555061038d806100a06000396000f3fe608060405234801561001057600080fd5b50600436106100415760003560e01c806317d7de7c146100465780633ac93dcc146100c9578063c47f002714610113575b600080fd5b61004e6101ce565b6040518080602001828103825283818151815260200191508051906020019080838360005b8381101561008e578082015181840152602081019050610073565b50505050905090810190601f1680156100bb5780820380516001836020036101000a031916815260200191505b509250505060405180910390f35b6100d1610270565b604051808273ffffffffffffffffffffffffffffffffffffffff1673ffffffffffffffffffffffffffffffffffffffff16815260200191505060405180910390f35b6101cc6004803603602081101561012957600080fd5b810190808035906020019064010000000081111561014657600080fd5b82018360208201111561015857600080fd5b8035906020019184600183028401116401000000008311171561017a57600080fd5b91908080601f016020809104026020016040519081016040528093929190818152602001838380828437600081840152601f19601f820116905080830192505050505050509192919290505050610299565b005b606060018054600181600116156101000203166002900480601f0160208091040260200160405190810160405280929190818152602001828054600181600116156101000203166002900480156102665780601f1061023b57610100808354040283529160200191610266565b820191906000526020600020905b81548152906001019060200180831161024957829003601f168201915b5050505050905090565b60008060009054906101000a900473ffffffffffffffffffffffffffffffffffffffff16905090565b80600190805190602001906102af9291906102b3565b5050565b828054600181600116156101000203166002900490600052602060002090601f016020900481019282601f106102f457805160ff1916838001178555610322565b82800160010185558215610322579182015b82811115610321578251825591602001919060010190610306565b5b50905061032f9190610333565b5090565b61035591905b80821115610351576000816000905550600101610339565b5090565b9056fea265627a7a72315820b086753c960a4bf3b4f39c74c88bffd38e4ba3e4df6d1a24906f7ea226d80d4e64736f6c63430005100032",
  "source": "// SPDX-License-Identifier: MIT\npragma solidity >=0.4.22 <0.8.0;\n\ncontract Patient {\n    address private patientAddress = msg.sender;\n    string private name;\n\n    constructor() public {\n        patientAddress = msg.sender;\n    }\n\n    function getName() public view returns (string memory) {\n        return name;\n    }\n\n    function setName(string memory _name) public {\n        name = _name;\n    }\n\n    function getPatientAddress() public view returns (address) {\n        return patientAddress;\n    }\n}\n",
  "sourcePath": "C:/Users/assid/Documents/Workspace/TrufflePatient-NW/contracts/Patient.sol",
  "compiler": {
    "name": "solc",
    "version": "0.5.16+commit.9c3226ce.Emscripten.clang"
  },
  "schemaVersion": "3.2.3",
  "updatedAt": "2021-09-26T13:56:15.968Z",
  "networkType": "ethereum",
  "devdoc": {
    "methods": {}
  },
  "userdoc": {
    "methods": {}
  }
}